{
  "contractName": "BNBankDividendTracker",
  "abi": [
    {
      "inputs": [],
      "stateMutability": "nonpayable",
      "type": "constructor"
    },
    {
      "anonymous": false,
      "inputs": [
        {
          "indexed": true,
          "internalType": "address",
          "name": "owner",
          "type": "address"
        },
        {
          "indexed": true,
          "internalType": "address",
          "name": "spender",
          "type": "address"
        },
        {
          "indexed": false,
          "internalType": "uint256",
          "name": "value",
          "type": "uint256"
        }
      ],
      "name": "Approval",
      "type": "event"
    },
    {
      "anonymous": false,
      "inputs": [
        {
          "indexed": true,
          "internalType": "address",
          "name": "account",
          "type": "address"
        },
        {
          "indexed": false,
          "internalType": "uint256",
          "name": "amount",
          "type": "uint256"
        },
        {
          "indexed": true,
          "internalType": "bool",
          "name": "automatic",
          "type": "bool"
        }
      ],
      "name": "Claim",
      "type": "event"
    },
    {
      "anonymous": false,
      "inputs": [
        {
          "indexed": true,
          "internalType": "uint256",
          "name": "newValue",
          "type": "uint256"
        },
        {
          "indexed": true,
          "internalType": "uint256",
          "name": "oldValue",
          "type": "uint256"
        }
      ],
      "name": "ClaimWaitUpdated",
      "type": "event"
    },
    {
      "anonymous": false,
      "inputs": [
        {
          "indexed": true,
          "internalType": "address",
          "name": "to",
          "type": "address"
        },
        {
          "indexed": false,
          "internalType": "uint256",
          "name": "weiAmount",
          "type": "uint256"
        }
      ],
      "name": "DividendWithdrawn",
      "type": "event"
    },
    {
      "anonymous": false,
      "inputs": [
        {
          "indexed": true,
          "internalType": "address",
          "name": "from",
          "type": "address"
        },
        {
          "indexed": false,
          "internalType": "uint256",
          "name": "weiAmount",
          "type": "uint256"
        }
      ],
      "name": "DividendsDistributed",
      "type": "event"
    },
    {
      "anonymous": false,
      "inputs": [
        {
          "indexed": true,
          "internalType": "address",
          "name": "account",
          "type": "address"
        }
      ],
      "name": "ExcludeFromDividends",
      "type": "event"
    },
    {
      "anonymous": false,
      "inputs": [
        {
          "indexed": true,
          "internalType": "address",
          "name": "previousOwner",
          "type": "address"
        },
        {
          "indexed": true,
          "internalType": "address",
          "name": "newOwner",
          "type": "address"
        }
      ],
      "name": "OwnershipTransferred",
      "type": "event"
    },
    {
      "anonymous": false,
      "inputs": [
        {
          "indexed": true,
          "internalType": "address",
          "name": "from",
          "type": "address"
        },
        {
          "indexed": true,
          "internalType": "address",
          "name": "to",
          "type": "address"
        },
        {
          "indexed": false,
          "internalType": "uint256",
          "name": "value",
          "type": "uint256"
        }
      ],
      "name": "Transfer",
      "type": "event"
    },
    {
      "inputs": [],
      "name": "USDT",
      "outputs": [
        {
          "internalType": "address",
          "name": "",
          "type": "address"
        }
      ],
      "stateMutability": "view",
      "type": "function"
    },
    {
      "inputs": [
        {
          "internalType": "address",
          "name": "_owner",
          "type": "address"
        }
      ],
      "name": "accumulativeDividendOf",
      "outputs": [
        {
          "internalType": "uint256",
          "name": "",
          "type": "uint256"
        }
      ],
      "stateMutability": "view",
      "type": "function"
    },
    {
      "inputs": [
        {
          "internalType": "address",
          "name": "owner",
          "type": "address"
        },
        {
          "internalType": "address",
          "name": "spender",
          "type": "address"
        }
      ],
      "name": "allowance",
      "outputs": [
        {
          "internalType": "uint256",
          "name": "",
          "type": "uint256"
        }
      ],
      "stateMutability": "view",
      "type": "function"
    },
    {
      "inputs": [
        {
          "internalType": "address",
          "name": "spender",
          "type": "address"
        },
        {
          "internalType": "uint256",
          "name": "amount",
          "type": "uint256"
        }
      ],
      "name": "approve",
      "outputs": [
        {
          "internalType": "bool",
          "name": "",
          "type": "bool"
        }
      ],
      "stateMutability": "nonpayable",
      "type": "function"
    },
    {
      "inputs": [
        {
          "internalType": "address",
          "name": "account",
          "type": "address"
        }
      ],
      "name": "balanceOf",
      "outputs": [
        {
          "internalType": "uint256",
          "name": "",
          "type": "uint256"
        }
      ],
      "stateMutability": "view",
      "type": "function"
    },
    {
      "inputs": [],
      "name": "claimWait",
      "outputs": [
        {
          "internalType": "uint256",
          "name": "",
          "type": "uint256"
        }
      ],
      "stateMutability": "view",
      "type": "function"
    },
    {
      "inputs": [],
      "name": "decimals",
      "outputs": [
        {
          "internalType": "uint8",
          "name": "",
          "type": "uint8"
        }
      ],
      "stateMutability": "view",
      "type": "function"
    },
    {
      "inputs": [
        {
          "internalType": "address",
          "name": "spender",
          "type": "address"
        },
        {
          "internalType": "uint256",
          "name": "subtractedValue",
          "type": "uint256"
        }
      ],
      "name": "decreaseAllowance",
      "outputs": [
        {
          "internalType": "bool",
          "name": "",
          "type": "bool"
        }
      ],
      "stateMutability": "nonpayable",
      "type": "function"
    },
    {
      "inputs": [
        {
          "internalType": "uint256",
          "name": "amount",
          "type": "uint256"
        }
      ],
      "name": "distributeUSDTDividends",
      "outputs": [],
      "stateMutability": "nonpayable",
      "type": "function"
    },
    {
      "inputs": [
        {
          "internalType": "address",
          "name": "_owner",
          "type": "address"
        }
      ],
      "name": "dividendOf",
      "outputs": [
        {
          "internalType": "uint256",
          "name": "",
          "type": "uint256"
        }
      ],
      "stateMutability": "view",
      "type": "function"
    },
    {
      "inputs": [
        {
          "internalType": "address",
          "name": "",
          "type": "address"
        }
      ],
      "name": "excludedFromDividends",
      "outputs": [
        {
          "internalType": "bool",
          "name": "",
          "type": "bool"
        }
      ],
      "stateMutability": "view",
      "type": "function"
    },
    {
      "inputs": [
        {
          "internalType": "address",
          "name": "spender",
          "type": "address"
        },
        {
          "internalType": "uint256",
          "name": "addedValue",
          "type": "uint256"
        }
      ],
      "name": "increaseAllowance",
      "outputs": [
        {
          "internalType": "bool",
          "name": "",
          "type": "bool"
        }
      ],
      "stateMutability": "nonpayable",
      "type": "function"
    },
    {
      "inputs": [
        {
          "internalType": "address",
          "name": "",
          "type": "address"
        }
      ],
      "name": "lastClaimTimes",
      "outputs": [
        {
          "internalType": "uint256",
          "name": "",
          "type": "uint256"
        }
      ],
      "stateMutability": "view",
      "type": "function"
    },
    {
      "inputs": [],
      "name": "lastProcessedIndex",
      "outputs": [
        {
          "internalType": "uint256",
          "name": "",
          "type": "uint256"
        }
      ],
      "stateMutability": "view",
      "type": "function"
    },
    {
      "inputs": [],
      "name": "minimumTokenBalanceForDividends",
      "outputs": [
        {
          "internalType": "uint256",
          "name": "",
          "type": "uint256"
        }
      ],
      "stateMutability": "view",
      "type": "function"
    },
    {
      "inputs": [],
      "name": "name",
      "outputs": [
        {
          "internalType": "string",
          "name": "",
          "type": "string"
        }
      ],
      "stateMutability": "view",
      "type": "function"
    },
    {
      "inputs": [],
      "name": "owner",
      "outputs": [
        {
          "internalType": "address",
          "name": "",
          "type": "address"
        }
      ],
      "stateMutability": "view",
      "type": "function"
    },
    {
      "inputs": [],
      "name": "renounceOwnership",
      "outputs": [],
      "stateMutability": "nonpayable",
      "type": "function"
    },
    {
      "inputs": [],
      "name": "symbol",
      "outputs": [
        {
          "internalType": "string",
          "name": "",
          "type": "string"
        }
      ],
      "stateMutability": "view",
      "type": "function"
    },
    {
      "inputs": [],
      "name": "totalDividendsDistributed",
      "outputs": [
        {
          "internalType": "uint256",
          "name": "",
          "type": "uint256"
        }
      ],
      "stateMutability": "view",
      "type": "function"
    },
    {
      "inputs": [],
      "name": "totalSupply",
      "outputs": [
        {
          "internalType": "uint256",
          "name": "",
          "type": "uint256"
        }
      ],
      "stateMutability": "view",
      "type": "function"
    },
    {
      "inputs": [
        {
          "internalType": "address",
          "name": "recipient",
          "type": "address"
        },
        {
          "internalType": "uint256",
          "name": "amount",
          "type": "uint256"
        }
      ],
      "name": "transfer",
      "outputs": [
        {
          "internalType": "bool",
          "name": "",
          "type": "bool"
        }
      ],
      "stateMutability": "nonpayable",
      "type": "function"
    },
    {
      "inputs": [
        {
          "internalType": "address",
          "name": "sender",
          "type": "address"
        },
        {
          "internalType": "address",
          "name": "recipient",
          "type": "address"
        },
        {
          "internalType": "uint256",
          "name": "amount",
          "type": "uint256"
        }
      ],
      "name": "transferFrom",
      "outputs": [
        {
          "internalType": "bool",
          "name": "",
          "type": "bool"
        }
      ],
      "stateMutability": "nonpayable",
      "type": "function"
    },
    {
      "inputs": [
        {
          "internalType": "address",
          "name": "newOwner",
          "type": "address"
        }
      ],
      "name": "transferOwnership",
      "outputs": [],
      "stateMutability": "nonpayable",
      "type": "function"
    },
    {
      "inputs": [
        {
          "internalType": "address",
          "name": "_owner",
          "type": "address"
        }
      ],
      "name": "withdrawableDividendOf",
      "outputs": [
        {
          "internalType": "uint256",
          "name": "",
          "type": "uint256"
        }
      ],
      "stateMutability": "view",
      "type": "function"
    },
    {
      "inputs": [
        {
          "internalType": "address",
          "name": "_owner",
          "type": "address"
        }
      ],
      "name": "withdrawnDividendOf",
      "outputs": [
        {
          "internalType": "uint256",
          "name": "",
          "type": "uint256"
        }
      ],
      "stateMutability": "view",
      "type": "function"
    },
    {
      "inputs": [],
      "name": "withdrawDividend",
      "outputs": [],
      "stateMutability": "pure",
      "type": "function"
    },
    {
      "inputs": [
        {
          "internalType": "address",
          "name": "account",
          "type": "address"
        }
      ],
      "name": "excludeFromDividends",
      "outputs": [],
      "stateMutability": "nonpayable",
      "type": "function"
    },
    {
      "inputs": [
        {
          "internalType": "uint256",
          "name": "newClaimWait",
          "type": "uint256"
        }
      ],
      "name": "updateClaimWait",
      "outputs": [],
      "stateMutability": "nonpayable",
      "type": "function"
    },
    {
      "inputs": [
        {
          "internalType": "uint256",
          "name": "index",
          "type": "uint256"
        }
      ],
      "name": "setLastProcessedIndex",
      "outputs": [],
      "stateMutability": "nonpayable",
      "type": "function"
    },
    {
      "inputs": [],
      "name": "getLastProcessedIndex",
      "outputs": [
        {
          "internalType": "uint256",
          "name": "",
          "type": "uint256"
        }
      ],
      "stateMutability": "view",
      "type": "function"
    },
    {
      "inputs": [],
      "name": "getNumberOfTokenHolders",
      "outputs": [
        {
          "internalType": "uint256",
          "name": "",
          "type": "uint256"
        }
      ],
      "stateMutability": "view",
      "type": "function"
    },
    {
      "inputs": [
        {
          "internalType": "address",
          "name": "_account",
          "type": "address"
        }
      ],
      "name": "getAccount",
      "outputs": [
        {
          "internalType": "address",
          "name": "account",
          "type": "address"
        },
        {
          "internalType": "int256",
          "name": "index",
          "type": "int256"
        },
        {
          "internalType": "int256",
          "name": "iterationsUntilProcessed",
          "type": "int256"
        },
        {
          "internalType": "uint256",
          "name": "withdrawableDividends",
          "type": "uint256"
        },
        {
          "internalType": "uint256",
          "name": "totalDividends",
          "type": "uint256"
        },
        {
          "internalType": "uint256",
          "name": "lastClaimTime",
          "type": "uint256"
        },
        {
          "internalType": "uint256",
          "name": "nextClaimTime",
          "type": "uint256"
        },
        {
          "internalType": "uint256",
          "name": "secondsUntilAutoClaimAvailable",
          "type": "uint256"
        }
      ],
      "stateMutability": "view",
      "type": "function"
    },
    {
      "inputs": [
        {
          "internalType": "uint256",
          "name": "index",
          "type": "uint256"
        }
      ],
      "name": "getAccountAtIndex",
      "outputs": [
        {
          "internalType": "address",
          "name": "",
          "type": "address"
        },
        {
          "internalType": "int256",
          "name": "",
          "type": "int256"
        },
        {
          "internalType": "int256",
          "name": "",
          "type": "int256"
        },
        {
          "internalType": "uint256",
          "name": "",
          "type": "uint256"
        },
        {
          "internalType": "uint256",
          "name": "",
          "type": "uint256"
        },
        {
          "internalType": "uint256",
          "name": "",
          "type": "uint256"
        },
        {
          "internalType": "uint256",
          "name": "",
          "type": "uint256"
        },
        {
          "internalType": "uint256",
          "name": "",
          "type": "uint256"
        }
      ],
      "stateMutability": "view",
      "type": "function"
    },
    {
      "inputs": [
        {
          "internalType": "address payable",
          "name": "account",
          "type": "address"
        },
        {
          "internalType": "uint256",
          "name": "newBalance",
          "type": "uint256"
        }
      ],
      "name": "setBalance",
      "outputs": [],
      "stateMutability": "nonpayable",
      "type": "function"
    },
    {
      "inputs": [
        {
          "internalType": "uint256",
          "name": "gas",
          "type": "uint256"
        }
      ],
      "name": "process",
      "outputs": [
        {
          "internalType": "uint256",
          "name": "",
          "type": "uint256"
        },
        {
          "internalType": "uint256",
          "name": "",
          "type": "uint256"
        },
        {
          "internalType": "uint256",
          "name": "",
          "type": "uint256"
        }
      ],
      "stateMutability": "nonpayable",
      "type": "function"
    },
    {
      "inputs": [
        {
          "internalType": "address payable",
          "name": "account",
          "type": "address"
        },
        {
          "internalType": "bool",
          "name": "automatic",
          "type": "bool"
        }
      ],
      "name": "processAccount",
      "outputs": [
        {
          "internalType": "bool",
          "name": "",
          "type": "bool"
        }
      ],
      "stateMutability": "nonpayable",
      "type": "function"
    }
  ],
  "bytecode": "0x60c060405273c0976b10c602f182c438d165d3162dd0b1e0891a6080523480156200002957600080fd5b50604080518082018252601681527f424e42616e6b5f4469766964656e5f547261636b65720000000000000000000060208083019182528351808501909452601784527f424e42616e6b5f4469766964656e645f547261636b657200000000000000000090840152815191929183918391620000a89160039162000141565b508051620000be90600490602084019062000141565b5050506000620000d36200013d60201b60201c565b600580546001600160a01b0319166001600160a01b038316908117909155604051919250906000907f8be0079c531659141344cd1fd0a4f28419497f9722a3daafe3b4186f6b6457e0908290a35050610e1060115550692a5a058fc295ed00000060a0526200023d565b3390565b8280546200014f90620001e7565b90600052602060002090601f016020900481019282620001735760008555620001be565b82601f106200018e57805160ff1916838001178555620001be565b82800160010185558215620001be579182015b82811115620001be578251825591602001919060010190620001a1565b50620001cc929150620001d0565b5090565b5b80821115620001cc5760008155600101620001d1565b600181811c90821680620001fc57607f821691505b6020821081141562000237577f4e487b7100000000000000000000000000000000000000000000000000000000600052602260045260246000fd5b50919050565b60805160a051611fda62000271600039600081816104a00152610cc90152600081816104c701526117fc0152611fda6000f3fe608060405234801561001057600080fd5b50600436106102275760003560e01c806385a6b3ae11610130578063be10b614116100b8578063e98030c71161007c578063e98030c71461053d578063edd6bf8714610550578063f2fde38b14610563578063fbcbc0f114610576578063ffb2c4791461058957600080fd5b8063be10b6141461049b578063c54e44eb146104c2578063dd62ed3e146104e9578063e30443bc14610522578063e7841ec01461053557600080fd5b8063a457c2d7116100ff578063a457c2d714610426578063a8b9d24014610439578063a9059cbb1461044c578063aafd847a1461045f578063bc4c4b371461048857600080fd5b806385a6b3ae146103dd5780638da5cb5b146103e657806391b89fba1461040b57806395d89b411461041e57600080fd5b8063313ce567116101b35780635183d6fd116101825780635183d6fd146103435780636a4740021461039b5780636f2789ec146103a357806370a08231146103ac578063715018a6146103d557600080fd5b8063313ce567146102eb57806331e79db0146102fa578063395093511461030d5780634e7b827f1461032057600080fd5b8063226cfa3d116101fa578063226cfa3d1461028757806323b872dd146102a757806327ce0147146102ba578063286b3aa0146102cd5780633009a609146102e257600080fd5b806306fdde031461022c578063095ea7b31461024a57806309bbedde1461026d57806318160ddd1461027f575b600080fd5b6102346105b7565b6040516102419190611bb9565b60405180910390f35b61025d610258366004611c23565b610649565b6040519015158152602001610241565b600a545b604051908152602001610241565b600254610271565b610271610295366004611c4f565b60106020526000908152604090205481565b61025d6102b5366004611c6c565b610660565b6102716102c8366004611c4f565b6106c9565b6102e06102db366004611cad565b610725565b005b610271600e5481565b60405160128152602001610241565b6102e0610308366004611c4f565b61075d565b61025d61031b366004611c23565b610884565b61025d61032e366004611c4f565b600f6020526000908152604090205460ff1681565b610356610351366004611cad565b6108ba565b604080516001600160a01b0390991689526020890197909752958701949094526060860192909252608085015260a084015260c083015260e082015261010001610241565b6102e0610a0e565b61027160115481565b6102716103ba366004611c4f565b6001600160a01b031660009081526020819052604090205490565b6102e0610ab4565b61027160095481565b6005546001600160a01b03165b6040516001600160a01b039091168152602001610241565b610271610419366004611c4f565b610b28565b610234610b33565b61025d610434366004611c23565b610b42565b610271610447366004611c4f565b610b91565b61025d61045a366004611c23565b610bbd565b61027161046d366004611c4f565b6001600160a01b031660009081526008602052604090205490565b61025d610496366004611cd4565b610bca565b6102717f000000000000000000000000000000000000000000000000000000000000000081565b6103f37f000000000000000000000000000000000000000000000000000000000000000081565b6102716104f7366004611d0d565b6001600160a01b03918216600090815260016020908152604080832093909416825291909152205490565b6102e0610530366004611c23565b610c78565b600e54610271565b6102e061054b366004611cad565b610e04565b6102e061055e366004611cad565b610f76565b6102e0610571366004611c4f565b611034565b610356610584366004611c4f565b61111f565b61059c610597366004611cad565b611288565b60408051938452602084019290925290820152606001610241565b6060600380546105c690611d3b565b80601f01602080910402602001604051908101604052809291908181526020018280546105f290611d3b565b801561063f5780601f106106145761010080835404028352916020019161063f565b820191906000526020600020905b81548152906001019060200180831161062257829003601f168201915b5050505050905090565b60006106563384846113a3565b5060015b92915050565b600061066d8484846114c7565b6106bf84336106ba85604051806060016040528060288152602001611f58602891396001600160a01b038a1660009081526001602090815260408083203384529091529020549190611524565b6113a3565b5060019392505050565b6001600160a01b03811660009081526007602090815260408083205491839052822054600654600160801b9261071b92610716926107109161070b919061155e565b6115e4565b906115f4565b611632565b61065a9190611d8c565b6005546001600160a01b031633146107585760405162461bcd60e51b815260040161074f90611dae565b60405180910390fd5b600e55565b6005546001600160a01b031633146107875760405162461bcd60e51b815260040161074f90611dae565b6001600160a01b0381166000908152600f602052604090205460ff16156107ad57600080fd5b6001600160a01b0381166000908152600f60205260408120805460ff191660011790556107db908290611645565b60405163131836e760e21b8152600a60048201526001600160a01b038216602482015273__IterableMapping_______________________90634c60db9c9060440160006040518083038186803b15801561083557600080fd5b505af4158015610849573d6000803e3d6000fd5b50506040516001600160a01b03841692507fa878b31040b2e6d0a9a3d3361209db3908ba62014b0dca52adbaee451d128b259150600090a250565b3360008181526001602090815260408083206001600160a01b038716845290915281205490916106569185906106ba90866116a4565b600080600080600080600080600a73__IterableMapping_______________________63deb3d89690916040518263ffffffff1660e01b815260040161090291815260200190565b602060405180830381865af415801561091f573d6000803e3d6000fd5b505050506040513d601f19601f820116820180604052508101906109439190611de3565b8910610968575060009650600019955085945086935083925082915081905080610a03565b6040516368d54f3f60e11b8152600a6004820152602481018a905260009073__IterableMapping_______________________9063d1aa9e7e90604401602060405180830381865af41580156109c2573d6000803e3d6000fd5b505050506040513d601f19601f820116820180604052508101906109e69190611dfc565b90506109f18161111f565b98509850985098509850985098509850505b919395975091939597565b60405162461bcd60e51b815260206004820152606960248201527f424e42616e6b5f4469766964656e5f547261636b65723a20776974686472617760448201527f4469766964656e642064697361626c65642e20557365207468652027636c616960648201527f6d272066756e6374696f6e206f6e20746865206d61696e20426e6242616e6b2060848201526831b7b73a3930b1ba1760b91b60a482015260c40161074f565b6005546001600160a01b03163314610ade5760405162461bcd60e51b815260040161074f90611dae565b6005546040516000916001600160a01b0316907f8be0079c531659141344cd1fd0a4f28419497f9722a3daafe3b4186f6b6457e0908390a3600580546001600160a01b0319169055565b600061065a82610b91565b6060600480546105c690611d3b565b600061065633846106ba85604051806060016040528060258152602001611f80602591393360009081526001602090815260408083206001600160a01b038d1684529091529020549190611524565b6001600160a01b03811660009081526008602052604081205461065a90610bb7846106c9565b90611703565b60006106563384846114c7565b6005546000906001600160a01b03163314610bf75760405162461bcd60e51b815260040161074f90611dae565b6000610c0284611745565b90508015610c6e576001600160a01b038416600081815260106020526040908190204290555184151591907fa2c38e2d2fb7e3e1912d937fd1ca11ed6d51864dee4cfa7a7bf02becd7acf09290610c5c9085815260200190565b60405180910390a3600191505061065a565b5060009392505050565b6005546001600160a01b03163314610ca25760405162461bcd60e51b815260040161074f90611dae565b6001600160a01b0382166000908152600f602052604090205460ff1615610cc7575050565b7f00000000000000000000000000000000000000000000000000000000000000008110610d7657610cf88282611645565b604051632f0ad01760e21b8152600a60048201526001600160a01b03831660248201526044810182905273__IterableMapping_______________________9063bc2b405c9060640160006040518083038186803b158015610d5957600080fd5b505af4158015610d6d573d6000803e3d6000fd5b50505050610df4565b610d81826000611645565b60405163131836e760e21b8152600a60048201526001600160a01b038316602482015273__IterableMapping_______________________90634c60db9c9060440160006040518083038186803b158015610ddb57600080fd5b505af4158015610def573d6000803e3d6000fd5b505050505b610dff826001610bca565b505050565b6005546001600160a01b03163314610e2e5760405162461bcd60e51b815260040161074f90611dae565b610e108110158015610e435750620151808111155b610ecb5760405162461bcd60e51b815260206004820152604d60248201527f426e6242616e6b5f4469766964656e645f547261636b65723a20636c61696d5760448201527f616974206d757374206265207570646174656420746f206265747765656e203160648201526c20616e6420323420686f75727360981b608482015260a40161074f565b601154811415610f435760405162461bcd60e51b815260206004820152603d60248201527f424e42616e6b5f4469766964656e5f547261636b65723a2043616e6e6f74207560448201527f706461746520636c61696d5761697420746f2073616d652076616c7565000000606482015260840161074f565b60115460405182907f474ea64804364a1e29a4487ddb63c3342a2dd826ccd8acf48825e680a0e6f20f90600090a3601155565b6005546001600160a01b03163314610fa05760405162461bcd60e51b815260040161074f90611dae565b6000610fab60025490565b11610fb557600080fd5b801561103157610fe8610fc760025490565b610fd583600160801b61155e565b610fdf9190611d8c565b600654906116a4565b60065560405181815233907fa493a9229478c3fcd73f66d2cdeb7f94fd0f341da924d1054236d784541165119060200160405180910390a260095461102d90826116a4565b6009555b50565b6005546001600160a01b0316331461105e5760405162461bcd60e51b815260040161074f90611dae565b6001600160a01b0381166110c35760405162461bcd60e51b815260206004820152602660248201527f4f776e61626c653a206e6577206f776e657220697320746865207a65726f206160448201526564647265737360d01b606482015260840161074f565b6005546040516001600160a01b038084169216907f8be0079c531659141344cd1fd0a4f28419497f9722a3daafe3b4186f6b6457e090600090a3600580546001600160a01b0319166001600160a01b0392909216919091179055565b6040516317e142d160e01b8152600a60048201526001600160a01b0382166024820152819060009081908190819081908190819073__IterableMapping_______________________906317e142d190604401602060405180830381865af415801561118f573d6000803e3d6000fd5b505050506040513d601f19601f820116820180604052508101906111b39190611de3565b965060001995506000871261121557600e548711156111e157600e546111da9088906118ca565b9550611215565b600e54600a54600091106111f6576000611205565b600e54600a5461120591611703565b905061121188826115f4565b9650505b61121e88610b91565b9450611229886106c9565b6001600160a01b038916600090815260106020526040902054909450925082611253576000611261565b6011546112619084906116a4565b915042821161127157600061127b565b61127b8242611703565b9050919395975091939597565b600a5460009081908190806112a8575050600e546000925082915061139c565b600e546000805a90506000805b89841080156112c357508582105b1561138b57846112d281611e19565b600a54909650861090506112e557600094505b6000600a60000186815481106112fd576112fd611e34565b60009182526020808320909101546001600160a01b0316808352601090915260409091205490915061132e90611907565b156113515761133e816001610bca565b15611351578161134d81611e19565b9250505b8261135b81611e19565b93505060005a9050808511156113825761137f6113788683611703565b87906116a4565b95505b93506112b59050565b600e85905590975095509193505050505b9193909250565b6001600160a01b0383166114055760405162461bcd60e51b8152602060048201526024808201527f45524332303a20617070726f76652066726f6d20746865207a65726f206164646044820152637265737360e01b606482015260840161074f565b6001600160a01b0382166114665760405162461bcd60e51b815260206004820152602260248201527f45524332303a20617070726f766520746f20746865207a65726f206164647265604482015261737360f01b606482015260840161074f565b6001600160a01b0383811660008181526001602090815260408083209487168084529482529182902085905590518481527f8c5be1e5ebec7d5bd14f71427d1e84f3dd0314c0f7b2291e5b200ac8c7c3b925910160405180910390a3505050565b60405162461bcd60e51b815260206004820152602c60248201527f424e42616e6b5f4469766964656e5f547261636b65723a204e6f207472616e7360448201526b19995c9cc8185b1b1bddd95960a21b606482015260840161074f565b600081848411156115485760405162461bcd60e51b815260040161074f9190611bb9565b5060006115558486611e4a565b95945050505050565b60008261156d5750600061065a565b60006115798385611e61565b9050826115868583611d8c565b146115dd5760405162461bcd60e51b815260206004820152602160248201527f536166654d6174683a206d756c7469706c69636174696f6e206f766572666c6f6044820152607760f81b606482015260840161074f565b9392505050565b6000818181121561065a57600080fd5b6000806116018385611e80565b9050600083121580156116145750838112155b80611629575060008312801561162957508381125b6115dd57600080fd5b60008082121561164157600080fd5b5090565b6001600160a01b038216600090815260208190526040902054808211156116845760006116728383611703565b905061167e848261192e565b50505050565b80821015610dff5760006116988284611703565b905061167e8482611992565b6000806116b18385611ec1565b9050838110156115dd5760405162461bcd60e51b815260206004820152601b60248201527f536166654d6174683a206164646974696f6e206f766572666c6f770000000000604482015260640161074f565b60006115dd83836040518060400160405280601e81526020017f536166654d6174683a207375627472616374696f6e206f766572666c6f770000815250611524565b60008061175183610b91565b905080156118c1576001600160a01b03831660009081526008602052604090205461177c90826116a4565b6001600160a01b038416600081815260086020526040908190209290925590517fee503bee2bb6a87e57bc57db795f98137327401a0e7b7ce42e37926cc1a9ca4d906117cb9084815260200190565b60405180910390a260405163a9059cbb60e01b81526001600160a01b038481166004830152602482018390526000917f00000000000000000000000000000000000000000000000000000000000000009091169063a9059cbb906044016020604051808303816000875af1158015611847573d6000803e3d6000fd5b505050506040513d601f19601f8201168201806040525081019061186b9190611ed9565b9050806118ba576001600160a01b0384166000908152600860205260409020546118959083611703565b6001600160a01b03909416600090815260086020526040812094909455509192915050565b5092915050565b50600092915050565b6000806118d78385611ef6565b9050600083121580156118ea5750838113155b80611629575060008312801561162957508381136115dd57600080fd5b60004282111561191957506000919050565b6011546119264284611703565b101592915050565b61193882826119d6565b61197261195361070b8360065461155e90919063ffffffff16565b6001600160a01b038416600090815260076020526040902054906118ca565b6001600160a01b0390921660009081526007602052604090209190915550565b61199c8282611ab5565b6119726119b761070b8360065461155e90919063ffffffff16565b6001600160a01b038416600090815260076020526040902054906115f4565b6001600160a01b038216611a2c5760405162461bcd60e51b815260206004820152601f60248201527f45524332303a206d696e7420746f20746865207a65726f206164647265737300604482015260640161074f565b600254611a3990826116a4565b6002556001600160a01b038216600090815260208190526040902054611a5f90826116a4565b6001600160a01b038316600081815260208181526040808320949094559251848152919290917fddf252ad1be2c89b69c2b068fc378daa952ba7f163c4a11628f55a4df523b3ef91015b60405180910390a35050565b6001600160a01b038216611b155760405162461bcd60e51b815260206004820152602160248201527f45524332303a206275726e2066726f6d20746865207a65726f206164647265736044820152607360f81b606482015260840161074f565b611b5281604051806060016040528060228152602001611f36602291396001600160a01b0385166000908152602081905260409020549190611524565b6001600160a01b038316600090815260208190526040902055600254611b789082611703565b6002556040518181526000906001600160a01b038416907fddf252ad1be2c89b69c2b068fc378daa952ba7f163c4a11628f55a4df523b3ef90602001611aa9565b600060208083528351808285015260005b81811015611be657858101830151858201604001528201611bca565b81811115611bf8576000604083870101525b50601f01601f1916929092016040019392505050565b6001600160a01b038116811461103157600080fd5b60008060408385031215611c3657600080fd5b8235611c4181611c0e565b946020939093013593505050565b600060208284031215611c6157600080fd5b81356115dd81611c0e565b600080600060608486031215611c8157600080fd5b8335611c8c81611c0e565b92506020840135611c9c81611c0e565b929592945050506040919091013590565b600060208284031215611cbf57600080fd5b5035919050565b801515811461103157600080fd5b60008060408385031215611ce757600080fd5b8235611cf281611c0e565b91506020830135611d0281611cc6565b809150509250929050565b60008060408385031215611d2057600080fd5b8235611d2b81611c0e565b91506020830135611d0281611c0e565b600181811c90821680611d4f57607f821691505b60208210811415611d7057634e487b7160e01b600052602260045260246000fd5b50919050565b634e487b7160e01b600052601160045260246000fd5b600082611da957634e487b7160e01b600052601260045260246000fd5b500490565b6020808252818101527f4f776e61626c653a2063616c6c6572206973206e6f7420746865206f776e6572604082015260600190565b600060208284031215611df557600080fd5b5051919050565b600060208284031215611e0e57600080fd5b81516115dd81611c0e565b6000600019821415611e2d57611e2d611d76565b5060010190565b634e487b7160e01b600052603260045260246000fd5b600082821015611e5c57611e5c611d76565b500390565b6000816000190483118215151615611e7b57611e7b611d76565b500290565b600080821280156001600160ff1b0384900385131615611ea257611ea2611d76565b600160ff1b8390038412811615611ebb57611ebb611d76565b50500190565b60008219821115611ed457611ed4611d76565b500190565b600060208284031215611eeb57600080fd5b81516115dd81611cc6565b60008083128015600160ff1b850184121615611f1457611f14611d76565b6001600160ff1b0384018313811615611f2f57611f2f611d76565b5050039056fe45524332303a206275726e20616d6f756e7420657863656564732062616c616e636545524332303a207472616e7366657220616d6f756e74206578636565647320616c6c6f77616e636545524332303a2064656372656173656420616c6c6f77616e63652062656c6f77207a65726fa2646970667358221220bb97291930df2902130d87cc561ce60b5abf8569feaaaafa45a860604c6c2c4c64736f6c634300080b0033",
  "immutableReferences": {
    "55": [
      {
        "length": 32,
        "start": 1223
      },
      {
        "length": 32,
        "start": 6140
      }
    ],
    "3768": [
      {
        "length": 32,
        "start": 1184
      },
      {
        "length": 32,
        "start": 3273
      }
    ]
  },
  "source": "// SPDX-License-Identifier: MIT\n\n//\n// DIVIDEND YIELD PAID IN USDT! With the auto-claim feature,\n// simply hold $BABYUSDT and you'll receive USDT automatically in your wallet.\n// \n// Hold BABYUSDT and get rewarded in USDT on every transaction!\n//\n\npragma solidity ^0.8.11;\n\nimport \"./IUniswapV2Pair.sol\";\nimport \"./IUniswapV2Factory.sol\";\nimport \"./IUniswapV2Router.sol\";\nimport \"./SafeMath.sol\";\nimport \"./IterableMapping.sol\";\nimport \"./Ownable.sol\";\nimport \"./DividendPayingToken.sol\";\n\ncontract BNBank is ERC20, Ownable {\n    using SafeMath for uint256;\n\n    IUniswapV2Router02 public uniswapV2Router;\n    address public  uniswapV2Pair;\n\n    bool private swapping;\n\n    BNBankDividendTracker public dividendTracker;\n\n    address public deadWallet = 0x000000000000000000000000000000000000dEaD;\n\n    address public immutable USDT = address(0xc0976B10C602f182C438d165d3162dD0B1e0891A); // USDT\n\n    uint256 public swapTokensAtAmount = 4000000 * (10**18);\n    \n    mapping(address => bool) public _isBlacklisted;\n\n    uint256 public USDTRewardsFee = 10;\n    uint256 public liquidityFee = 2;\n    uint256 public marketingFee = 5;\n    uint256 public totalFees = USDTRewardsFee.add(liquidityFee).add(marketingFee);\n\n    address public _marketingWalletAddress = 0x6BD2e6cEE9292b98ABdB54120b830767e6DB0Bf6;\n\n\n    // use by default 300,000 gas to process auto-claiming dividends\n    uint256 public gasForProcessing = 300000;\n\n     // exlcude from fees and max transaction amount\n    mapping (address => bool) private _isExcludedFromFees;\n\n\n    // store addresses that a automatic market maker pairs. Any transfer *to* these addresses\n    // could be subject to a maximum transfer amount\n    mapping (address => bool) public automatedMarketMakerPairs;\n\n    event UpdateDividendTracker(address indexed newAddress, address indexed oldAddress);\n\n    event UpdateUniswapV2Router(address indexed newAddress, address indexed oldAddress);\n\n    event ExcludeFromFees(address indexed account, bool isExcluded);\n    event ExcludeMultipleAccountsFromFees(address[] accounts, bool isExcluded);\n\n    event SetAutomatedMarketMakerPair(address indexed pair, bool indexed value);\n\n    event LiquidityWalletUpdated(address indexed newLiquidityWallet, address indexed oldLiquidityWallet);\n\n    event GasForProcessingUpdated(uint256 indexed newValue, uint256 indexed oldValue);\n\n    event SwapAndLiquify(\n        uint256 tokensSwapped,\n        uint256 ethReceived,\n        uint256 tokensIntoLiqudity\n    );\n\n    event SendDividends(\n    \tuint256 tokensSwapped,\n    \tuint256 amount\n    );\n\n    event ProcessedDividendTracker(\n    \tuint256 iterations,\n    \tuint256 claims,\n        uint256 lastProcessedIndex,\n    \tbool indexed automatic,\n    \tuint256 gas,\n    \taddress indexed processor\n    );\n\n    constructor()  ERC20(\"BNBank\", \"BNBANK\") {\n\n    \tdividendTracker = new BNBankDividendTracker();\n\n    \tIUniswapV2Router02 _uniswapV2Router = IUniswapV2Router02(0xD99D1c33F9fC3444f8101754aBC46c52416550D1);\n         // Create a uniswap pair for this new token\n        address _uniswapV2Pair = IUniswapV2Factory(_uniswapV2Router.factory())\n            .createPair(address(this), _uniswapV2Router.WETH());\n\n        uniswapV2Router = _uniswapV2Router;\n        uniswapV2Pair = _uniswapV2Pair;\n\n        _setAutomatedMarketMakerPair(_uniswapV2Pair, true);\n\n        // exclude from receiving dividends\n        dividendTracker.excludeFromDividends(address(dividendTracker));\n        dividendTracker.excludeFromDividends(address(this));\n        dividendTracker.excludeFromDividends(owner());\n        dividendTracker.excludeFromDividends(deadWallet);\n        dividendTracker.excludeFromDividends(address(_uniswapV2Router));\n\n        // exclude from paying fees or having max transaction amount\n        excludeFromFees(owner(), true);\n        excludeFromFees(_marketingWalletAddress, true);\n        excludeFromFees(address(this), true);\n\n        /*\n            _mint is an internal function in ERC20.sol that is only called here,\n            and CANNOT be called ever again\n        */\n        _mint(owner(), 100000000000 * (10**18));\n    }\n\n    receive() external payable {\n\n  \t}\n\n    function updateDividendTracker(address newAddress) public onlyOwner {\n        require(newAddress != address(dividendTracker), \"BnbBank: The dividend tracker already has that address\");\n\n        BNBankDividendTracker newDividendTracker = BNBankDividendTracker(payable(newAddress));\n\n        require(newDividendTracker.owner() == address(this), \"BnbBank: The new dividend tracker must be owned by the BnbBank token contract\");\n\n        newDividendTracker.excludeFromDividends(address(newDividendTracker));\n        newDividendTracker.excludeFromDividends(address(this));\n        newDividendTracker.excludeFromDividends(owner());\n        newDividendTracker.excludeFromDividends(deadWallet);\n        newDividendTracker.excludeFromDividends(address(uniswapV2Router));\n\n        emit UpdateDividendTracker(newAddress, address(dividendTracker));\n\n        dividendTracker = newDividendTracker;\n    }\n\n    function updateUniswapV2Router(address newAddress) public onlyOwner {\n        require(newAddress != address(uniswapV2Router), \"BnbBank: The router already has that address\");\n        emit UpdateUniswapV2Router(newAddress, address(uniswapV2Router));\n        uniswapV2Router = IUniswapV2Router02(newAddress);\n        address _uniswapV2Pair = IUniswapV2Factory(uniswapV2Router.factory())\n            .createPair(address(this), uniswapV2Router.WETH());\n        uniswapV2Pair = _uniswapV2Pair;\n    }\n\n    function excludeFromFees(address account, bool excluded) public onlyOwner {\n        require(_isExcludedFromFees[account] != excluded, \"BnbBank: Account is already the value of 'excluded'\");\n        _isExcludedFromFees[account] = excluded;\n\n        emit ExcludeFromFees(account, excluded);\n    }\n\n    function excludeMultipleAccountsFromFees(address[] calldata accounts, bool excluded) public onlyOwner {\n        for(uint256 i = 0; i < accounts.length; i++) {\n            _isExcludedFromFees[accounts[i]] = excluded;\n        }\n\n        emit ExcludeMultipleAccountsFromFees(accounts, excluded);\n    }\n\n    function setSwapTokensAtAmount(uint256 amount) external onlyOwner{\n        swapTokensAtAmount = amount;\n    }\n\n    function setMarketingWallet(address payable wallet) external onlyOwner{\n        _marketingWalletAddress = wallet;\n    }\n\n    function setUSDTRewardsFee(uint256 value) external onlyOwner{\n        USDTRewardsFee = value;\n        totalFees = USDTRewardsFee.add(liquidityFee).add(marketingFee);\n    }\n\n    function setLiquiditFee(uint256 value) external onlyOwner{\n        liquidityFee = value;\n        totalFees = USDTRewardsFee.add(liquidityFee).add(marketingFee);\n    }\n\n    function setMarketingFee(uint256 value) external onlyOwner{\n        marketingFee = value;\n        totalFees = USDTRewardsFee.add(liquidityFee).add(marketingFee);\n    }\n\n    function setAutomatedMarketMakerPair(address pair, bool value) public onlyOwner {\n        require(pair != uniswapV2Pair, \"BnbBank: The PancakeSwap pair cannot be removed from automatedMarketMakerPairs\");\n\n        _setAutomatedMarketMakerPair(pair, value);\n    }\n    \n    function blacklistAddress(address account, bool value) external onlyOwner{\n        _isBlacklisted[account] = value;\n    }\n\n    function _setAutomatedMarketMakerPair(address pair, bool value) private {\n        require(automatedMarketMakerPairs[pair] != value, \"BnbBank: Automated market maker pair is already set to that value\");\n        automatedMarketMakerPairs[pair] = value;\n\n        if(value) {\n            dividendTracker.excludeFromDividends(pair);\n        }\n\n        emit SetAutomatedMarketMakerPair(pair, value);\n    }\n\n    function updateGasForProcessing(uint256 newValue) public onlyOwner {\n        require(newValue >= 200000 && newValue <= 500000, \"BnbBank: gasForProcessing must be between 200,000 and 500,000\");\n        require(newValue != gasForProcessing, \"BnbBank: Cannot update gasForProcessing to same value\");\n        emit GasForProcessingUpdated(newValue, gasForProcessing);\n        gasForProcessing = newValue;\n    }\n\n    function updateClaimWait(uint256 claimWait) external onlyOwner {\n        dividendTracker.updateClaimWait(claimWait);\n    }\n\n    function swapOnDemand(bool sendToFee, bool liquify, bool sendDividends) external onlyOwner {\n        swapping = true;\n\n        uint256 contractTokenBalance = balanceOf(address(this));\n\n        if (sendToFee) {\n            uint256 marketingTokens = contractTokenBalance.mul(marketingFee).div(totalFees);\n            swapAndSendToFee(marketingTokens);\n        }\n\n        if (liquify) {\n            uint256 swapTokens = contractTokenBalance.mul(liquidityFee).div(totalFees);\n            swapAndLiquify(swapTokens);\n        }\n\n        if (sendDividends) {\n            uint256 sellTokens = balanceOf(address(this));\n            swapAndSendDividends(sellTokens);\n        }\n\n        swapping = false;\n    }\n\n    function getClaimWait() external view returns(uint256) {\n        return dividendTracker.claimWait();\n    }\n\n    function getTotalDividendsDistributed() external view returns (uint256) {\n        return dividendTracker.totalDividendsDistributed();\n    }\n\n    function isExcludedFromFees(address account) public view returns(bool) {\n        return _isExcludedFromFees[account];\n    }\n\n    function withdrawableDividendOf(address account) public view returns(uint256) {\n    \treturn dividendTracker.withdrawableDividendOf(account);\n  \t}\n\n\tfunction dividendTokenBalanceOf(address account) public view returns (uint256) {\n\t\treturn dividendTracker.balanceOf(account);\n\t}\n\n\tfunction excludeFromDividends(address account) external onlyOwner{\n\t    dividendTracker.excludeFromDividends(account);\n\t}\n\n    function getAccountDividendsInfo(address account)\n        external view returns (\n            address,\n            int256,\n            int256,\n            uint256,\n            uint256,\n            uint256,\n            uint256,\n            uint256) {\n        return dividendTracker.getAccount(account);\n    }\n\n\tfunction getAccountDividendsInfoAtIndex(uint256 index)\n        external view returns (\n            address,\n            int256,\n            int256,\n            uint256,\n            uint256,\n            uint256,\n            uint256,\n            uint256) {\n    \treturn dividendTracker.getAccountAtIndex(index);\n    }\n\n\tfunction processDividendTracker(uint256 gas) external {\n\t\t(uint256 iterations, uint256 claims, uint256 lastProcessedIndex) = dividendTracker.process(gas);\n\t\temit ProcessedDividendTracker(iterations, claims, lastProcessedIndex, false, gas, tx.origin);\n    }\n\n    function claim() external {\n\t\tdividendTracker.processAccount(payable(msg.sender), false);\n    }\n\n    function claimAddress(address claimee) external onlyOwner {\n\t\tdividendTracker.processAccount(payable(claimee), false);\n    }\n\n    function getLastProcessedIndex() external view returns(uint256) {\n    \treturn dividendTracker.getLastProcessedIndex();\n    }\n\n    function setLastProcessedIndex(uint256 index) external onlyOwner {\n    \tdividendTracker.setLastProcessedIndex(index);\n    }\n\n    function getNumberOfDividendTokenHolders() external view returns(uint256) {\n        return dividendTracker.getNumberOfTokenHolders();\n    }\n\n    function _transfer(\n        address from,\n        address to,\n        uint256 amount\n    ) internal override {\n        require(from != address(0), \"ERC20: transfer from the zero address\");\n        require(to != address(0), \"ERC20: transfer to the zero address\");\n        require(!_isBlacklisted[from] && !_isBlacklisted[to], 'Blacklisted address');\n\n        if(amount == 0) {\n            super._transfer(from, to, 0);\n            return;\n        }\n\n\t\tuint256 contractTokenBalance = balanceOf(address(this));\n\n        bool canSwap = contractTokenBalance >= swapTokensAtAmount;\n\n        if( canSwap &&\n            !swapping &&\n            !automatedMarketMakerPairs[from] &&\n            from != owner() &&\n            to != owner()\n        ) {\n            swapping = true;\n\n            uint256 marketingTokens = contractTokenBalance.mul(marketingFee).div(totalFees);\n            swapAndSendToFee(marketingTokens);\n\n            uint256 swapTokens = contractTokenBalance.mul(liquidityFee).div(totalFees);\n            swapAndLiquify(swapTokens);\n\n            uint256 sellTokens = balanceOf(address(this));\n            swapAndSendDividends(sellTokens);\n\n            swapping = false;\n        }\n\n        bool takeFee = !swapping;\n\n        // if any account belongs to _isExcludedFromFee account then remove the fee\n        if(_isExcludedFromFees[from] || _isExcludedFromFees[to]) {\n            takeFee = false;\n        }\n\n        if(takeFee) {\n        \tuint256 fees = amount.mul(totalFees).div(100);\n        \tif(automatedMarketMakerPairs[to]){\n        \t    fees += amount.mul(1).div(100);\n        \t}\n        \tamount = amount.sub(fees);\n\n            super._transfer(from, address(this), fees);\n        }\n\n        super._transfer(from, to, amount);\n\n        try dividendTracker.setBalance(payable(from), balanceOf(from)) {} catch {}\n        try dividendTracker.setBalance(payable(to), balanceOf(to)) {} catch {}\n\n        if(!swapping) {\n\t    \tuint256 gas = gasForProcessing;\n\n\t    \ttry dividendTracker.process(gas) returns (uint256 iterations, uint256 claims, uint256 lastProcessedIndex) {\n\t    \t\temit ProcessedDividendTracker(iterations, claims, lastProcessedIndex, true, gas, tx.origin);\n\t    \t}\n\t    \tcatch {\n\n\t    \t}\n        }\n    }\n\n    function swapAndSendToFee(uint256 tokens) private  {\n        uint256 initialUSDTBalance = IERC20(USDT).balanceOf(address(this));\n\n        swapTokensForUsdt(tokens);\n        uint256 newBalance = (IERC20(USDT).balanceOf(address(this))).sub(initialUSDTBalance);\n        IERC20(USDT).transfer(_marketingWalletAddress, newBalance);\n    }\n\n    function swapAndLiquify(uint256 tokens) private {\n       // split the contract balance into halves\n        uint256 half = tokens.div(2);\n        uint256 otherHalf = tokens.sub(half);\n\n        // capture the contract's current ETH balance.\n        // this is so that we can capture exactly the amount of ETH that the\n        // swap creates, and not make the liquidity event include any ETH that\n        // has been manually sent to the contract\n        uint256 initialBalance = address(this).balance;\n\n        // swap tokens for ETH\n        swapTokensForEth(half); // <- this breaks the ETH -> HATE swap when swap+liquify is triggered\n\n        // how much ETH did we just swap into?\n        uint256 newBalance = address(this).balance.sub(initialBalance);\n\n        // add liquidity to uniswap\n        addLiquidity(otherHalf, newBalance);\n\n        emit SwapAndLiquify(half, newBalance, otherHalf);\n    }\n\n    function swapTokensForEth(uint256 tokenAmount) private {\n        // generate the uniswap pair path of token -> weth\n        address[] memory path = new address[](2);\n        path[0] = address(this);\n        path[1] = uniswapV2Router.WETH();\n\n        _approve(address(this), address(uniswapV2Router), tokenAmount);\n\n        // make the swap\n        uniswapV2Router.swapExactTokensForETHSupportingFeeOnTransferTokens(\n            tokenAmount,\n            0, // accept any amount of ETH\n            path,\n            address(this),\n            block.timestamp\n        );\n    }\n\n    function swapTokensForUsdt(uint256 tokenAmount) private {\n\n        address[] memory path = new address[](3);\n        path[0] = address(this);\n        path[1] = uniswapV2Router.WETH();\n        path[2] = USDT;\n\n        _approve(address(this), address(uniswapV2Router), tokenAmount);\n\n        // make the swap\n        uniswapV2Router.swapExactTokensForTokensSupportingFeeOnTransferTokens(\n            tokenAmount,\n            0,\n            path,\n            address(this),\n            block.timestamp\n        );\n    }\n\n    function addLiquidity(uint256 tokenAmount, uint256 ethAmount) private {\n\n        // approve token transfer to cover all possible scenarios\n        _approve(address(this), address(uniswapV2Router), tokenAmount);\n\n        // add the liquidity\n        uniswapV2Router.addLiquidityETH{value: ethAmount}(\n            address(this),\n            tokenAmount,\n            0, // slippage is unavoidable\n            0, // slippage is unavoidable\n            owner(),\n            block.timestamp\n        );\n    }\n\n    function swapAndSendDividends(uint256 tokens) private{\n        swapTokensForUsdt(tokens);\n        uint256 dividends = IERC20(USDT).balanceOf(address(this));\n        bool success = IERC20(USDT).transfer(address(dividendTracker), dividends);\n\n        if (success) {\n            dividendTracker.distributeUSDTDividends(dividends);\n            emit SendDividends(tokens, dividends);\n        }\n    }\n}\n\ncontract BNBankDividendTracker is Ownable, DividendPayingToken {\n    using SafeMath for uint256;\n    using SafeMathInt for int256;\n    using IterableMapping for IterableMapping.Map;\n\n    IterableMapping.Map private tokenHoldersMap;\n    uint256 public lastProcessedIndex;\n\n    mapping (address => bool) public excludedFromDividends;\n\n    mapping (address => uint256) public lastClaimTimes;\n\n    uint256 public claimWait;\n    uint256 public immutable minimumTokenBalanceForDividends;\n\n    event ExcludeFromDividends(address indexed account);\n    event ClaimWaitUpdated(uint256 indexed newValue, uint256 indexed oldValue);\n\n    event Claim(address indexed account, uint256 amount, bool indexed automatic);\n\n    constructor()  DividendPayingToken(\"BNBank_Dividen_Tracker\", \"BNBank_Dividend_Tracker\") {\n    \tclaimWait = 3600;\n        minimumTokenBalanceForDividends = 200000 * (10**18); //must hold 200000+ tokens\n    }\n\n    function _transfer(address, address, uint256) internal pure  override  {\n        require(false, \"BNBank_Dividen_Tracker: No transfers allowed\");\n    }\n\n    function withdrawDividend() public pure override {\n        require(false, \"BNBank_Dividen_Tracker: withdrawDividend disabled. Use the 'claim' function on the main BnbBank contract.\");\n    }\n\n    function excludeFromDividends(address account) external onlyOwner {\n    \trequire(!excludedFromDividends[account]);\n    \texcludedFromDividends[account] = true;\n\n    \t_setBalance(account, 0);\n    \ttokenHoldersMap.remove(account);\n\n    \temit ExcludeFromDividends(account);\n    }\n\n    function updateClaimWait(uint256 newClaimWait) external onlyOwner {\n        require(newClaimWait >= 3600 && newClaimWait <= 86400, \"BnbBank_Dividend_Tracker: claimWait must be updated to between 1 and 24 hours\");\n        require(newClaimWait != claimWait, \"BNBank_Dividen_Tracker: Cannot update claimWait to same value\");\n        emit ClaimWaitUpdated(newClaimWait, claimWait);\n        claimWait = newClaimWait;\n    }\n\n    function setLastProcessedIndex(uint256 index) external onlyOwner {\n    \tlastProcessedIndex = index;\n    }\n\n    function getLastProcessedIndex() external view returns(uint256) {\n    \treturn lastProcessedIndex;\n    }\n\n    function getNumberOfTokenHolders() external view returns(uint256) {\n        return tokenHoldersMap.keys.length;\n    }\n\n\n\n    function getAccount(address _account)\n        public view returns (\n            address account,\n            int256 index,\n            int256 iterationsUntilProcessed,\n            uint256 withdrawableDividends,\n            uint256 totalDividends,\n            uint256 lastClaimTime,\n            uint256 nextClaimTime,\n            uint256 secondsUntilAutoClaimAvailable) {\n        account = _account;\n\n        index = tokenHoldersMap.getIndexOfKey(account);\n\n        iterationsUntilProcessed = -1;\n\n        if(index >= 0) {\n            if(uint256(index) > lastProcessedIndex) {\n                iterationsUntilProcessed = index.sub(int256(lastProcessedIndex));\n            }\n            else {\n                uint256 processesUntilEndOfArray = tokenHoldersMap.keys.length > lastProcessedIndex ?\n                                                        tokenHoldersMap.keys.length.sub(lastProcessedIndex) :\n                                                        0;\n\n\n                iterationsUntilProcessed = index.add(int256(processesUntilEndOfArray));\n            }\n        }\n\n\n        withdrawableDividends = withdrawableDividendOf(account);\n        totalDividends = accumulativeDividendOf(account);\n\n        lastClaimTime = lastClaimTimes[account];\n\n        nextClaimTime = lastClaimTime > 0 ?\n                                    lastClaimTime.add(claimWait) :\n                                    0;\n\n        secondsUntilAutoClaimAvailable = nextClaimTime > block.timestamp ?\n                                                    nextClaimTime.sub(block.timestamp) :\n                                                    0;\n    }\n\n    function getAccountAtIndex(uint256 index)\n        public view returns (\n            address,\n            int256,\n            int256,\n            uint256,\n            uint256,\n            uint256,\n            uint256,\n            uint256) {\n    \tif(index >= tokenHoldersMap.size()) {\n            return (0x0000000000000000000000000000000000000000, -1, -1, 0, 0, 0, 0, 0);\n        }\n\n        address account = tokenHoldersMap.getKeyAtIndex(index);\n\n        return getAccount(account);\n    }\n\n    function canAutoClaim(uint256 lastClaimTime) private view returns (bool) {\n    \tif(lastClaimTime > block.timestamp)  {\n    \t\treturn false;\n    \t}\n\n    \treturn block.timestamp.sub(lastClaimTime) >= claimWait;\n    }\n\n    function setBalance(address payable account, uint256 newBalance) external onlyOwner {\n    \tif(excludedFromDividends[account]) {\n    \t\treturn;\n    \t}\n\n    \tif(newBalance >= minimumTokenBalanceForDividends) {\n            _setBalance(account, newBalance);\n    \t\ttokenHoldersMap.set(account, newBalance);\n    \t}\n    \telse {\n            _setBalance(account, 0);\n    \t\ttokenHoldersMap.remove(account);\n    \t}\n\n    \tprocessAccount(account, true);\n    }\n\n    function process(uint256 gas) public returns (uint256, uint256, uint256) {\n    \tuint256 numberOfTokenHolders = tokenHoldersMap.keys.length;\n\n    \tif(numberOfTokenHolders == 0) {\n    \t\treturn (0, 0, lastProcessedIndex);\n    \t}\n\n    \tuint256 _lastProcessedIndex = lastProcessedIndex;\n\n    \tuint256 gasUsed = 0;\n\n    \tuint256 gasLeft = gasleft();\n\n    \tuint256 iterations = 0;\n    \tuint256 claims = 0;\n\n    \twhile(gasUsed < gas && iterations < numberOfTokenHolders) {\n    \t\t_lastProcessedIndex++;\n\n    \t\tif(_lastProcessedIndex >= tokenHoldersMap.keys.length) {\n    \t\t\t_lastProcessedIndex = 0;\n    \t\t}\n\n    \t\taddress account = tokenHoldersMap.keys[_lastProcessedIndex];\n\n    \t\tif(canAutoClaim(lastClaimTimes[account])) {\n    \t\t\tif(processAccount(payable(account), true)) {\n    \t\t\t\tclaims++;\n    \t\t\t}\n    \t\t}\n\n    \t\titerations++;\n\n    \t\tuint256 newGasLeft = gasleft();\n\n    \t\tif(gasLeft > newGasLeft) {\n    \t\t\tgasUsed = gasUsed.add(gasLeft.sub(newGasLeft));\n    \t\t}\n\n    \t\tgasLeft = newGasLeft;\n    \t}\n\n    \tlastProcessedIndex = _lastProcessedIndex;\n\n    \treturn (iterations, claims, lastProcessedIndex);\n    }\n\n    function processAccount(address payable account, bool automatic) public onlyOwner returns (bool) {\n        uint256 amount = _withdrawDividendOfUser(account);\n\n    \tif(amount > 0) {\n    \t\tlastClaimTimes[account] = block.timestamp;\n            emit Claim(account, amount, automatic);\n    \t\treturn true;\n    \t}\n\n    \treturn false;\n    }\n}\n",
  "sourcePath": "/Users/nlwsoft/Desktop/BankUSD/contracts/PrimBank.sol",
  "compiler": {
    "name": "solc",
    "version": "0.8.11+commit.d7f03943.Emscripten.clang"
  },
  "schemaVersion": "3.4.3",
  "updatedAt": "2022-01-11T00:11:24.431Z",
  "devdoc": {
    "kind": "dev",
    "methods": {
      "accumulativeDividendOf(address)": {
        "details": "accumulativeDividendOf(_owner) = withdrawableDividendOf(_owner) + withdrawnDividendOf(_owner) = (magnifiedDividendPerShare * balanceOf(_owner) + magnifiedDividendCorrections[_owner]) / magnitude",
        "params": {
          "_owner": "The address of a token holder."
        },
        "returns": {
          "_0": "The amount of dividend in wei that `_owner` has earned in total."
        }
      },
      "allowance(address,address)": {
        "details": "See {IERC20-allowance}."
      },
      "approve(address,uint256)": {
        "details": "See {IERC20-approve}. Requirements: - `spender` cannot be the zero address."
      },
      "balanceOf(address)": {
        "details": "See {IERC20-balanceOf}."
      },
      "decimals()": {
        "details": "Returns the number of decimals used to get its user representation. For example, if `decimals` equals `2`, a balance of `505` tokens should be displayed to a user as `5,05` (`505 / 10 ** 2`). Tokens usually opt for a value of 18, imitating the relationship between Ether and Wei. This is the value {ERC20} uses, unless this function is overridden; NOTE: This information is only used for _display_ purposes: it in no way affects any of the arithmetic of the contract, including {IERC20-balanceOf} and {IERC20-transfer}."
      },
      "decreaseAllowance(address,uint256)": {
        "details": "Atomically decreases the allowance granted to `spender` by the caller. This is an alternative to {approve} that can be used as a mitigation for problems described in {IERC20-approve}. Emits an {Approval} event indicating the updated allowance. Requirements: - `spender` cannot be the zero address. - `spender` must have allowance for the caller of at least `subtractedValue`."
      },
      "dividendOf(address)": {
        "params": {
          "_owner": "The address of a token holder."
        },
        "returns": {
          "_0": "The amount of dividend in wei that `_owner` can withdraw."
        }
      },
      "increaseAllowance(address,uint256)": {
        "details": "Atomically increases the allowance granted to `spender` by the caller. This is an alternative to {approve} that can be used as a mitigation for problems described in {IERC20-approve}. Emits an {Approval} event indicating the updated allowance. Requirements: - `spender` cannot be the zero address."
      },
      "name()": {
        "details": "Returns the name of the token."
      },
      "owner()": {
        "details": "Returns the address of the current owner."
      },
      "renounceOwnership()": {
        "details": "Leaves the contract without owner. It will not be possible to call `onlyOwner` functions anymore. Can only be called by the current owner. NOTE: Renouncing ownership will leave the contract without an owner, thereby removing any functionality that is only available to the owner."
      },
      "symbol()": {
        "details": "Returns the symbol of the token, usually a shorter version of the name."
      },
      "totalSupply()": {
        "details": "See {IERC20-totalSupply}."
      },
      "transfer(address,uint256)": {
        "details": "See {IERC20-transfer}. Requirements: - `recipient` cannot be the zero address. - the caller must have a balance of at least `amount`."
      },
      "transferFrom(address,address,uint256)": {
        "details": "See {IERC20-transferFrom}. Emits an {Approval} event indicating the updated allowance. This is not required by the EIP. See the note at the beginning of {ERC20}. Requirements: - `sender` and `recipient` cannot be the zero address. - `sender` must have a balance of at least `amount`. - the caller must have allowance for ``sender``'s tokens of at least `amount`."
      },
      "transferOwnership(address)": {
        "details": "Transfers ownership of the contract to a new account (`newOwner`). Can only be called by the current owner."
      },
      "withdrawDividend()": {
        "details": "It emits a `DividendWithdrawn` event if the amount of withdrawn ether is greater than 0."
      },
      "withdrawableDividendOf(address)": {
        "params": {
          "_owner": "The address of a token holder."
        },
        "returns": {
          "_0": "The amount of dividend in wei that `_owner` can withdraw."
        }
      },
      "withdrawnDividendOf(address)": {
        "params": {
          "_owner": "The address of a token holder."
        },
        "returns": {
          "_0": "The amount of dividend in wei that `_owner` has withdrawn."
        }
      }
    },
    "version": 1
  },
  "userdoc": {
    "kind": "user",
    "methods": {
      "accumulativeDividendOf(address)": {
        "notice": "View the amount of dividend in wei that an address has earned in total."
      },
      "dividendOf(address)": {
        "notice": "View the amount of dividend in wei that an address can withdraw."
      },
      "withdrawDividend()": {
        "notice": "Withdraws the ether distributed to the sender."
      },
      "withdrawableDividendOf(address)": {
        "notice": "View the amount of dividend in wei that an address can withdraw."
      },
      "withdrawnDividendOf(address)": {
        "notice": "View the amount of dividend in wei that an address has withdrawn."
      }
    },
    "version": 1
  }
}