{
  "contractName": "DividendPayingToken",
  "abi": [
    {
      "inputs": [
        {
          "internalType": "string",
          "name": "_name",
          "type": "string"
        },
        {
          "internalType": "string",
          "name": "_symbol",
          "type": "string"
        }
      ],
      "stateMutability": "nonpayable",
      "type": "constructor"
    },
    {
      "anonymous": false,
      "inputs": [
        {
          "indexed": true,
          "internalType": "address",
          "name": "owner",
          "type": "address"
        },
        {
          "indexed": true,
          "internalType": "address",
          "name": "spender",
          "type": "address"
        },
        {
          "indexed": false,
          "internalType": "uint256",
          "name": "value",
          "type": "uint256"
        }
      ],
      "name": "Approval",
      "type": "event"
    },
    {
      "anonymous": false,
      "inputs": [
        {
          "indexed": true,
          "internalType": "address",
          "name": "to",
          "type": "address"
        },
        {
          "indexed": false,
          "internalType": "uint256",
          "name": "weiAmount",
          "type": "uint256"
        }
      ],
      "name": "DividendWithdrawn",
      "type": "event"
    },
    {
      "anonymous": false,
      "inputs": [
        {
          "indexed": true,
          "internalType": "address",
          "name": "from",
          "type": "address"
        },
        {
          "indexed": false,
          "internalType": "uint256",
          "name": "weiAmount",
          "type": "uint256"
        }
      ],
      "name": "DividendsDistributed",
      "type": "event"
    },
    {
      "anonymous": false,
      "inputs": [
        {
          "indexed": true,
          "internalType": "address",
          "name": "previousOwner",
          "type": "address"
        },
        {
          "indexed": true,
          "internalType": "address",
          "name": "newOwner",
          "type": "address"
        }
      ],
      "name": "OwnershipTransferred",
      "type": "event"
    },
    {
      "anonymous": false,
      "inputs": [
        {
          "indexed": true,
          "internalType": "address",
          "name": "from",
          "type": "address"
        },
        {
          "indexed": true,
          "internalType": "address",
          "name": "to",
          "type": "address"
        },
        {
          "indexed": false,
          "internalType": "uint256",
          "name": "value",
          "type": "uint256"
        }
      ],
      "name": "Transfer",
      "type": "event"
    },
    {
      "inputs": [],
      "name": "USDT",
      "outputs": [
        {
          "internalType": "address",
          "name": "",
          "type": "address"
        }
      ],
      "stateMutability": "view",
      "type": "function"
    },
    {
      "inputs": [
        {
          "internalType": "address",
          "name": "owner",
          "type": "address"
        },
        {
          "internalType": "address",
          "name": "spender",
          "type": "address"
        }
      ],
      "name": "allowance",
      "outputs": [
        {
          "internalType": "uint256",
          "name": "",
          "type": "uint256"
        }
      ],
      "stateMutability": "view",
      "type": "function"
    },
    {
      "inputs": [
        {
          "internalType": "address",
          "name": "spender",
          "type": "address"
        },
        {
          "internalType": "uint256",
          "name": "amount",
          "type": "uint256"
        }
      ],
      "name": "approve",
      "outputs": [
        {
          "internalType": "bool",
          "name": "",
          "type": "bool"
        }
      ],
      "stateMutability": "nonpayable",
      "type": "function"
    },
    {
      "inputs": [
        {
          "internalType": "address",
          "name": "account",
          "type": "address"
        }
      ],
      "name": "balanceOf",
      "outputs": [
        {
          "internalType": "uint256",
          "name": "",
          "type": "uint256"
        }
      ],
      "stateMutability": "view",
      "type": "function"
    },
    {
      "inputs": [],
      "name": "decimals",
      "outputs": [
        {
          "internalType": "uint8",
          "name": "",
          "type": "uint8"
        }
      ],
      "stateMutability": "view",
      "type": "function"
    },
    {
      "inputs": [
        {
          "internalType": "address",
          "name": "spender",
          "type": "address"
        },
        {
          "internalType": "uint256",
          "name": "subtractedValue",
          "type": "uint256"
        }
      ],
      "name": "decreaseAllowance",
      "outputs": [
        {
          "internalType": "bool",
          "name": "",
          "type": "bool"
        }
      ],
      "stateMutability": "nonpayable",
      "type": "function"
    },
    {
      "inputs": [
        {
          "internalType": "address",
          "name": "spender",
          "type": "address"
        },
        {
          "internalType": "uint256",
          "name": "addedValue",
          "type": "uint256"
        }
      ],
      "name": "increaseAllowance",
      "outputs": [
        {
          "internalType": "bool",
          "name": "",
          "type": "bool"
        }
      ],
      "stateMutability": "nonpayable",
      "type": "function"
    },
    {
      "inputs": [],
      "name": "name",
      "outputs": [
        {
          "internalType": "string",
          "name": "",
          "type": "string"
        }
      ],
      "stateMutability": "view",
      "type": "function"
    },
    {
      "inputs": [],
      "name": "owner",
      "outputs": [
        {
          "internalType": "address",
          "name": "",
          "type": "address"
        }
      ],
      "stateMutability": "view",
      "type": "function"
    },
    {
      "inputs": [],
      "name": "renounceOwnership",
      "outputs": [],
      "stateMutability": "nonpayable",
      "type": "function"
    },
    {
      "inputs": [],
      "name": "symbol",
      "outputs": [
        {
          "internalType": "string",
          "name": "",
          "type": "string"
        }
      ],
      "stateMutability": "view",
      "type": "function"
    },
    {
      "inputs": [],
      "name": "totalDividendsDistributed",
      "outputs": [
        {
          "internalType": "uint256",
          "name": "",
          "type": "uint256"
        }
      ],
      "stateMutability": "view",
      "type": "function"
    },
    {
      "inputs": [],
      "name": "totalSupply",
      "outputs": [
        {
          "internalType": "uint256",
          "name": "",
          "type": "uint256"
        }
      ],
      "stateMutability": "view",
      "type": "function"
    },
    {
      "inputs": [
        {
          "internalType": "address",
          "name": "recipient",
          "type": "address"
        },
        {
          "internalType": "uint256",
          "name": "amount",
          "type": "uint256"
        }
      ],
      "name": "transfer",
      "outputs": [
        {
          "internalType": "bool",
          "name": "",
          "type": "bool"
        }
      ],
      "stateMutability": "nonpayable",
      "type": "function"
    },
    {
      "inputs": [
        {
          "internalType": "address",
          "name": "sender",
          "type": "address"
        },
        {
          "internalType": "address",
          "name": "recipient",
          "type": "address"
        },
        {
          "internalType": "uint256",
          "name": "amount",
          "type": "uint256"
        }
      ],
      "name": "transferFrom",
      "outputs": [
        {
          "internalType": "bool",
          "name": "",
          "type": "bool"
        }
      ],
      "stateMutability": "nonpayable",
      "type": "function"
    },
    {
      "inputs": [
        {
          "internalType": "address",
          "name": "newOwner",
          "type": "address"
        }
      ],
      "name": "transferOwnership",
      "outputs": [],
      "stateMutability": "nonpayable",
      "type": "function"
    },
    {
      "inputs": [
        {
          "internalType": "uint256",
          "name": "amount",
          "type": "uint256"
        }
      ],
      "name": "distributeUSDTDividends",
      "outputs": [],
      "stateMutability": "nonpayable",
      "type": "function"
    },
    {
      "inputs": [],
      "name": "withdrawDividend",
      "outputs": [],
      "stateMutability": "nonpayable",
      "type": "function"
    },
    {
      "inputs": [
        {
          "internalType": "address",
          "name": "_owner",
          "type": "address"
        }
      ],
      "name": "dividendOf",
      "outputs": [
        {
          "internalType": "uint256",
          "name": "",
          "type": "uint256"
        }
      ],
      "stateMutability": "view",
      "type": "function"
    },
    {
      "inputs": [
        {
          "internalType": "address",
          "name": "_owner",
          "type": "address"
        }
      ],
      "name": "withdrawableDividendOf",
      "outputs": [
        {
          "internalType": "uint256",
          "name": "",
          "type": "uint256"
        }
      ],
      "stateMutability": "view",
      "type": "function"
    },
    {
      "inputs": [
        {
          "internalType": "address",
          "name": "_owner",
          "type": "address"
        }
      ],
      "name": "withdrawnDividendOf",
      "outputs": [
        {
          "internalType": "uint256",
          "name": "",
          "type": "uint256"
        }
      ],
      "stateMutability": "view",
      "type": "function"
    },
    {
      "inputs": [
        {
          "internalType": "address",
          "name": "_owner",
          "type": "address"
        }
      ],
      "name": "accumulativeDividendOf",
      "outputs": [
        {
          "internalType": "uint256",
          "name": "",
          "type": "uint256"
        }
      ],
      "stateMutability": "view",
      "type": "function"
    }
  ],
  "bytecode": "0x60a060405273c0976b10c602f182c438d165d3162dd0b1e0891a6080523480156200002957600080fd5b50604051620012a3380380620012a38339810160408190526200004c9162000276565b81518290829062000065906003906020850190620000ea565b5080516200007b906004906020840190620000ea565b505050600062000090620000e660201b60201c565b600580546001600160a01b0319166001600160a01b038316908117909155604051919250906000907f8be0079c531659141344cd1fd0a4f28419497f9722a3daafe3b4186f6b6457e0908290a350505062000336565b3390565b828054620000f890620002e0565b90600052602060002090601f0160209004810192826200011c576000855562000167565b82601f106200013757805160ff191683800117855562000167565b8280016001018555821562000167579182015b82811115620001675782518255916020019190600101906200014a565b506200017592915062000179565b5090565b5b808211156200017557600081556001016200017a565b7f4e487b7100000000000000000000000000000000000000000000000000000000600052604160045260246000fd5b600082601f830112620001d157600080fd5b81516001600160401b0380821115620001ee57620001ee62000190565b604051601f8301601f19908116603f0116810190828211818310171562000219576200021962000190565b816040528381526020925086838588010111156200023657600080fd5b600091505b838210156200025a57858201830151818301840152908201906200023b565b838211156200026c5760008385830101525b9695505050505050565b600080604083850312156200028a57600080fd5b82516001600160401b0380821115620002a257600080fd5b620002b086838701620001bf565b93506020850151915080821115620002c757600080fd5b50620002d685828601620001bf565b9150509250929050565b600181811c90821680620002f557607f821691505b6020821081141562000330577f4e487b7100000000000000000000000000000000000000000000000000000000600052602260045260246000fd5b50919050565b608051610f4a62000359600039600081816102cd0152610b200152610f4a6000f3fe608060405234801561001057600080fd5b50600436106101425760003560e01c80638da5cb5b116100b8578063a9059cbb1161007c578063a9059cbb1461028c578063aafd847a1461029f578063c54e44eb146102c8578063dd62ed3e146102ef578063edd6bf8714610328578063f2fde38b1461033b57600080fd5b80638da5cb5b1461022657806391b89fba1461024b57806395d89b411461025e578063a457c2d714610266578063a8b9d2401461027957600080fd5b8063313ce5671161010a578063313ce567146101c057806339509351146101cf5780636a474002146101e257806370a08231146101ec578063715018a61461021557806385a6b3ae1461021d57600080fd5b806306fdde0314610147578063095ea7b31461016557806318160ddd1461018857806323b872dd1461019a57806327ce0147146101ad575b600080fd5b61014f61034e565b60405161015c9190610c30565b60405180910390f35b610178610173366004610ca1565b6103e0565b604051901515815260200161015c565b6002545b60405190815260200161015c565b6101786101a8366004610ccb565b6103f7565b61018c6101bb366004610d07565b610460565b6040516012815260200161015c565b6101786101dd366004610ca1565b6104bc565b6101ea6104f2565b005b61018c6101fa366004610d07565b6001600160a01b031660009081526020819052604090205490565b6101ea6104fe565b61018c60095481565b6005546001600160a01b03165b6040516001600160a01b03909116815260200161015c565b61018c610259366004610d07565b61057b565b61014f610586565b610178610274366004610ca1565b610595565b61018c610287366004610d07565b6105e4565b61017861029a366004610ca1565b610610565b61018c6102ad366004610d07565b6001600160a01b031660009081526008602052604090205490565b6102337f000000000000000000000000000000000000000000000000000000000000000081565b61018c6102fd366004610d22565b6001600160a01b03918216600090815260016020908152604080832093909416825291909152205490565b6101ea610336366004610d55565b61061d565b6101ea610349366004610d07565b6106da565b60606003805461035d90610d6e565b80601f016020809104026020016040519081016040528092919081815260200182805461038990610d6e565b80156103d65780601f106103ab576101008083540402835291602001916103d6565b820191906000526020600020905b8154815290600101906020018083116103b957829003601f168201915b5050505050905090565b60006103ed3384846107c5565b5060015b92915050565b6000610404848484600080fd5b610456843361045185604051806060016040528060288152602001610ec8602891396001600160a01b038a16600090815260016020908152604080832033845290915290205491906108e9565b6107c5565b5060019392505050565b6001600160a01b03811660009081526007602090815260408083205491839052822054600654600160801b926104b2926104ad926104a7916104a29190610923565b6109a9565b906109b9565b6109f7565b6103f19190610dbf565b3360008181526001602090815260408083206001600160a01b038716845290915281205490916103ed9185906104519086610a0a565b6104fb33610a69565b50565b6005546001600160a01b031633146105315760405162461bcd60e51b815260040161052890610de1565b60405180910390fd5b6005546040516000916001600160a01b0316907f8be0079c531659141344cd1fd0a4f28419497f9722a3daafe3b4186f6b6457e0908390a3600580546001600160a01b0319169055565b60006103f1826105e4565b60606004805461035d90610d6e565b60006103ed338461045185604051806060016040528060258152602001610ef0602591393360009081526001602090815260408083206001600160a01b038d16845290915290205491906108e9565b6001600160a01b0381166000908152600860205260408120546103f19061060a84610460565b90610bee565b60006103ed338484600080fd5b6005546001600160a01b031633146106475760405162461bcd60e51b815260040161052890610de1565b600061065260025490565b1161065c57600080fd5b80156104fb5761068f61066e60025490565b61067c83600160801b610923565b6106869190610dbf565b60065490610a0a565b60065560405181815233907fa493a9229478c3fcd73f66d2cdeb7f94fd0f341da924d1054236d784541165119060200160405180910390a26009546106d49082610a0a565b60095550565b6005546001600160a01b031633146107045760405162461bcd60e51b815260040161052890610de1565b6001600160a01b0381166107695760405162461bcd60e51b815260206004820152602660248201527f4f776e61626c653a206e6577206f776e657220697320746865207a65726f206160448201526564647265737360d01b6064820152608401610528565b6005546040516001600160a01b038084169216907f8be0079c531659141344cd1fd0a4f28419497f9722a3daafe3b4186f6b6457e090600090a3600580546001600160a01b0319166001600160a01b0392909216919091179055565b6001600160a01b0383166108275760405162461bcd60e51b8152602060048201526024808201527f45524332303a20617070726f76652066726f6d20746865207a65726f206164646044820152637265737360e01b6064820152608401610528565b6001600160a01b0382166108885760405162461bcd60e51b815260206004820152602260248201527f45524332303a20617070726f766520746f20746865207a65726f206164647265604482015261737360f01b6064820152608401610528565b6001600160a01b0383811660008181526001602090815260408083209487168084529482529182902085905590518481527f8c5be1e5ebec7d5bd14f71427d1e84f3dd0314c0f7b2291e5b200ac8c7c3b925910160405180910390a3505050565b6000818484111561090d5760405162461bcd60e51b81526004016105289190610c30565b50600061091a8486610e16565b95945050505050565b600082610932575060006103f1565b600061093e8385610e2d565b90508261094b8583610dbf565b146109a25760405162461bcd60e51b815260206004820152602160248201527f536166654d6174683a206d756c7469706c69636174696f6e206f766572666c6f6044820152607760f81b6064820152608401610528565b9392505050565b600081818112156103f157600080fd5b6000806109c68385610e4c565b9050600083121580156109d95750838112155b806109ee57506000831280156109ee57508381125b6109a257600080fd5b600080821215610a0657600080fd5b5090565b600080610a178385610e8d565b9050838110156109a25760405162461bcd60e51b815260206004820152601b60248201527f536166654d6174683a206164646974696f6e206f766572666c6f7700000000006044820152606401610528565b600080610a75836105e4565b90508015610be5576001600160a01b038316600090815260086020526040902054610aa09082610a0a565b6001600160a01b038416600081815260086020526040908190209290925590517fee503bee2bb6a87e57bc57db795f98137327401a0e7b7ce42e37926cc1a9ca4d90610aef9084815260200190565b60405180910390a260405163a9059cbb60e01b81526001600160a01b038481166004830152602482018390526000917f00000000000000000000000000000000000000000000000000000000000000009091169063a9059cbb906044016020604051808303816000875af1158015610b6b573d6000803e3d6000fd5b505050506040513d601f19601f82011682018060405250810190610b8f9190610ea5565b905080610bde576001600160a01b038416600090815260086020526040902054610bb99083610bee565b6001600160a01b03909416600090815260086020526040812094909455509192915050565b5092915050565b50600092915050565b60006109a283836040518060400160405280601e81526020017f536166654d6174683a207375627472616374696f6e206f766572666c6f7700008152506108e9565b600060208083528351808285015260005b81811015610c5d57858101830151858201604001528201610c41565b81811115610c6f576000604083870101525b50601f01601f1916929092016040019392505050565b80356001600160a01b0381168114610c9c57600080fd5b919050565b60008060408385031215610cb457600080fd5b610cbd83610c85565b946020939093013593505050565b600080600060608486031215610ce057600080fd5b610ce984610c85565b9250610cf760208501610c85565b9150604084013590509250925092565b600060208284031215610d1957600080fd5b6109a282610c85565b60008060408385031215610d3557600080fd5b610d3e83610c85565b9150610d4c60208401610c85565b90509250929050565b600060208284031215610d6757600080fd5b5035919050565b600181811c90821680610d8257607f821691505b60208210811415610da357634e487b7160e01b600052602260045260246000fd5b50919050565b634e487b7160e01b600052601160045260246000fd5b600082610ddc57634e487b7160e01b600052601260045260246000fd5b500490565b6020808252818101527f4f776e61626c653a2063616c6c6572206973206e6f7420746865206f776e6572604082015260600190565b600082821015610e2857610e28610da9565b500390565b6000816000190483118215151615610e4757610e47610da9565b500290565b600080821280156001600160ff1b0384900385131615610e6e57610e6e610da9565b600160ff1b8390038412811615610e8757610e87610da9565b50500190565b60008219821115610ea057610ea0610da9565b500190565b600060208284031215610eb757600080fd5b815180151581146109a257600080fdfe45524332303a207472616e7366657220616d6f756e74206578636565647320616c6c6f77616e636545524332303a2064656372656173656420616c6c6f77616e63652062656c6f77207a65726fa26469706673582212209202d723e543196e1147b3622a7fd917d612a814f8b68679ad7cc9bb30509d1b64736f6c634300080b0033",
  "immutableReferences": {
    "55": [
      {
        "length": 32,
        "start": 717
      },
      {
        "length": 32,
        "start": 2848
      }
    ]
  },
  "source": "// SPDX-License-Identifier: MIT\n\n\npragma solidity ^0.8.11;\n\nimport \"./DividendPayingTokenInterface.sol\";\nimport \"./DividendPayingTokenOptionalInterface.sol\";\nimport \"./SafeMath.sol\";\nimport \"./SafeMathUint.sol\";\nimport \"./SafeMathInt.sol\";\nimport \"./ERC20.sol\";\nimport \"./Ownable.sol\";\n\n/// @title Dividend-Paying Token\n/// @author Roger Wu (https://github.com/roger-wu)\n/// @dev A mintable ERC20 token that allows anyone to pay and distribute ether\n///  to token holders as dividends and allows token holders to withdraw their dividends.\n///  Reference: the source code of PoWH3D: https://etherscan.io/address/0xB3775fB83F7D12A36E0475aBdD1FCA35c091efBe#code\ncontract DividendPayingToken is ERC20, Ownable, DividendPayingTokenInterface, DividendPayingTokenOptionalInterface {\n  using SafeMath for uint256;\n  using SafeMathUint for uint256;\n  using SafeMathInt for int256;\n\n  address public immutable USDT = address(0xc0976B10C602f182C438d165d3162dD0B1e0891A); // USDT\n\n\n  // With `magnitude`, we can properly distribute dividends even if the amount of received ether is small.\n  // For more discussion about choosing the value of `magnitude`,\n  //  see https://github.com/ethereum/EIPs/issues/1726#issuecomment-472352728\n  uint256 constant internal magnitude = 2**128;\n\n  uint256 internal magnifiedDividendPerShare;\n\n  // About dividendCorrection:\n  // If the token balance of a `_user` is never changed, the dividend of `_user` can be computed with:\n  //   `dividendOf(_user) = dividendPerShare * balanceOf(_user)`.\n  // When `balanceOf(_user)` is changed (via minting/burning/transferring tokens),\n  //   `dividendOf(_user)` should not be changed,\n  //   but the computed value of `dividendPerShare * balanceOf(_user)` is changed.\n  // To keep the `dividendOf(_user)` unchanged, we add a correction term:\n  //   `dividendOf(_user) = dividendPerShare * balanceOf(_user) + dividendCorrectionOf(_user)`,\n  //   where `dividendCorrectionOf(_user)` is updated whenever `balanceOf(_user)` is changed:\n  //   `dividendCorrectionOf(_user) = dividendPerShare * (old balanceOf(_user)) - (new balanceOf(_user))`.\n  // So now `dividendOf(_user)` returns the same value before and after `balanceOf(_user)` is changed.\n  mapping(address => int256) internal magnifiedDividendCorrections;\n  mapping(address => uint256) internal withdrawnDividends;\n\n  uint256 public totalDividendsDistributed;\n\n  constructor(string memory _name, string memory _symbol)  ERC20(_name, _symbol) {\n\n  }\n\n\n  function distributeUSDTDividends(uint256 amount) public onlyOwner{\n    require(totalSupply() > 0);\n\n    if (amount > 0) {\n      magnifiedDividendPerShare = magnifiedDividendPerShare.add(\n        (amount).mul(magnitude) / totalSupply()\n      );\n      emit DividendsDistributed(msg.sender, amount);\n\n      totalDividendsDistributed = totalDividendsDistributed.add(amount);\n    }\n  }\n\n  /// @notice Withdraws the ether distributed to the sender.\n  /// @dev It emits a `DividendWithdrawn` event if the amount of withdrawn ether is greater than 0.\n  function withdrawDividend() public virtual override {\n    _withdrawDividendOfUser(payable(msg.sender));\n  }\n\n  /// @notice Withdraws the ether distributed to the sender.\n  /// @dev It emits a `DividendWithdrawn` event if the amount of withdrawn ether is greater than 0.\n function _withdrawDividendOfUser(address payable user) internal returns (uint256) {\n    uint256 _withdrawableDividend = withdrawableDividendOf(user);\n    if (_withdrawableDividend > 0) {\n      withdrawnDividends[user] = withdrawnDividends[user].add(_withdrawableDividend);\n      emit DividendWithdrawn(user, _withdrawableDividend);\n      bool success = IERC20(USDT).transfer(user, _withdrawableDividend);\n\n      if(!success) {\n        withdrawnDividends[user] = withdrawnDividends[user].sub(_withdrawableDividend);\n        return 0;\n      }\n\n      return _withdrawableDividend;\n    }\n\n    return 0;\n  }\n\n\n  /// @notice View the amount of dividend in wei that an address can withdraw.\n  /// @param _owner The address of a token holder.\n  /// @return The amount of dividend in wei that `_owner` can withdraw.\n  function dividendOf(address _owner) public view override returns(uint256) {\n    return withdrawableDividendOf(_owner);\n  }\n\n  /// @notice View the amount of dividend in wei that an address can withdraw.\n  /// @param _owner The address of a token holder.\n  /// @return The amount of dividend in wei that `_owner` can withdraw.\n  function withdrawableDividendOf(address _owner) public view override returns(uint256) {\n    return accumulativeDividendOf(_owner).sub(withdrawnDividends[_owner]);\n  }\n\n  /// @notice View the amount of dividend in wei that an address has withdrawn.\n  /// @param _owner The address of a token holder.\n  /// @return The amount of dividend in wei that `_owner` has withdrawn.\n  function withdrawnDividendOf(address _owner) public view override returns(uint256) {\n    return withdrawnDividends[_owner];\n  }\n\n\n  /// @notice View the amount of dividend in wei that an address has earned in total.\n  /// @dev accumulativeDividendOf(_owner) = withdrawableDividendOf(_owner) + withdrawnDividendOf(_owner)\n  /// = (magnifiedDividendPerShare * balanceOf(_owner) + magnifiedDividendCorrections[_owner]) / magnitude\n  /// @param _owner The address of a token holder.\n  /// @return The amount of dividend in wei that `_owner` has earned in total.\n  function accumulativeDividendOf(address _owner) public view override returns(uint256) {\n    return magnifiedDividendPerShare.mul(balanceOf(_owner)).toInt256Safe()\n      .add(magnifiedDividendCorrections[_owner]).toUint256Safe() / magnitude;\n  }\n\n  /// @dev Internal function that transfer tokens from one address to another.\n  /// Update magnifiedDividendCorrections to keep dividends unchanged.\n  /// @param from The address to transfer from.\n  /// @param to The address to transfer to.\n  /// @param value The amount to be transferred.\n  function _transfer(address from, address to, uint256 value) internal virtual override {\n    require(false);\n\n    int256 _magCorrection = magnifiedDividendPerShare.mul(value).toInt256Safe();\n    magnifiedDividendCorrections[from] = magnifiedDividendCorrections[from].add(_magCorrection);\n    magnifiedDividendCorrections[to] = magnifiedDividendCorrections[to].sub(_magCorrection);\n  }\n\n  /// @dev Internal function that mints tokens to an account.\n  /// Update magnifiedDividendCorrections to keep dividends unchanged.\n  /// @param account The account that will receive the created tokens.\n  /// @param value The amount that will be created.\n  function _mint(address account, uint256 value) internal override {\n    super._mint(account, value);\n\n    magnifiedDividendCorrections[account] = magnifiedDividendCorrections[account]\n      .sub( (magnifiedDividendPerShare.mul(value)).toInt256Safe() );\n  }\n\n  /// @dev Internal function that burns an amount of the token of a given account.\n  /// Update magnifiedDividendCorrections to keep dividends unchanged.\n  /// @param account The account whose tokens will be burnt.\n  /// @param value The amount that will be burnt.\n  function _burn(address account, uint256 value) internal override {\n    super._burn(account, value);\n\n    magnifiedDividendCorrections[account] = magnifiedDividendCorrections[account]\n      .add( (magnifiedDividendPerShare.mul(value)).toInt256Safe() );\n  }\n\n  function _setBalance(address account, uint256 newBalance) internal {\n    uint256 currentBalance = balanceOf(account);\n\n    if(newBalance > currentBalance) {\n      uint256 mintAmount = newBalance.sub(currentBalance);\n      _mint(account, mintAmount);\n    } else if(newBalance < currentBalance) {\n      uint256 burnAmount = currentBalance.sub(newBalance);\n      _burn(account, burnAmount);\n    }\n  }\n}\n",
  "sourcePath": "/Users/nlwsoft/Desktop/PrimBank Contracts/contracts/DividendPayingToken.sol",
  "compiler": {
    "name": "solc",
    "version": "0.8.11+commit.d7f03943.Emscripten.clang"
  },
  "schemaVersion": "3.4.3",
  "updatedAt": "2022-01-11T00:44:55.076Z",
  "devdoc": {
    "author": "Roger Wu (https://github.com/roger-wu)",
    "details": "A mintable ERC20 token that allows anyone to pay and distribute ether  to token holders as dividends and allows token holders to withdraw their dividends.  Reference: the source code of PoWH3D: https://etherscan.io/address/0xB3775fB83F7D12A36E0475aBdD1FCA35c091efBe#code",
    "kind": "dev",
    "methods": {
      "accumulativeDividendOf(address)": {
        "details": "accumulativeDividendOf(_owner) = withdrawableDividendOf(_owner) + withdrawnDividendOf(_owner) = (magnifiedDividendPerShare * balanceOf(_owner) + magnifiedDividendCorrections[_owner]) / magnitude",
        "params": {
          "_owner": "The address of a token holder."
        },
        "returns": {
          "_0": "The amount of dividend in wei that `_owner` has earned in total."
        }
      },
      "allowance(address,address)": {
        "details": "See {IERC20-allowance}."
      },
      "approve(address,uint256)": {
        "details": "See {IERC20-approve}. Requirements: - `spender` cannot be the zero address."
      },
      "balanceOf(address)": {
        "details": "See {IERC20-balanceOf}."
      },
      "decimals()": {
        "details": "Returns the number of decimals used to get its user representation. For example, if `decimals` equals `2`, a balance of `505` tokens should be displayed to a user as `5,05` (`505 / 10 ** 2`). Tokens usually opt for a value of 18, imitating the relationship between Ether and Wei. This is the value {ERC20} uses, unless this function is overridden; NOTE: This information is only used for _display_ purposes: it in no way affects any of the arithmetic of the contract, including {IERC20-balanceOf} and {IERC20-transfer}."
      },
      "decreaseAllowance(address,uint256)": {
        "details": "Atomically decreases the allowance granted to `spender` by the caller. This is an alternative to {approve} that can be used as a mitigation for problems described in {IERC20-approve}. Emits an {Approval} event indicating the updated allowance. Requirements: - `spender` cannot be the zero address. - `spender` must have allowance for the caller of at least `subtractedValue`."
      },
      "dividendOf(address)": {
        "params": {
          "_owner": "The address of a token holder."
        },
        "returns": {
          "_0": "The amount of dividend in wei that `_owner` can withdraw."
        }
      },
      "increaseAllowance(address,uint256)": {
        "details": "Atomically increases the allowance granted to `spender` by the caller. This is an alternative to {approve} that can be used as a mitigation for problems described in {IERC20-approve}. Emits an {Approval} event indicating the updated allowance. Requirements: - `spender` cannot be the zero address."
      },
      "name()": {
        "details": "Returns the name of the token."
      },
      "owner()": {
        "details": "Returns the address of the current owner."
      },
      "renounceOwnership()": {
        "details": "Leaves the contract without owner. It will not be possible to call `onlyOwner` functions anymore. Can only be called by the current owner. NOTE: Renouncing ownership will leave the contract without an owner, thereby removing any functionality that is only available to the owner."
      },
      "symbol()": {
        "details": "Returns the symbol of the token, usually a shorter version of the name."
      },
      "totalSupply()": {
        "details": "See {IERC20-totalSupply}."
      },
      "transfer(address,uint256)": {
        "details": "See {IERC20-transfer}. Requirements: - `recipient` cannot be the zero address. - the caller must have a balance of at least `amount`."
      },
      "transferFrom(address,address,uint256)": {
        "details": "See {IERC20-transferFrom}. Emits an {Approval} event indicating the updated allowance. This is not required by the EIP. See the note at the beginning of {ERC20}. Requirements: - `sender` and `recipient` cannot be the zero address. - `sender` must have a balance of at least `amount`. - the caller must have allowance for ``sender``'s tokens of at least `amount`."
      },
      "transferOwnership(address)": {
        "details": "Transfers ownership of the contract to a new account (`newOwner`). Can only be called by the current owner."
      },
      "withdrawDividend()": {
        "details": "It emits a `DividendWithdrawn` event if the amount of withdrawn ether is greater than 0."
      },
      "withdrawableDividendOf(address)": {
        "params": {
          "_owner": "The address of a token holder."
        },
        "returns": {
          "_0": "The amount of dividend in wei that `_owner` can withdraw."
        }
      },
      "withdrawnDividendOf(address)": {
        "params": {
          "_owner": "The address of a token holder."
        },
        "returns": {
          "_0": "The amount of dividend in wei that `_owner` has withdrawn."
        }
      }
    },
    "title": "Dividend-Paying Token",
    "version": 1
  },
  "userdoc": {
    "kind": "user",
    "methods": {
      "accumulativeDividendOf(address)": {
        "notice": "View the amount of dividend in wei that an address has earned in total."
      },
      "dividendOf(address)": {
        "notice": "View the amount of dividend in wei that an address can withdraw."
      },
      "withdrawDividend()": {
        "notice": "Withdraws the ether distributed to the sender."
      },
      "withdrawableDividendOf(address)": {
        "notice": "View the amount of dividend in wei that an address can withdraw."
      },
      "withdrawnDividendOf(address)": {
        "notice": "View the amount of dividend in wei that an address has withdrawn."
      }
    },
    "version": 1
  }
}