{
  "contractName": "PrimSwap",
  "abi": [
    {
      "inputs": [
        {
          "internalType": "contract PrimBank",
          "name": "_primBankContract",
          "type": "address"
        }
      ],
      "stateMutability": "nonpayable",
      "type": "constructor"
    },
    {
      "anonymous": false,
      "inputs": [
        {
          "indexed": false,
          "internalType": "address",
          "name": "account",
          "type": "address"
        },
        {
          "indexed": false,
          "internalType": "address",
          "name": "primBankContract",
          "type": "address"
        },
        {
          "indexed": false,
          "internalType": "uint256",
          "name": "amount",
          "type": "uint256"
        },
        {
          "indexed": false,
          "internalType": "uint256",
          "name": "rate",
          "type": "uint256"
        }
      ],
      "name": "TokensPurchased",
      "type": "event"
    },
    {
      "anonymous": false,
      "inputs": [
        {
          "indexed": false,
          "internalType": "address",
          "name": "account",
          "type": "address"
        },
        {
          "indexed": false,
          "internalType": "address",
          "name": "primBankContract",
          "type": "address"
        },
        {
          "indexed": false,
          "internalType": "uint256",
          "name": "amount",
          "type": "uint256"
        },
        {
          "indexed": false,
          "internalType": "uint256",
          "name": "rate",
          "type": "uint256"
        }
      ],
      "name": "TokensSold",
      "type": "event"
    },
    {
      "inputs": [],
      "name": "name",
      "outputs": [
        {
          "internalType": "string",
          "name": "",
          "type": "string"
        }
      ],
      "stateMutability": "view",
      "type": "function"
    },
    {
      "inputs": [],
      "name": "primBankContract",
      "outputs": [
        {
          "internalType": "contract PrimBank",
          "name": "",
          "type": "address"
        }
      ],
      "stateMutability": "view",
      "type": "function"
    },
    {
      "inputs": [],
      "name": "rate",
      "outputs": [
        {
          "internalType": "uint256",
          "name": "",
          "type": "uint256"
        }
      ],
      "stateMutability": "view",
      "type": "function"
    },
    {
      "inputs": [],
      "name": "buyTokens",
      "outputs": [],
      "stateMutability": "payable",
      "type": "function"
    },
    {
      "inputs": [
        {
          "internalType": "uint256",
          "name": "_amount",
          "type": "uint256"
        }
      ],
      "name": "sellTokens",
      "outputs": [],
      "stateMutability": "nonpayable",
      "type": "function"
    }
  ],
  "bytecode": "0x60c0604052601160808190527f5072696d537761702045786368616e676500000000000000000000000000000060a090815261003e9160009190610094565b50606460025534801561005057600080fd5b506040516107b03803806107b083398101604081905261006f9161012d565b600180546001600160a01b0319166001600160a01b03929092169190911790556101b1565b8280546100a09061015d565b90600052602060002090601f0160209004810192826100c25760008555610108565b82601f106100db57805160ff1916838001178555610108565b82800160010185558215610108579182015b828111156101085782518255916020019190600101906100ed565b50610114929150610118565b5090565b5b808211156101145760008155600101610119565b60006020828403121561013f57600080fd5b81516001600160a01b038116811461015657600080fd5b9392505050565b600181811c9082168061017157607f821691505b602082108114156101ab577f4e487b7100000000000000000000000000000000000000000000000000000000600052602260045260246000fd5b50919050565b6105f0806101c06000396000f3fe60806040526004361061004a5760003560e01c806306fdde031461004f5780632c4e722e1461007a5780636c11bcd31461009e578063d0febe4c146100c0578063fcfec0fe146100c8575b600080fd5b34801561005b57600080fd5b50610064610100565b6040516100719190610480565b60405180910390f35b34801561008657600080fd5b5061009060025481565b604051908152602001610071565b3480156100aa57600080fd5b506100be6100b93660046104d5565b61018e565b005b6100be610327565b3480156100d457600080fd5b506001546100e8906001600160a01b031681565b6040516001600160a01b039091168152602001610071565b6000805461010d906104ee565b80601f0160208091040260200160405190810160405280929190818152602001828054610139906104ee565b80156101865780601f1061015b57610100808354040283529160200191610186565b820191906000526020600020905b81548152906001019060200180831161016957829003601f168201915b505050505081565b6001546040516370a0823160e01b815233600482015282916001600160a01b0316906370a0823190602401602060405180830381865afa1580156101d6573d6000803e3d6000fd5b505050506040513d601f19601f820116820180604052508101906101fa9190610529565b101561020557600080fd5b6000600254826102159190610542565b9050303181111561022557600080fd5b6001546040516323b872dd60e01b8152336004820152306024820152604481018490526001600160a01b03909116906323b872dd906064016020604051808303816000875af115801561027c573d6000803e3d6000fd5b505050506040513d601f19601f820116820180604052508101906102a09190610564565b50604051339082156108fc029083906000818181858888f193505050501580156102ce573d6000803e3d6000fd5b50600154600254604080513381526001600160a01b039093166020840152820184905260608201527f697c42d55a5e1fed3f464ec6f38b32546a0bd368dc8068b065c67566d73f32909060800160405180910390a15050565b600060025434610337919061058d565b6001546040516370a0823160e01b815230600482015291925082916001600160a01b03909116906370a0823190602401602060405180830381865afa158015610384573d6000803e3d6000fd5b505050506040513d601f19601f820116820180604052508101906103a89190610529565b10156103b357600080fd5b60015460405163a9059cbb60e01b8152336004820152602481018390526001600160a01b039091169063a9059cbb906044016020604051808303816000875af1158015610404573d6000803e3d6000fd5b505050506040513d601f19601f820116820180604052508101906104289190610564565b50600154600254604080513381526001600160a01b039093166020840152820183905260608201527f6faf93231a456e552dbc9961f58d9713ee4f2e69d15f1975b050ef0911053a7b9060800160405180910390a150565b600060208083528351808285015260005b818110156104ad57858101830151858201604001528201610491565b818111156104bf576000604083870101525b50601f01601f1916929092016040019392505050565b6000602082840312156104e757600080fd5b5035919050565b600181811c9082168061050257607f821691505b6020821081141561052357634e487b7160e01b600052602260045260246000fd5b50919050565b60006020828403121561053b57600080fd5b5051919050565b60008261055f57634e487b7160e01b600052601260045260246000fd5b500490565b60006020828403121561057657600080fd5b8151801515811461058657600080fd5b9392505050565b60008160001904831182151516156105b557634e487b7160e01b600052601160045260246000fd5b50029056fea264697066735822122014ab1696b0584d6d684be365f41eea8f8fea6830597fa2aa095da8497cc2073b64736f6c634300080b0033",
  "immutableReferences": {},
  "source": "// SPDX-License-Identifier: Unlicensed\npragma solidity ^0.8.11;\n\nimport \"./PrimBank.sol\";\n\ncontract PrimSwap {\n  string public name = \"PrimSwap Exchange\";\n  PrimBank public primBankContract;\n  uint public rate = 100;\n\n  event TokensPurchased(\n    address account,\n    address primBankContract,\n    uint amount,\n    uint rate\n  );\n\n  event TokensSold(\n    address account,\n    address primBankContract,\n    uint amount,\n    uint rate\n  );\n\n  constructor(PrimBank _primBankContract)  {\n    primBankContract = _primBankContract;\n  }\n\n  function buyTokens() public payable {\n    // Calculate the number of tokens to buy\n    uint tokenAmount = msg.value * rate;\n\n    // Require that PrimSwap has enough tokens\n    require(primBankContract.balanceOf(address(this)) >= tokenAmount);\n\n    // Transfer tokens to the user\n    primBankContract.transfer(payable(msg.sender), tokenAmount);\n\n    // Emit an event\n    emit TokensPurchased(payable(msg.sender), address(primBankContract), tokenAmount, rate);\n  }\n\n  function sellTokens(uint _amount) public {\n    // User can't sell more tokens than they have\n    require(primBankContract.balanceOf(msg.sender) >= _amount);\n\n    // Calculate the amount of Ether to redeem\n    uint etherAmount = _amount / rate;\n\n    // Require that PrimSwap has enough Ether\n    require(address(this).balance >= etherAmount);\n\n    // Perform sale\n    primBankContract.transferFrom(payable(msg.sender), address(this), _amount);\n    payable(msg.sender).transfer(etherAmount);\n\n    // Emit an event\n    emit TokensSold(payable(msg.sender), address(primBankContract), _amount, rate);\n  }\n\n}\n",
  "sourcePath": "/Users/nlwsoft/Desktop/PrimBank Contracts/contracts/PrimSwap.sol",
  "compiler": {
    "name": "solc",
    "version": "0.8.11+commit.d7f03943.Emscripten.clang"
  },
  "schemaVersion": "3.4.3",
  "updatedAt": "2022-01-11T01:14:24.847Z",
  "devdoc": {
    "kind": "dev",
    "methods": {},
    "version": 1
  },
  "userdoc": {
    "kind": "user",
    "methods": {},
    "version": 1
  }
}