{
  "contractName": "PrimBank",
  "abi": [
    {
      "inputs": [],
      "stateMutability": "nonpayable",
      "type": "constructor"
    },
    {
      "anonymous": false,
      "inputs": [
        {
          "indexed": true,
          "internalType": "address",
          "name": "owner",
          "type": "address"
        },
        {
          "indexed": true,
          "internalType": "address",
          "name": "spender",
          "type": "address"
        },
        {
          "indexed": false,
          "internalType": "uint256",
          "name": "value",
          "type": "uint256"
        }
      ],
      "name": "Approval",
      "type": "event"
    },
    {
      "anonymous": false,
      "inputs": [
        {
          "indexed": true,
          "internalType": "address",
          "name": "account",
          "type": "address"
        },
        {
          "indexed": false,
          "internalType": "bool",
          "name": "isExcluded",
          "type": "bool"
        }
      ],
      "name": "ExcludeFromFees",
      "type": "event"
    },
    {
      "anonymous": false,
      "inputs": [
        {
          "indexed": false,
          "internalType": "address[]",
          "name": "accounts",
          "type": "address[]"
        },
        {
          "indexed": false,
          "internalType": "bool",
          "name": "isExcluded",
          "type": "bool"
        }
      ],
      "name": "ExcludeMultipleAccountsFromFees",
      "type": "event"
    },
    {
      "anonymous": false,
      "inputs": [
        {
          "indexed": true,
          "internalType": "uint256",
          "name": "newValue",
          "type": "uint256"
        },
        {
          "indexed": true,
          "internalType": "uint256",
          "name": "oldValue",
          "type": "uint256"
        }
      ],
      "name": "GasForProcessingUpdated",
      "type": "event"
    },
    {
      "anonymous": false,
      "inputs": [
        {
          "indexed": true,
          "internalType": "address",
          "name": "newLiquidityWallet",
          "type": "address"
        },
        {
          "indexed": true,
          "internalType": "address",
          "name": "oldLiquidityWallet",
          "type": "address"
        }
      ],
      "name": "LiquidityWalletUpdated",
      "type": "event"
    },
    {
      "anonymous": false,
      "inputs": [
        {
          "indexed": true,
          "internalType": "address",
          "name": "previousOwner",
          "type": "address"
        },
        {
          "indexed": true,
          "internalType": "address",
          "name": "newOwner",
          "type": "address"
        }
      ],
      "name": "OwnershipTransferred",
      "type": "event"
    },
    {
      "anonymous": false,
      "inputs": [
        {
          "indexed": false,
          "internalType": "uint256",
          "name": "iterations",
          "type": "uint256"
        },
        {
          "indexed": false,
          "internalType": "uint256",
          "name": "claims",
          "type": "uint256"
        },
        {
          "indexed": false,
          "internalType": "uint256",
          "name": "lastProcessedIndex",
          "type": "uint256"
        },
        {
          "indexed": true,
          "internalType": "bool",
          "name": "automatic",
          "type": "bool"
        },
        {
          "indexed": false,
          "internalType": "uint256",
          "name": "gas",
          "type": "uint256"
        },
        {
          "indexed": true,
          "internalType": "address",
          "name": "processor",
          "type": "address"
        }
      ],
      "name": "ProcessedDividendTracker",
      "type": "event"
    },
    {
      "anonymous": false,
      "inputs": [
        {
          "indexed": false,
          "internalType": "uint256",
          "name": "tokensSwapped",
          "type": "uint256"
        },
        {
          "indexed": false,
          "internalType": "uint256",
          "name": "amount",
          "type": "uint256"
        }
      ],
      "name": "SendDividends",
      "type": "event"
    },
    {
      "anonymous": false,
      "inputs": [
        {
          "indexed": true,
          "internalType": "address",
          "name": "pair",
          "type": "address"
        },
        {
          "indexed": true,
          "internalType": "bool",
          "name": "value",
          "type": "bool"
        }
      ],
      "name": "SetAutomatedMarketMakerPair",
      "type": "event"
    },
    {
      "anonymous": false,
      "inputs": [
        {
          "indexed": false,
          "internalType": "uint256",
          "name": "tokensSwapped",
          "type": "uint256"
        },
        {
          "indexed": false,
          "internalType": "uint256",
          "name": "ethReceived",
          "type": "uint256"
        },
        {
          "indexed": false,
          "internalType": "uint256",
          "name": "tokensIntoLiqudity",
          "type": "uint256"
        }
      ],
      "name": "SwapAndLiquify",
      "type": "event"
    },
    {
      "anonymous": false,
      "inputs": [
        {
          "indexed": true,
          "internalType": "address",
          "name": "from",
          "type": "address"
        },
        {
          "indexed": true,
          "internalType": "address",
          "name": "to",
          "type": "address"
        },
        {
          "indexed": false,
          "internalType": "uint256",
          "name": "value",
          "type": "uint256"
        }
      ],
      "name": "Transfer",
      "type": "event"
    },
    {
      "anonymous": false,
      "inputs": [
        {
          "indexed": true,
          "internalType": "address",
          "name": "newAddress",
          "type": "address"
        },
        {
          "indexed": true,
          "internalType": "address",
          "name": "oldAddress",
          "type": "address"
        }
      ],
      "name": "UpdateDividendTracker",
      "type": "event"
    },
    {
      "anonymous": false,
      "inputs": [
        {
          "indexed": true,
          "internalType": "address",
          "name": "newAddress",
          "type": "address"
        },
        {
          "indexed": true,
          "internalType": "address",
          "name": "oldAddress",
          "type": "address"
        }
      ],
      "name": "UpdateUniswapV2Router",
      "type": "event"
    },
    {
      "inputs": [],
      "name": "USDT",
      "outputs": [
        {
          "internalType": "address",
          "name": "",
          "type": "address"
        }
      ],
      "stateMutability": "view",
      "type": "function"
    },
    {
      "inputs": [],
      "name": "USDTRewardsFee",
      "outputs": [
        {
          "internalType": "uint256",
          "name": "",
          "type": "uint256"
        }
      ],
      "stateMutability": "view",
      "type": "function"
    },
    {
      "inputs": [
        {
          "internalType": "address",
          "name": "",
          "type": "address"
        }
      ],
      "name": "_isBlacklisted",
      "outputs": [
        {
          "internalType": "bool",
          "name": "",
          "type": "bool"
        }
      ],
      "stateMutability": "view",
      "type": "function"
    },
    {
      "inputs": [],
      "name": "_marketingWalletAddress",
      "outputs": [
        {
          "internalType": "address",
          "name": "",
          "type": "address"
        }
      ],
      "stateMutability": "view",
      "type": "function"
    },
    {
      "inputs": [
        {
          "internalType": "address",
          "name": "owner",
          "type": "address"
        },
        {
          "internalType": "address",
          "name": "spender",
          "type": "address"
        }
      ],
      "name": "allowance",
      "outputs": [
        {
          "internalType": "uint256",
          "name": "",
          "type": "uint256"
        }
      ],
      "stateMutability": "view",
      "type": "function"
    },
    {
      "inputs": [
        {
          "internalType": "address",
          "name": "spender",
          "type": "address"
        },
        {
          "internalType": "uint256",
          "name": "amount",
          "type": "uint256"
        }
      ],
      "name": "approve",
      "outputs": [
        {
          "internalType": "bool",
          "name": "",
          "type": "bool"
        }
      ],
      "stateMutability": "nonpayable",
      "type": "function"
    },
    {
      "inputs": [
        {
          "internalType": "address",
          "name": "",
          "type": "address"
        }
      ],
      "name": "automatedMarketMakerPairs",
      "outputs": [
        {
          "internalType": "bool",
          "name": "",
          "type": "bool"
        }
      ],
      "stateMutability": "view",
      "type": "function"
    },
    {
      "inputs": [
        {
          "internalType": "address",
          "name": "account",
          "type": "address"
        }
      ],
      "name": "balanceOf",
      "outputs": [
        {
          "internalType": "uint256",
          "name": "",
          "type": "uint256"
        }
      ],
      "stateMutability": "view",
      "type": "function"
    },
    {
      "inputs": [],
      "name": "deadWallet",
      "outputs": [
        {
          "internalType": "address",
          "name": "",
          "type": "address"
        }
      ],
      "stateMutability": "view",
      "type": "function"
    },
    {
      "inputs": [],
      "name": "decimals",
      "outputs": [
        {
          "internalType": "uint8",
          "name": "",
          "type": "uint8"
        }
      ],
      "stateMutability": "view",
      "type": "function"
    },
    {
      "inputs": [
        {
          "internalType": "address",
          "name": "spender",
          "type": "address"
        },
        {
          "internalType": "uint256",
          "name": "subtractedValue",
          "type": "uint256"
        }
      ],
      "name": "decreaseAllowance",
      "outputs": [
        {
          "internalType": "bool",
          "name": "",
          "type": "bool"
        }
      ],
      "stateMutability": "nonpayable",
      "type": "function"
    },
    {
      "inputs": [],
      "name": "dividendTracker",
      "outputs": [
        {
          "internalType": "contract PrimBankDividendTracker",
          "name": "",
          "type": "address"
        }
      ],
      "stateMutability": "view",
      "type": "function"
    },
    {
      "inputs": [],
      "name": "gasForProcessing",
      "outputs": [
        {
          "internalType": "uint256",
          "name": "",
          "type": "uint256"
        }
      ],
      "stateMutability": "view",
      "type": "function"
    },
    {
      "inputs": [
        {
          "internalType": "address",
          "name": "spender",
          "type": "address"
        },
        {
          "internalType": "uint256",
          "name": "addedValue",
          "type": "uint256"
        }
      ],
      "name": "increaseAllowance",
      "outputs": [
        {
          "internalType": "bool",
          "name": "",
          "type": "bool"
        }
      ],
      "stateMutability": "nonpayable",
      "type": "function"
    },
    {
      "inputs": [],
      "name": "liquidityFee",
      "outputs": [
        {
          "internalType": "uint256",
          "name": "",
          "type": "uint256"
        }
      ],
      "stateMutability": "view",
      "type": "function"
    },
    {
      "inputs": [],
      "name": "marketingFee",
      "outputs": [
        {
          "internalType": "uint256",
          "name": "",
          "type": "uint256"
        }
      ],
      "stateMutability": "view",
      "type": "function"
    },
    {
      "inputs": [],
      "name": "name",
      "outputs": [
        {
          "internalType": "string",
          "name": "",
          "type": "string"
        }
      ],
      "stateMutability": "view",
      "type": "function"
    },
    {
      "inputs": [],
      "name": "owner",
      "outputs": [
        {
          "internalType": "address",
          "name": "",
          "type": "address"
        }
      ],
      "stateMutability": "view",
      "type": "function"
    },
    {
      "inputs": [],
      "name": "renounceOwnership",
      "outputs": [],
      "stateMutability": "nonpayable",
      "type": "function"
    },
    {
      "inputs": [],
      "name": "swapTokensAtAmount",
      "outputs": [
        {
          "internalType": "uint256",
          "name": "",
          "type": "uint256"
        }
      ],
      "stateMutability": "view",
      "type": "function"
    },
    {
      "inputs": [],
      "name": "symbol",
      "outputs": [
        {
          "internalType": "string",
          "name": "",
          "type": "string"
        }
      ],
      "stateMutability": "view",
      "type": "function"
    },
    {
      "inputs": [],
      "name": "totalFees",
      "outputs": [
        {
          "internalType": "uint256",
          "name": "",
          "type": "uint256"
        }
      ],
      "stateMutability": "view",
      "type": "function"
    },
    {
      "inputs": [],
      "name": "totalSupply",
      "outputs": [
        {
          "internalType": "uint256",
          "name": "",
          "type": "uint256"
        }
      ],
      "stateMutability": "view",
      "type": "function"
    },
    {
      "inputs": [
        {
          "internalType": "address",
          "name": "recipient",
          "type": "address"
        },
        {
          "internalType": "uint256",
          "name": "amount",
          "type": "uint256"
        }
      ],
      "name": "transfer",
      "outputs": [
        {
          "internalType": "bool",
          "name": "",
          "type": "bool"
        }
      ],
      "stateMutability": "nonpayable",
      "type": "function"
    },
    {
      "inputs": [
        {
          "internalType": "address",
          "name": "sender",
          "type": "address"
        },
        {
          "internalType": "address",
          "name": "recipient",
          "type": "address"
        },
        {
          "internalType": "uint256",
          "name": "amount",
          "type": "uint256"
        }
      ],
      "name": "transferFrom",
      "outputs": [
        {
          "internalType": "bool",
          "name": "",
          "type": "bool"
        }
      ],
      "stateMutability": "nonpayable",
      "type": "function"
    },
    {
      "inputs": [
        {
          "internalType": "address",
          "name": "newOwner",
          "type": "address"
        }
      ],
      "name": "transferOwnership",
      "outputs": [],
      "stateMutability": "nonpayable",
      "type": "function"
    },
    {
      "inputs": [],
      "name": "uniswapV2Pair",
      "outputs": [
        {
          "internalType": "address",
          "name": "",
          "type": "address"
        }
      ],
      "stateMutability": "view",
      "type": "function"
    },
    {
      "inputs": [],
      "name": "uniswapV2Router",
      "outputs": [
        {
          "internalType": "contract IUniswapV2Router02",
          "name": "",
          "type": "address"
        }
      ],
      "stateMutability": "view",
      "type": "function"
    },
    {
      "stateMutability": "payable",
      "type": "receive"
    },
    {
      "inputs": [
        {
          "internalType": "address",
          "name": "newAddress",
          "type": "address"
        }
      ],
      "name": "updateDividendTracker",
      "outputs": [],
      "stateMutability": "nonpayable",
      "type": "function"
    },
    {
      "inputs": [
        {
          "internalType": "address",
          "name": "newAddress",
          "type": "address"
        }
      ],
      "name": "updateUniswapV2Router",
      "outputs": [],
      "stateMutability": "nonpayable",
      "type": "function"
    },
    {
      "inputs": [
        {
          "internalType": "address",
          "name": "account",
          "type": "address"
        },
        {
          "internalType": "bool",
          "name": "excluded",
          "type": "bool"
        }
      ],
      "name": "excludeFromFees",
      "outputs": [],
      "stateMutability": "nonpayable",
      "type": "function"
    },
    {
      "inputs": [
        {
          "internalType": "address[]",
          "name": "accounts",
          "type": "address[]"
        },
        {
          "internalType": "bool",
          "name": "excluded",
          "type": "bool"
        }
      ],
      "name": "excludeMultipleAccountsFromFees",
      "outputs": [],
      "stateMutability": "nonpayable",
      "type": "function"
    },
    {
      "inputs": [
        {
          "internalType": "uint256",
          "name": "amount",
          "type": "uint256"
        }
      ],
      "name": "setSwapTokensAtAmount",
      "outputs": [],
      "stateMutability": "nonpayable",
      "type": "function"
    },
    {
      "inputs": [
        {
          "internalType": "address payable",
          "name": "wallet",
          "type": "address"
        }
      ],
      "name": "setMarketingWallet",
      "outputs": [],
      "stateMutability": "nonpayable",
      "type": "function"
    },
    {
      "inputs": [
        {
          "internalType": "uint256",
          "name": "value",
          "type": "uint256"
        }
      ],
      "name": "setUSDTRewardsFee",
      "outputs": [],
      "stateMutability": "nonpayable",
      "type": "function"
    },
    {
      "inputs": [
        {
          "internalType": "uint256",
          "name": "value",
          "type": "uint256"
        }
      ],
      "name": "setLiquiditFee",
      "outputs": [],
      "stateMutability": "nonpayable",
      "type": "function"
    },
    {
      "inputs": [
        {
          "internalType": "uint256",
          "name": "value",
          "type": "uint256"
        }
      ],
      "name": "setMarketingFee",
      "outputs": [],
      "stateMutability": "nonpayable",
      "type": "function"
    },
    {
      "inputs": [
        {
          "internalType": "address",
          "name": "pair",
          "type": "address"
        },
        {
          "internalType": "bool",
          "name": "value",
          "type": "bool"
        }
      ],
      "name": "setAutomatedMarketMakerPair",
      "outputs": [],
      "stateMutability": "nonpayable",
      "type": "function"
    },
    {
      "inputs": [
        {
          "internalType": "address",
          "name": "account",
          "type": "address"
        },
        {
          "internalType": "bool",
          "name": "value",
          "type": "bool"
        }
      ],
      "name": "blacklistAddress",
      "outputs": [],
      "stateMutability": "nonpayable",
      "type": "function"
    },
    {
      "inputs": [
        {
          "internalType": "uint256",
          "name": "newValue",
          "type": "uint256"
        }
      ],
      "name": "updateGasForProcessing",
      "outputs": [],
      "stateMutability": "nonpayable",
      "type": "function"
    },
    {
      "inputs": [
        {
          "internalType": "uint256",
          "name": "claimWait",
          "type": "uint256"
        }
      ],
      "name": "updateClaimWait",
      "outputs": [],
      "stateMutability": "nonpayable",
      "type": "function"
    },
    {
      "inputs": [
        {
          "internalType": "bool",
          "name": "sendToFee",
          "type": "bool"
        },
        {
          "internalType": "bool",
          "name": "liquify",
          "type": "bool"
        },
        {
          "internalType": "bool",
          "name": "sendDividends",
          "type": "bool"
        }
      ],
      "name": "swapOnDemand",
      "outputs": [],
      "stateMutability": "nonpayable",
      "type": "function"
    },
    {
      "inputs": [],
      "name": "getClaimWait",
      "outputs": [
        {
          "internalType": "uint256",
          "name": "",
          "type": "uint256"
        }
      ],
      "stateMutability": "view",
      "type": "function"
    },
    {
      "inputs": [],
      "name": "getTotalDividendsDistributed",
      "outputs": [
        {
          "internalType": "uint256",
          "name": "",
          "type": "uint256"
        }
      ],
      "stateMutability": "view",
      "type": "function"
    },
    {
      "inputs": [
        {
          "internalType": "address",
          "name": "account",
          "type": "address"
        }
      ],
      "name": "isExcludedFromFees",
      "outputs": [
        {
          "internalType": "bool",
          "name": "",
          "type": "bool"
        }
      ],
      "stateMutability": "view",
      "type": "function"
    },
    {
      "inputs": [
        {
          "internalType": "address",
          "name": "account",
          "type": "address"
        }
      ],
      "name": "withdrawableDividendOf",
      "outputs": [
        {
          "internalType": "uint256",
          "name": "",
          "type": "uint256"
        }
      ],
      "stateMutability": "view",
      "type": "function"
    },
    {
      "inputs": [
        {
          "internalType": "address",
          "name": "account",
          "type": "address"
        }
      ],
      "name": "dividendTokenBalanceOf",
      "outputs": [
        {
          "internalType": "uint256",
          "name": "",
          "type": "uint256"
        }
      ],
      "stateMutability": "view",
      "type": "function"
    },
    {
      "inputs": [
        {
          "internalType": "address",
          "name": "account",
          "type": "address"
        }
      ],
      "name": "excludeFromDividends",
      "outputs": [],
      "stateMutability": "nonpayable",
      "type": "function"
    },
    {
      "inputs": [
        {
          "internalType": "address",
          "name": "account",
          "type": "address"
        }
      ],
      "name": "getAccountDividendsInfo",
      "outputs": [
        {
          "internalType": "address",
          "name": "",
          "type": "address"
        },
        {
          "internalType": "int256",
          "name": "",
          "type": "int256"
        },
        {
          "internalType": "int256",
          "name": "",
          "type": "int256"
        },
        {
          "internalType": "uint256",
          "name": "",
          "type": "uint256"
        },
        {
          "internalType": "uint256",
          "name": "",
          "type": "uint256"
        },
        {
          "internalType": "uint256",
          "name": "",
          "type": "uint256"
        },
        {
          "internalType": "uint256",
          "name": "",
          "type": "uint256"
        },
        {
          "internalType": "uint256",
          "name": "",
          "type": "uint256"
        }
      ],
      "stateMutability": "view",
      "type": "function"
    },
    {
      "inputs": [
        {
          "internalType": "uint256",
          "name": "index",
          "type": "uint256"
        }
      ],
      "name": "getAccountDividendsInfoAtIndex",
      "outputs": [
        {
          "internalType": "address",
          "name": "",
          "type": "address"
        },
        {
          "internalType": "int256",
          "name": "",
          "type": "int256"
        },
        {
          "internalType": "int256",
          "name": "",
          "type": "int256"
        },
        {
          "internalType": "uint256",
          "name": "",
          "type": "uint256"
        },
        {
          "internalType": "uint256",
          "name": "",
          "type": "uint256"
        },
        {
          "internalType": "uint256",
          "name": "",
          "type": "uint256"
        },
        {
          "internalType": "uint256",
          "name": "",
          "type": "uint256"
        },
        {
          "internalType": "uint256",
          "name": "",
          "type": "uint256"
        }
      ],
      "stateMutability": "view",
      "type": "function"
    },
    {
      "inputs": [
        {
          "internalType": "uint256",
          "name": "gas",
          "type": "uint256"
        }
      ],
      "name": "processDividendTracker",
      "outputs": [],
      "stateMutability": "nonpayable",
      "type": "function"
    },
    {
      "inputs": [],
      "name": "claim",
      "outputs": [],
      "stateMutability": "nonpayable",
      "type": "function"
    },
    {
      "inputs": [
        {
          "internalType": "address",
          "name": "claimee",
          "type": "address"
        }
      ],
      "name": "claimAddress",
      "outputs": [],
      "stateMutability": "nonpayable",
      "type": "function"
    },
    {
      "inputs": [],
      "name": "getLastProcessedIndex",
      "outputs": [
        {
          "internalType": "uint256",
          "name": "",
          "type": "uint256"
        }
      ],
      "stateMutability": "view",
      "type": "function"
    },
    {
      "inputs": [
        {
          "internalType": "uint256",
          "name": "index",
          "type": "uint256"
        }
      ],
      "name": "setLastProcessedIndex",
      "outputs": [],
      "stateMutability": "nonpayable",
      "type": "function"
    },
    {
      "inputs": [],
      "name": "getNumberOfDividendTokenHolders",
      "outputs": [
        {
          "internalType": "uint256",
          "name": "",
          "type": "uint256"
        }
      ],
      "stateMutability": "view",
      "type": "function"
    }
  ],
  "bytecode": "0x60a06040526009805461dead6001600160a01b031990911617905573c0976b10c602f182c438d165d3162dd0b1e0891a6080526a034f086f3b33b684000000600a908155600c8190556002600d8190556005600e81905562000089929091620000759190620006c0602090811b6200212717901c565b620006c060201b620021271790919060201c565b600f55601080546001600160a01b031916736bd2e6cee9292b98abdb54120b830767e6db0bf6179055620493e0601155348015620000c657600080fd5b50604080518082018252600881527f5072696d42616e6b00000000000000000000000000000000000000000000000060208083019182528351808501909452600584527f5052494d53000000000000000000000000000000000000000000000000000000908401528151919291620001419160039162000bb3565b5080516200015790600490602084019062000bb3565b50505060006200016c6200074860201b60201c565b600580546001600160a01b0319166001600160a01b038316908117909155604051919250906000907f8be0079c531659141344cd1fd0a4f28419497f9722a3daafe3b4186f6b6457e0908290a350604051620001c89062000c42565b604051809103906000f080158015620001e5573d6000803e3d6000fd5b50600860006101000a8154816001600160a01b0302191690836001600160a01b03160217905550600073d99d1c33f9fc3444f8101754abc46c52416550d190506000816001600160a01b031663c45a01556040518163ffffffff1660e01b8152600401602060405180830381865afa15801562000266573d6000803e3d6000fd5b505050506040513d601f19601f820116820180604052508101906200028c919062000c67565b6001600160a01b031663c9c6539630846001600160a01b031663ad5c46486040518163ffffffff1660e01b8152600401602060405180830381865afa158015620002da573d6000803e3d6000fd5b505050506040513d601f19601f8201168201806040525081019062000300919062000c67565b6040517fffffffff0000000000000000000000000000000000000000000000000000000060e085901b1681526001600160a01b039283166004820152911660248201526044016020604051808303816000875af115801562000366573d6000803e3d6000fd5b505050506040513d601f19601f820116820180604052508101906200038c919062000c67565b600680546001600160a01b038086166001600160a01b03199283161790925560078054928416929091169190911790559050620003cb8160016200074c565b6008546040517f31e79db00000000000000000000000000000000000000000000000000000000081526001600160a01b0390911660048201819052906331e79db090602401600060405180830381600087803b1580156200042b57600080fd5b505af115801562000440573d6000803e3d6000fd5b50506008546040517f31e79db00000000000000000000000000000000000000000000000000000000081523060048201526001600160a01b0390911692506331e79db09150602401600060405180830381600087803b158015620004a357600080fd5b505af1158015620004b8573d6000803e3d6000fd5b50506008546001600160a01b031691506331e79db09050620004e26005546001600160a01b031690565b6040517fffffffff0000000000000000000000000000000000000000000000000000000060e084901b1681526001600160a01b039091166004820152602401600060405180830381600087803b1580156200053c57600080fd5b505af115801562000551573d6000803e3d6000fd5b50506008546009546040517f31e79db00000000000000000000000000000000000000000000000000000000081526001600160a01b039182166004820152911692506331e79db09150602401600060405180830381600087803b158015620005b857600080fd5b505af1158015620005cd573d6000803e3d6000fd5b50506008546040517f31e79db00000000000000000000000000000000000000000000000000000000081526001600160a01b03868116600483015290911692506331e79db09150602401600060405180830381600087803b1580156200063257600080fd5b505af115801562000647573d6000803e3d6000fd5b50505050620006676200065f6200090860201b60201c565b600162000917565b60105462000680906001600160a01b0316600162000917565b6200068d30600162000917565b620006b8620006a46005546001600160a01b031690565b6c01431e0fae6d7217caa000000062000a9d565b505062000d28565b600080620006cf838562000c92565b90508381101562000741576040517f08c379a000000000000000000000000000000000000000000000000000000000815260206004820152601b60248201527f536166654d6174683a206164646974696f6e206f766572666c6f77000000000060448201526064015b60405180910390fd5b9392505050565b3390565b6001600160a01b03821660009081526013602052604090205460ff161515811515141562000823576040517f08c379a000000000000000000000000000000000000000000000000000000000815260206004820152604260248201527f5072696d42616e6b3a204175746f6d61746564206d61726b6574206d616b657260448201527f207061697220697320616c72656164792073657420746f20746861742076616c60648201527f7565000000000000000000000000000000000000000000000000000000000000608482015260a40162000738565b6001600160a01b0382166000908152601360205260409020805460ff19168215801591909117909155620008cc576008546040517f31e79db00000000000000000000000000000000000000000000000000000000081526001600160a01b038481166004830152909116906331e79db090602401600060405180830381600087803b158015620008b257600080fd5b505af1158015620008c7573d6000803e3d6000fd5b505050505b604051811515906001600160a01b038416907fffa9187bf1f18bf477bd0ea1bcbb64e93b6a98132473929edfce215cd9b16fab90600090a35050565b6005546001600160a01b031690565b6005546001600160a01b031633146200098d576040517f08c379a000000000000000000000000000000000000000000000000000000000815260206004820181905260248201527f4f776e61626c653a2063616c6c6572206973206e6f7420746865206f776e6572604482015260640162000738565b6001600160a01b03821660009081526012602052604090205460ff161515811515141562000a3e576040517f08c379a000000000000000000000000000000000000000000000000000000000815260206004820152603460248201527f5072696d42616e6b3a204163636f756e7420697320616c72656164792074686560448201527f2076616c7565206f6620276578636c7564656427000000000000000000000000606482015260840162000738565b6001600160a01b038216600081815260126020908152604091829020805460ff191685151590811790915591519182527f9d8f7706ea1113d1a167b526eca956215946dd36cc7df39eb16180222d8b5df7910160405180910390a25050565b6001600160a01b03821662000b0f576040517f08c379a000000000000000000000000000000000000000000000000000000000815260206004820152601f60248201527f45524332303a206d696e7420746f20746865207a65726f206164647265737300604482015260640162000738565b62000b2b81600254620006c060201b620021271790919060201c565b6002556001600160a01b0382166000908152602081815260409091205462000b5e91839062002127620006c0821b17901c565b6001600160a01b038316600081815260208181526040808320949094559251848152919290917fddf252ad1be2c89b69c2b068fc378daa952ba7f163c4a11628f55a4df523b3ef910160405180910390a35050565b82805462000bc19062000cd2565b90600052602060002090601f01602090048101928262000be5576000855562000c30565b82601f1062000c0057805160ff191683800117855562000c30565b8280016001018555821562000c30579182015b8281111562000c3057825182559160200191906001019062000c13565b5062000c3e92915062000c50565b5090565b61224c80620046ab83390190565b5b8082111562000c3e576000815560010162000c51565b60006020828403121562000c7a57600080fd5b81516001600160a01b03811681146200074157600080fd5b6000821982111562000ccd577f4e487b7100000000000000000000000000000000000000000000000000000000600052601160045260246000fd5b500190565b600181811c9082168062000ce757607f821691505b6020821081141562000d22577f4e487b7100000000000000000000000000000000000000000000000000000000600052602260045260246000fd5b50919050565b60805161393d62000d6e600039600081816109c9015281816129c901528181612a6d01528181612b0a01528181612c2701528181612cc90152613037015261393d6000f3fe60806040526004361061036f5760003560e01c806381b5e27d116101c6578063ad56c13c116100f7578063ce2fea3311610095578063e7841ec01161006f578063e7841ec014610a67578063e98030c714610a7c578063f27fd25414610a9c578063f2fde38b14610abc57600080fd5b8063ce2fea33146109eb578063dd62ed3e14610a0b578063e2f4560514610a5157600080fd5b8063b62496f5116100d1578063b62496f514610947578063c024666814610977578063c492f04614610997578063c54e44eb146109b757600080fd5b8063ad56c13c146108a2578063adefd90c14610907578063afa4f3b21461092757600080fd5b80639a7a23d611610164578063a457c2d71161013e578063a457c2d714610822578063a69245c714610842578063a8b9d24014610862578063a9059cbb1461088257600080fd5b80639a7a23d6146107d75780639c1b8af5146107f7578063a26579ad1461080d57600080fd5b806388bdd9be116101a057806388bdd9be1461076e5780638da5cb5b1461078e57806395d89b41146107ac57806398118cb4146107c157600080fd5b806381b5e27d1461071857806385141a771461072e578063871c128d1461074e57600080fd5b80634144d9e4116102a057806364b0f6531161023e5780636b67c4df116102185780636b67c4df146106ad578063700bb191146106c357806370a08231146106e3578063715018a61461070357600080fd5b806364b0f6531461065857806365b8dbc01461066d5780636843cd841461068d57600080fd5b80634e71d92d1161027a5780634e71d92d146105ca5780634fbee193146105df5780635d098b3814610618578063625e764c1461063857600080fd5b80634144d9e41461056a578063455a43961461058a57806349bd5a5e146105aa57600080fd5b8063286b3aa01161030d578063313ce567116102e7578063313ce567146104ee57806331e79db01461050a578063395093511461052a5780633f249df01461054a57600080fd5b8063286b3aa0146104975780632c1f5216146104b957806330bb4cff146104d957600080fd5b80631694505e116103495780631694505e146103fa57806318160ddd146104325780631cdd3be31461044757806323b872dd1461047757600080fd5b806306fdde031461037b578063095ea7b3146103a657806313114a9d146103d657600080fd5b3661037657005b600080fd5b34801561038757600080fd5b50610390610adc565b60405161039d91906132e8565b60405180910390f35b3480156103b257600080fd5b506103c66103c1366004613352565b610b6e565b604051901515815260200161039d565b3480156103e257600080fd5b506103ec600f5481565b60405190815260200161039d565b34801561040657600080fd5b5060065461041a906001600160a01b031681565b6040516001600160a01b03909116815260200161039d565b34801561043e57600080fd5b506002546103ec565b34801561045357600080fd5b506103c661046236600461337e565b600b6020526000908152604090205460ff1681565b34801561048357600080fd5b506103c661049236600461339b565b610b85565b3480156104a357600080fd5b506104b76104b23660046133dc565b610bee565b005b3480156104c557600080fd5b5060085461041a906001600160a01b031681565b3480156104e557600080fd5b506103ec610c83565b3480156104fa57600080fd5b506040516012815260200161039d565b34801561051657600080fd5b506104b761052536600461337e565b610cf6565b34801561053657600080fd5b506103c6610545366004613352565b610d52565b34801561055657600080fd5b506104b761056536600461337e565b610d88565b34801561057657600080fd5b5060105461041a906001600160a01b031681565b34801561059657600080fd5b506104b76105a5366004613403565b610e2d565b3480156105b657600080fd5b5060075461041a906001600160a01b031681565b3480156105d657600080fd5b506104b7610e82565b3480156105eb57600080fd5b506103c66105fa36600461337e565b6001600160a01b031660009081526012602052604090205460ff1690565b34801561062457600080fd5b506104b761063336600461337e565b610efa565b34801561064457600080fd5b506104b76106533660046133dc565b610f46565b34801561066457600080fd5b506103ec610f96565b34801561067957600080fd5b506104b761068836600461337e565b610fe0565b34801561069957600080fd5b506103ec6106a836600461337e565b611254565b3480156106b957600080fd5b506103ec600e5481565b3480156106cf57600080fd5b506104b76106de3660046133dc565b6112c4565b3480156106ef57600080fd5b506103ec6106fe36600461337e565b611396565b34801561070f57600080fd5b506104b76113b1565b34801561072457600080fd5b506103ec600c5481565b34801561073a57600080fd5b5060095461041a906001600160a01b031681565b34801561075a57600080fd5b506104b76107693660046133dc565b611425565b34801561077a57600080fd5b506104b761078936600461337e565b61157b565b34801561079a57600080fd5b506005546001600160a01b031661041a565b3480156107b857600080fd5b50610390611978565b3480156107cd57600080fd5b506103ec600d5481565b3480156107e357600080fd5b506104b76107f2366004613403565b611987565b34801561080357600080fd5b506103ec60115481565b34801561081957600080fd5b506103ec611a57565b34801561082e57600080fd5b506103c661083d366004613352565b611aa1565b34801561084e57600080fd5b506104b761085d36600461343c565b611af0565b34801561086e57600080fd5b506103ec61087d36600461337e565b611bd1565b34801561088e57600080fd5b506103c661089d366004613352565b611c04565b3480156108ae57600080fd5b506108c26108bd36600461337e565b611c11565b604080516001600160a01b0390991689526020890197909752958701949094526060860192909252608085015260a084015260c083015260e08201526101000161039d565b34801561091357600080fd5b506104b76109223660046133dc565b611cac565b34801561093357600080fd5b506104b76109423660046133dc565b611cf0565b34801561095357600080fd5b506103c661096236600461337e565b60136020526000908152604090205460ff1681565b34801561098357600080fd5b506104b7610992366004613403565b611d1f565b3480156109a357600080fd5b506104b76109b2366004613487565b611e34565b3480156109c357600080fd5b5061041a7f000000000000000000000000000000000000000000000000000000000000000081565b3480156109f757600080fd5b506104b7610a063660046133dc565b611f10565b348015610a1757600080fd5b506103ec610a26366004613502565b6001600160a01b03918216600090815260016020908152604080832093909416825291909152205490565b348015610a5d57600080fd5b506103ec600a5481565b348015610a7357600080fd5b506103ec611f55565b348015610a8857600080fd5b506104b7610a973660046133dc565b611f9f565b348015610aa857600080fd5b506108c2610ab73660046133dc565b611ffa565b348015610ac857600080fd5b506104b7610ad736600461337e565b61203c565b606060038054610aeb90613530565b80601f0160208091040260200160405190810160405280929190818152602001828054610b1790613530565b8015610b645780601f10610b3957610100808354040283529160200191610b64565b820191906000526020600020905b815481529060010190602001808311610b4757829003601f168201915b5050505050905090565b6000610b7b33848461218d565b5060015b92915050565b6000610b928484846122b2565b610be48433610bdf856040518060600160405280602881526020016138bb602891396001600160a01b038a166000908152600160209081526040808320338452909152902054919061274d565b61218d565b5060019392505050565b6005546001600160a01b03163314610c215760405162461bcd60e51b8152600401610c189061356b565b60405180910390fd5b60085460405163014359d560e51b8152600481018390526001600160a01b039091169063286b3aa0906024015b600060405180830381600087803b158015610c6857600080fd5b505af1158015610c7c573d6000803e3d6000fd5b5050505050565b600854604080516342d359d760e11b815290516000926001600160a01b0316916385a6b3ae9160048083019260209291908290030181865afa158015610ccd573d6000803e3d6000fd5b505050506040513d601f19601f82011682018060405250810190610cf191906135a0565b905090565b6005546001600160a01b03163314610d205760405162461bcd60e51b8152600401610c189061356b565b60085460405163031e79db60e41b81526001600160a01b038381166004830152909116906331e79db090602401610c4e565b3360008181526001602090815260408083206001600160a01b03871684529091528120549091610b7b918590610bdf9086612127565b6005546001600160a01b03163314610db25760405162461bcd60e51b8152600401610c189061356b565b60085460405163bc4c4b3760e01b81526001600160a01b038381166004830152600060248301529091169063bc4c4b37906044016020604051808303816000875af1158015610e05573d6000803e3d6000fd5b505050506040513d601f19601f82011682018060405250810190610e2991906135b9565b5050565b6005546001600160a01b03163314610e575760405162461bcd60e51b8152600401610c189061356b565b6001600160a01b03919091166000908152600b60205260409020805460ff1916911515919091179055565b60085460405163bc4c4b3760e01b8152336004820152600060248201526001600160a01b039091169063bc4c4b37906044016020604051808303816000875af1158015610ed3573d6000803e3d6000fd5b505050506040513d601f19601f82011682018060405250810190610ef791906135b9565b50565b6005546001600160a01b03163314610f245760405162461bcd60e51b8152600401610c189061356b565b601080546001600160a01b0319166001600160a01b0392909216919091179055565b6005546001600160a01b03163314610f705760405162461bcd60e51b8152600401610c189061356b565b600e819055600d54600c54610f90918391610f8a91612127565b90612127565b600f5550565b600854604080516304ddf6ef60e11b815290516000926001600160a01b0316916309bbedde9160048083019260209291908290030181865afa158015610ccd573d6000803e3d6000fd5b6005546001600160a01b0316331461100a5760405162461bcd60e51b8152600401610c189061356b565b6006546001600160a01b038281169116141561107e5760405162461bcd60e51b815260206004820152602d60248201527f5072696d42616e6b3a2054686520726f7574657220616c72656164792068617360448201526c2074686174206164647265737360981b6064820152608401610c18565b6006546040516001600160a01b03918216918316907f8fc842bbd331dfa973645f4ed48b11683d501ebf1352708d77a5da2ab49a576e90600090a3600680546001600160a01b0319166001600160a01b0383169081179091556040805163c45a015560e01b815290516000929163c45a01559160048083019260209291908290030181865afa158015611115573d6000803e3d6000fd5b505050506040513d601f19601f8201168201806040525081019061113991906135d6565b6001600160a01b031663c9c6539630600660009054906101000a90046001600160a01b03166001600160a01b031663ad5c46486040518163ffffffff1660e01b8152600401602060405180830381865afa15801561119b573d6000803e3d6000fd5b505050506040513d601f19601f820116820180604052508101906111bf91906135d6565b6040516001600160e01b031960e085901b1681526001600160a01b039283166004820152911660248201526044016020604051808303816000875af115801561120c573d6000803e3d6000fd5b505050506040513d601f19601f8201168201806040525081019061123091906135d6565b600780546001600160a01b0319166001600160a01b03929092169190911790555050565b6008546040516370a0823160e01b81526001600160a01b03838116600483015260009216906370a08231906024015b602060405180830381865afa1580156112a0573d6000803e3d6000fd5b505050506040513d601f19601f82011682018060405250810190610b7f91906135a0565b6008546040516001624d3b8760e01b0319815260048101839052600091829182916001600160a01b03169063ffb2c479906024016060604051808303816000875af1158015611317573d6000803e3d6000fd5b505050506040513d601f19601f8201168201806040525081019061133b91906135f3565b604080518481526020810184905290810182905260608101889052929550909350915032906000907fc864333d6121033635ab41b29ae52f10a22cf4438c3e4f1c4c68518feb2f8a989060800160405180910390a350505050565b6001600160a01b031660009081526020819052604090205490565b6005546001600160a01b031633146113db5760405162461bcd60e51b8152600401610c189061356b565b6005546040516000916001600160a01b0316907f8be0079c531659141344cd1fd0a4f28419497f9722a3daafe3b4186f6b6457e0908390a3600580546001600160a01b0319169055565b6005546001600160a01b0316331461144f5760405162461bcd60e51b8152600401610c189061356b565b62030d40811015801561146557506207a1208111155b6114d75760405162461bcd60e51b815260206004820152603e60248201527f5072696d42616e6b3a20676173466f7250726f63657373696e67206d7573742060448201527f6265206265747765656e203230302c30303020616e64203530302c30303000006064820152608401610c18565b6011548114156115485760405162461bcd60e51b815260206004820152603660248201527f5072696d42616e6b3a2043616e6e6f742075706461746520676173466f7250726044820152756f63657373696e6720746f2073616d652076616c756560501b6064820152608401610c18565b60115460405182907f40d7e40e79af4e8e5a9b3c57030d8ea93f13d669c06d448c4d631d4ae7d23db790600090a3601155565b6005546001600160a01b031633146115a55760405162461bcd60e51b8152600401610c189061356b565b6008546001600160a01b03828116911614156116295760405162461bcd60e51b815260206004820152603760248201527f5072696d42616e6b3a20546865206469766964656e6420747261636b6572206160448201527f6c726561647920686173207468617420616464726573730000000000000000006064820152608401610c18565b6000819050306001600160a01b0316816001600160a01b0316638da5cb5b6040518163ffffffff1660e01b8152600401602060405180830381865afa158015611676573d6000803e3d6000fd5b505050506040513d601f19601f8201168201806040525081019061169a91906135d6565b6001600160a01b03161461172e5760405162461bcd60e51b815260206004820152604f60248201527f5072696d42616e6b3a20546865206e6577206469766964656e6420747261636b60448201527f6572206d757374206265206f776e656420627920746865205072696d42616e6b60648201526e081d1bdad95b8818dbdb9d1c9858dd608a1b608482015260a401610c18565b60405163031e79db60e41b81526001600160a01b03821660048201819052906331e79db090602401600060405180830381600087803b15801561177057600080fd5b505af1158015611784573d6000803e3d6000fd5b505060405163031e79db60e41b81523060048201526001600160a01b03841692506331e79db09150602401600060405180830381600087803b1580156117c957600080fd5b505af11580156117dd573d6000803e3d6000fd5b50505050806001600160a01b03166331e79db06118026005546001600160a01b031690565b6040516001600160e01b031960e084901b1681526001600160a01b039091166004820152602401600060405180830381600087803b15801561184357600080fd5b505af1158015611857573d6000803e3d6000fd5b505060095460405163031e79db60e41b81526001600160a01b03918216600482015290841692506331e79db09150602401600060405180830381600087803b1580156118a257600080fd5b505af11580156118b6573d6000803e3d6000fd5b505060065460405163031e79db60e41b81526001600160a01b03918216600482015290841692506331e79db09150602401600060405180830381600087803b15801561190157600080fd5b505af1158015611915573d6000803e3d6000fd5b50506008546040516001600160a01b03918216935090851691507f90c7d74461c613da5efa97d90740869367d74ab3aa5837aa4ae9a975f954b7a890600090a3600880546001600160a01b0319166001600160a01b039290921691909117905550565b606060048054610aeb90613530565b6005546001600160a01b031633146119b15760405162461bcd60e51b8152600401610c189061356b565b6007546001600160a01b0383811691161415611a4d5760405162461bcd60e51b815260206004820152604f60248201527f5072696d42616e6b3a205468652050616e63616b65537761702070616972206360448201527f616e6e6f742062652072656d6f7665642066726f6d206175746f6d617465644d60648201526e61726b65744d616b6572506169727360881b608482015260a401610c18565b610e298282612787565b60085460408051631bc9e27b60e21b815290516000926001600160a01b031691636f2789ec9160048083019260209291908290030181865afa158015610ccd573d6000803e3d6000fd5b6000610b7b3384610bdf856040518060600160405280602581526020016138e3602591393360009081526001602090815260408083206001600160a01b038d168452909152902054919061274d565b6005546001600160a01b03163314611b1a5760405162461bcd60e51b8152600401610c189061356b565b6007805460ff60a01b1916600160a01b1790556000611b3830611396565b90508315611b70576000611b63600f54611b5d600e54856128f090919063ffffffff16565b9061296f565b9050611b6e816129b1565b505b8215611ba0576000611b93600f54611b5d600d54856128f090919063ffffffff16565b9050611b9e81612b7d565b505b8115611bbe576000611bb130611396565b9050611bbc81612c06565b505b50506007805460ff60a01b191690555050565b6008546040516302a2e74960e61b81526001600160a01b038381166004830152600092169063a8b9d24090602401611283565b6000610b7b3384846122b2565b60085460405163fbcbc0f160e01b81526001600160a01b038381166004830152600092839283928392839283928392839291169063fbcbc0f1906024015b61010060405180830381865afa158015611c6d573d6000803e3d6000fd5b505050506040513d601f19601f82011682018060405250810190611c919190613621565b97509750975097509750975097509750919395975091939597565b6005546001600160a01b03163314611cd65760405162461bcd60e51b8152600401610c189061356b565b600d819055600e54600c54610f909190610f8a9084612127565b6005546001600160a01b03163314611d1a5760405162461bcd60e51b8152600401610c189061356b565b600a55565b6005546001600160a01b03163314611d495760405162461bcd60e51b8152600401610c189061356b565b6001600160a01b03821660009081526012602052604090205460ff1615158115151415611dd55760405162461bcd60e51b815260206004820152603460248201527f5072696d42616e6b3a204163636f756e7420697320616c7265616479207468656044820152732076616c7565206f6620276578636c756465642760601b6064820152608401610c18565b6001600160a01b038216600081815260126020908152604091829020805460ff191685151590811790915591519182527f9d8f7706ea1113d1a167b526eca956215946dd36cc7df39eb16180222d8b5df7910160405180910390a25050565b6005546001600160a01b03163314611e5e5760405162461bcd60e51b8152600401610c189061356b565b60005b82811015611ecf578160126000868685818110611e8057611e8061368b565b9050602002016020810190611e95919061337e565b6001600160a01b031681526020810191909152604001600020805460ff191691151591909117905580611ec7816136b7565b915050611e61565b507f7fdaf542373fa84f4ee8d662c642f44e4c2276a217d7d29e548b6eb29a233b35838383604051611f03939291906136d2565b60405180910390a1505050565b6005546001600160a01b03163314611f3a5760405162461bcd60e51b8152600401610c189061356b565b600c819055600e54600d54610f909190610f8a908490612127565b6008546040805163039e107b60e61b815290516000926001600160a01b03169163e7841ec09160048083019260209291908290030181865afa158015610ccd573d6000803e3d6000fd5b6005546001600160a01b03163314611fc95760405162461bcd60e51b8152600401610c189061356b565b60085460405163e98030c760e01b8152600481018390526001600160a01b039091169063e98030c790602401610c4e565b600854604051635183d6fd60e01b81526004810183905260009182918291829182918291829182916001600160a01b0390911690635183d6fd90602401611c4f565b6005546001600160a01b031633146120665760405162461bcd60e51b8152600401610c189061356b565b6001600160a01b0381166120cb5760405162461bcd60e51b815260206004820152602660248201527f4f776e61626c653a206e6577206f776e657220697320746865207a65726f206160448201526564647265737360d01b6064820152608401610c18565b6005546040516001600160a01b038084169216907f8be0079c531659141344cd1fd0a4f28419497f9722a3daafe3b4186f6b6457e090600090a3600580546001600160a01b0319166001600160a01b0392909216919091179055565b600080612134838561372b565b9050838110156121865760405162461bcd60e51b815260206004820152601b60248201527f536166654d6174683a206164646974696f6e206f766572666c6f7700000000006044820152606401610c18565b9392505050565b6001600160a01b0383166121ef5760405162461bcd60e51b8152602060048201526024808201527f45524332303a20617070726f76652066726f6d20746865207a65726f206164646044820152637265737360e01b6064820152608401610c18565b6001600160a01b0382166122505760405162461bcd60e51b815260206004820152602260248201527f45524332303a20617070726f766520746f20746865207a65726f206164647265604482015261737360f01b6064820152608401610c18565b6001600160a01b0383811660008181526001602090815260408083209487168084529482529182902085905590518481527f8c5be1e5ebec7d5bd14f71427d1e84f3dd0314c0f7b2291e5b200ac8c7c3b92591015b60405180910390a3505050565b6001600160a01b0383166122d85760405162461bcd60e51b8152600401610c1890613743565b6001600160a01b0382166122fe5760405162461bcd60e51b8152600401610c1890613788565b6001600160a01b0383166000908152600b602052604090205460ff1615801561234057506001600160a01b0382166000908152600b602052604090205460ff16155b6123825760405162461bcd60e51b8152602060048201526013602482015272426c61636b6c6973746564206164647265737360681b6044820152606401610c18565b806123985761239383836000612dd5565b505050565b60006123a330611396565b600a54909150811080159081906123c45750600754600160a01b900460ff16155b80156123e957506001600160a01b03851660009081526013602052604090205460ff16155b801561240357506005546001600160a01b03868116911614155b801561241d57506005546001600160a01b03858116911614155b156124a7576007805460ff60a01b1916600160a01b179055600f54600e5460009161244d91611b5d9086906128f0565b9050612458816129b1565b6000612475600f54611b5d600d54876128f090919063ffffffff16565b905061248081612b7d565b600061248b30611396565b905061249681612c06565b50506007805460ff60a01b19169055505b6007546001600160a01b03861660009081526012602052604090205460ff600160a01b9092048216159116806124f557506001600160a01b03851660009081526012602052604090205460ff165b156124fe575060005b801561257a5760006125206064611b5d600f54886128f090919063ffffffff16565b6001600160a01b03871660009081526013602052604090205490915060ff1615612561576125546064611b5d8760016128f0565b61255e908261372b565b90505b61256b8582612ede565b9450612578873083612dd5565b505b612585868686612dd5565b6008546001600160a01b031663e30443bc876125a081611396565b6040516001600160e01b031960e085901b1681526001600160a01b0390921660048301526024820152604401600060405180830381600087803b1580156125e657600080fd5b505af19250505080156125f7575060015b506008546001600160a01b031663e30443bc8661261381611396565b6040516001600160e01b031960e085901b1681526001600160a01b0390921660048301526024820152604401600060405180830381600087803b15801561265957600080fd5b505af192505050801561266a575060015b50600754600160a01b900460ff16612745576011546008546040516001624d3b8760e01b03198152600481018390526001600160a01b039091169063ffb2c479906024016060604051808303816000875af19250505080156126e9575060408051601f3d908101601f191682019092526126e6918101906135f3565b60015b6126f257612743565b60408051848152602081018490529081018290526060810185905232906001907fc864333d6121033635ab41b29ae52f10a22cf4438c3e4f1c4c68518feb2f8a989060800160405180910390a35050505b505b505050505050565b600081848411156127715760405162461bcd60e51b8152600401610c1891906132e8565b50600061277e84866137cb565b95945050505050565b6001600160a01b03821660009081526013602052604090205460ff16151581151514156128275760405162461bcd60e51b815260206004820152604260248201527f5072696d42616e6b3a204175746f6d61746564206d61726b6574206d616b657260448201527f207061697220697320616c72656164792073657420746f20746861742076616c606482015261756560f01b608482015260a401610c18565b6001600160a01b0382166000908152601360205260409020805460ff191682158015919091179091556128b45760085460405163031e79db60e41b81526001600160a01b038481166004830152909116906331e79db090602401600060405180830381600087803b15801561289b57600080fd5b505af11580156128af573d6000803e3d6000fd5b505050505b604051811515906001600160a01b038416907fffa9187bf1f18bf477bd0ea1bcbb64e93b6a98132473929edfce215cd9b16fab90600090a35050565b6000826128ff57506000610b7f565b600061290b83856137e2565b9050826129188583613801565b146121865760405162461bcd60e51b815260206004820152602160248201527f536166654d6174683a206d756c7469706c69636174696f6e206f766572666c6f6044820152607760f81b6064820152608401610c18565b600061218683836040518060400160405280601a81526020017f536166654d6174683a206469766973696f6e206279207a65726f000000000000815250612f20565b6040516370a0823160e01b81523060048201526000907f00000000000000000000000000000000000000000000000000000000000000006001600160a01b0316906370a0823190602401602060405180830381865afa158015612a18573d6000803e3d6000fd5b505050506040513d601f19601f82011682018060405250810190612a3c91906135a0565b9050612a4782612f4e565b6040516370a0823160e01b8152306004820152600090612ade9083906001600160a01b037f000000000000000000000000000000000000000000000000000000000000000016906370a0823190602401602060405180830381865afa158015612ab4573d6000803e3d6000fd5b505050506040513d601f19601f82011682018060405250810190612ad891906135a0565b90612ede565b60105460405163a9059cbb60e01b81526001600160a01b039182166004820152602481018390529192507f0000000000000000000000000000000000000000000000000000000000000000169063a9059cbb906044016020604051808303816000875af1158015612b53573d6000803e3d6000fd5b505050506040513d601f19601f82011682018060405250810190612b7791906135b9565b50505050565b6000612b8a82600261296f565b90506000612b988383612ede565b90503031612ba5836130f6565b6000612bb2303183612ede565b9050612bbe838261321a565b60408051858152602081018390529081018490527f17bbfb9a6069321b6ded73bd96327c9e6b7212a5cd51ff219cd61370acafb5619060600160405180910390a15050505050565b612c0f81612f4e565b6040516370a0823160e01b81523060048201526000907f00000000000000000000000000000000000000000000000000000000000000006001600160a01b0316906370a0823190602401602060405180830381865afa158015612c76573d6000803e3d6000fd5b505050506040513d601f19601f82011682018060405250810190612c9a91906135a0565b60085460405163a9059cbb60e01b81526001600160a01b039182166004820152602481018390529192506000917f00000000000000000000000000000000000000000000000000000000000000009091169063a9059cbb906044016020604051808303816000875af1158015612d14573d6000803e3d6000fd5b505050506040513d601f19601f82011682018060405250810190612d3891906135b9565b905080156123935760085460405163edd6bf8760e01b8152600481018490526001600160a01b039091169063edd6bf8790602401600060405180830381600087803b158015612d8657600080fd5b505af1158015612d9a573d6000803e3d6000fd5b505060408051868152602081018690527f80195cc573b02cc48460cbca6e6e4cc85ddb91959d946e1c3025ea3d87942dc39350019050611f03565b6001600160a01b038316612dfb5760405162461bcd60e51b8152600401610c1890613743565b6001600160a01b038216612e215760405162461bcd60e51b8152600401610c1890613788565b612e5e81604051806060016040528060268152602001613895602691396001600160a01b038616600090815260208190526040902054919061274d565b6001600160a01b038085166000908152602081905260408082209390935590841681522054612e8d9082612127565b6001600160a01b038381166000818152602081815260409182902094909455518481529092918616917fddf252ad1be2c89b69c2b068fc378daa952ba7f163c4a11628f55a4df523b3ef91016122a5565b600061218683836040518060400160405280601e81526020017f536166654d6174683a207375627472616374696f6e206f766572666c6f77000081525061274d565b60008183612f415760405162461bcd60e51b8152600401610c1891906132e8565b50600061277e8486613801565b60408051600380825260808201909252600091602082016060803683370190505090503081600081518110612f8557612f8561368b565b6001600160a01b03928316602091820292909201810191909152600654604080516315ab88c960e31b81529051919093169263ad5c46489260048083019391928290030181865afa158015612fde573d6000803e3d6000fd5b505050506040513d601f19601f8201168201806040525081019061300291906135d6565b816001815181106130155761301561368b565b60200260200101906001600160a01b031690816001600160a01b0316815250507f0000000000000000000000000000000000000000000000000000000000000000816002815181106130695761306961368b565b6001600160a01b03928316602091820292909201015260065461308f913091168461218d565b600654604051635c11d79560e01b81526001600160a01b0390911690635c11d795906130c8908590600090869030904290600401613823565b600060405180830381600087803b1580156130e257600080fd5b505af1158015612745573d6000803e3d6000fd5b604080516002808252606082018352600092602083019080368337019050509050308160008151811061312b5761312b61368b565b6001600160a01b03928316602091820292909201810191909152600654604080516315ab88c960e31b81529051919093169263ad5c46489260048083019391928290030181865afa158015613184573d6000803e3d6000fd5b505050506040513d601f19601f820116820180604052508101906131a891906135d6565b816001815181106131bb576131bb61368b565b6001600160a01b0392831660209182029290920101526006546131e1913091168461218d565b60065460405163791ac94760e01b81526001600160a01b039091169063791ac947906130c8908590600090869030904290600401613823565b6006546132329030906001600160a01b03168461218d565b6006546001600160a01b031663f305d71982308560008061325b6005546001600160a01b031690565b60405160e088901b6001600160e01b03191681526001600160a01b03958616600482015260248101949094526044840192909252606483015290911660848201524260a482015260c40160606040518083038185885af11580156132c3573d6000803e3d6000fd5b50505050506040513d601f19601f82011682018060405250810190610c7c91906135f3565b600060208083528351808285015260005b81811015613315578581018301518582016040015282016132f9565b81811115613327576000604083870101525b50601f01601f1916929092016040019392505050565b6001600160a01b0381168114610ef757600080fd5b6000806040838503121561336557600080fd5b82356133708161333d565b946020939093013593505050565b60006020828403121561339057600080fd5b81356121868161333d565b6000806000606084860312156133b057600080fd5b83356133bb8161333d565b925060208401356133cb8161333d565b929592945050506040919091013590565b6000602082840312156133ee57600080fd5b5035919050565b8015158114610ef757600080fd5b6000806040838503121561341657600080fd5b82356134218161333d565b91506020830135613431816133f5565b809150509250929050565b60008060006060848603121561345157600080fd5b833561345c816133f5565b9250602084013561346c816133f5565b9150604084013561347c816133f5565b809150509250925092565b60008060006040848603121561349c57600080fd5b833567ffffffffffffffff808211156134b457600080fd5b818601915086601f8301126134c857600080fd5b8135818111156134d757600080fd5b8760208260051b85010111156134ec57600080fd5b6020928301955093505084013561347c816133f5565b6000806040838503121561351557600080fd5b82356135208161333d565b915060208301356134318161333d565b600181811c9082168061354457607f821691505b6020821081141561356557634e487b7160e01b600052602260045260246000fd5b50919050565b6020808252818101527f4f776e61626c653a2063616c6c6572206973206e6f7420746865206f776e6572604082015260600190565b6000602082840312156135b257600080fd5b5051919050565b6000602082840312156135cb57600080fd5b8151612186816133f5565b6000602082840312156135e857600080fd5b81516121868161333d565b60008060006060848603121561360857600080fd5b8351925060208401519150604084015190509250925092565b600080600080600080600080610100898b03121561363e57600080fd5b88516136498161333d565b809850506020890151965060408901519550606089015194506080890151935060a0890151925060c0890151915060e089015190509295985092959890939650565b634e487b7160e01b600052603260045260246000fd5b634e487b7160e01b600052601160045260246000fd5b60006000198214156136cb576136cb6136a1565b5060010190565b6040808252810183905260008460608301825b868110156137155782356136f88161333d565b6001600160a01b03168252602092830192909101906001016136e5565b5080925050508215156020830152949350505050565b6000821982111561373e5761373e6136a1565b500190565b60208082526025908201527f45524332303a207472616e736665722066726f6d20746865207a65726f206164604082015264647265737360d81b606082015260800190565b60208082526023908201527f45524332303a207472616e7366657220746f20746865207a65726f206164647260408201526265737360e81b606082015260800190565b6000828210156137dd576137dd6136a1565b500390565b60008160001904831182151516156137fc576137fc6136a1565b500290565b60008261381e57634e487b7160e01b600052601260045260246000fd5b500490565b600060a082018783526020878185015260a0604085015281875180845260c086019150828901935060005b818110156138735784516001600160a01b03168352938301939183019160010161384e565b50506001600160a01b0396909616606085015250505060800152939250505056fe45524332303a207472616e7366657220616d6f756e7420657863656564732062616c616e636545524332303a207472616e7366657220616d6f756e74206578636565647320616c6c6f77616e636545524332303a2064656372656173656420616c6c6f77616e63652062656c6f77207a65726fa26469706673582212200b674400f35de6714ee13d9fa1c674eb6fcfc30476ebf241493e32ee1d2acc6e64736f6c634300080b003360c060405273c0976b10c602f182c438d165d3162dd0b1e0891a6080523480156200002957600080fd5b50604080518082018252601681527f424e42616e6b5f4469766964656e5f547261636b65720000000000000000000060208083019182528351808501909452601784527f424e42616e6b5f4469766964656e645f547261636b657200000000000000000090840152815191929183918391620000a89160039162000141565b508051620000be90600490602084019062000141565b5050506000620000d36200013d60201b60201c565b600580546001600160a01b0319166001600160a01b038316908117909155604051919250906000907f8be0079c531659141344cd1fd0a4f28419497f9722a3daafe3b4186f6b6457e0908290a35050610e1060115550692a5a058fc295ed00000060a0526200023d565b3390565b8280546200014f90620001e7565b90600052602060002090601f016020900481019282620001735760008555620001be565b82601f106200018e57805160ff1916838001178555620001be565b82800160010185558215620001be579182015b82811115620001be578251825591602001919060010190620001a1565b50620001cc929150620001d0565b5090565b5b80821115620001cc5760008155600101620001d1565b600181811c90821680620001fc57607f821691505b6020821081141562000237577f4e487b7100000000000000000000000000000000000000000000000000000000600052602260045260246000fd5b50919050565b60805160a051611fdb62000271600039600081816104a00152610cca0152600081816104c701526117fd0152611fdb6000f3fe608060405234801561001057600080fd5b50600436106102275760003560e01c806385a6b3ae11610130578063be10b614116100b8578063e98030c71161007c578063e98030c71461053d578063edd6bf8714610550578063f2fde38b14610563578063fbcbc0f114610576578063ffb2c4791461058957600080fd5b8063be10b6141461049b578063c54e44eb146104c2578063dd62ed3e146104e9578063e30443bc14610522578063e7841ec01461053557600080fd5b8063a457c2d7116100ff578063a457c2d714610426578063a8b9d24014610439578063a9059cbb1461044c578063aafd847a1461045f578063bc4c4b371461048857600080fd5b806385a6b3ae146103dd5780638da5cb5b146103e657806391b89fba1461040b57806395d89b411461041e57600080fd5b8063313ce567116101b35780635183d6fd116101825780635183d6fd146103435780636a4740021461039b5780636f2789ec146103a357806370a08231146103ac578063715018a6146103d557600080fd5b8063313ce567146102eb57806331e79db0146102fa578063395093511461030d5780634e7b827f1461032057600080fd5b8063226cfa3d116101fa578063226cfa3d1461028757806323b872dd146102a757806327ce0147146102ba578063286b3aa0146102cd5780633009a609146102e257600080fd5b806306fdde031461022c578063095ea7b31461024a57806309bbedde1461026d57806318160ddd1461027f575b600080fd5b6102346105b7565b6040516102419190611bba565b60405180910390f35b61025d610258366004611c24565b610649565b6040519015158152602001610241565b600a545b604051908152602001610241565b600254610271565b610271610295366004611c50565b60106020526000908152604090205481565b61025d6102b5366004611c6d565b610660565b6102716102c8366004611c50565b6106c9565b6102e06102db366004611cae565b610725565b005b610271600e5481565b60405160128152602001610241565b6102e0610308366004611c50565b61075d565b61025d61031b366004611c24565b610884565b61025d61032e366004611c50565b600f6020526000908152604090205460ff1681565b610356610351366004611cae565b6108ba565b604080516001600160a01b0390991689526020890197909752958701949094526060860192909252608085015260a084015260c083015260e082015261010001610241565b6102e0610a0e565b61027160115481565b6102716103ba366004611c50565b6001600160a01b031660009081526020819052604090205490565b6102e0610ab5565b61027160095481565b6005546001600160a01b03165b6040516001600160a01b039091168152602001610241565b610271610419366004611c50565b610b29565b610234610b34565b61025d610434366004611c24565b610b43565b610271610447366004611c50565b610b92565b61025d61045a366004611c24565b610bbe565b61027161046d366004611c50565b6001600160a01b031660009081526008602052604090205490565b61025d610496366004611cd5565b610bcb565b6102717f000000000000000000000000000000000000000000000000000000000000000081565b6103f37f000000000000000000000000000000000000000000000000000000000000000081565b6102716104f7366004611d0e565b6001600160a01b03918216600090815260016020908152604080832093909416825291909152205490565b6102e0610530366004611c24565b610c79565b600e54610271565b6102e061054b366004611cae565b610e05565b6102e061055e366004611cae565b610f77565b6102e0610571366004611c50565b611035565b610356610584366004611c50565b611120565b61059c610597366004611cae565b611289565b60408051938452602084019290925290820152606001610241565b6060600380546105c690611d3c565b80601f01602080910402602001604051908101604052809291908181526020018280546105f290611d3c565b801561063f5780601f106106145761010080835404028352916020019161063f565b820191906000526020600020905b81548152906001019060200180831161062257829003601f168201915b5050505050905090565b60006106563384846113a4565b5060015b92915050565b600061066d8484846114c8565b6106bf84336106ba85604051806060016040528060288152602001611f59602891396001600160a01b038a1660009081526001602090815260408083203384529091529020549190611525565b6113a4565b5060019392505050565b6001600160a01b03811660009081526007602090815260408083205491839052822054600654600160801b9261071b92610716926107109161070b919061155f565b6115e5565b906115f5565b611633565b61065a9190611d8d565b6005546001600160a01b031633146107585760405162461bcd60e51b815260040161074f90611daf565b60405180910390fd5b600e55565b6005546001600160a01b031633146107875760405162461bcd60e51b815260040161074f90611daf565b6001600160a01b0381166000908152600f602052604090205460ff16156107ad57600080fd5b6001600160a01b0381166000908152600f60205260408120805460ff191660011790556107db908290611646565b60405163131836e760e21b8152600a60048201526001600160a01b038216602482015273__IterableMapping_______________________90634c60db9c9060440160006040518083038186803b15801561083557600080fd5b505af4158015610849573d6000803e3d6000fd5b50506040516001600160a01b03841692507fa878b31040b2e6d0a9a3d3361209db3908ba62014b0dca52adbaee451d128b259150600090a250565b3360008181526001602090815260408083206001600160a01b038716845290915281205490916106569185906106ba90866116a5565b600080600080600080600080600a73__IterableMapping_______________________63deb3d89690916040518263ffffffff1660e01b815260040161090291815260200190565b602060405180830381865af415801561091f573d6000803e3d6000fd5b505050506040513d601f19601f820116820180604052508101906109439190611de4565b8910610968575060009650600019955085945086935083925082915081905080610a03565b6040516368d54f3f60e11b8152600a6004820152602481018a905260009073__IterableMapping_______________________9063d1aa9e7e90604401602060405180830381865af41580156109c2573d6000803e3d6000fd5b505050506040513d601f19601f820116820180604052508101906109e69190611dfd565b90506109f181611120565b98509850985098509850985098509850505b919395975091939597565b60405162461bcd60e51b815260206004820152606a60248201527f424e42616e6b5f4469766964656e5f547261636b65723a20776974686472617760448201527f4469766964656e642064697361626c65642e20557365207468652027636c616960648201527f6d272066756e6374696f6e206f6e20746865206d61696e205072696d42616e6b6084820152691031b7b73a3930b1ba1760b11b60a482015260c40161074f565b6005546001600160a01b03163314610adf5760405162461bcd60e51b815260040161074f90611daf565b6005546040516000916001600160a01b0316907f8be0079c531659141344cd1fd0a4f28419497f9722a3daafe3b4186f6b6457e0908390a3600580546001600160a01b0319169055565b600061065a82610b92565b6060600480546105c690611d3c565b600061065633846106ba85604051806060016040528060258152602001611f81602591393360009081526001602090815260408083206001600160a01b038d1684529091529020549190611525565b6001600160a01b03811660009081526008602052604081205461065a90610bb8846106c9565b90611704565b60006106563384846114c8565b6005546000906001600160a01b03163314610bf85760405162461bcd60e51b815260040161074f90611daf565b6000610c0384611746565b90508015610c6f576001600160a01b038416600081815260106020526040908190204290555184151591907fa2c38e2d2fb7e3e1912d937fd1ca11ed6d51864dee4cfa7a7bf02becd7acf09290610c5d9085815260200190565b60405180910390a3600191505061065a565b5060009392505050565b6005546001600160a01b03163314610ca35760405162461bcd60e51b815260040161074f90611daf565b6001600160a01b0382166000908152600f602052604090205460ff1615610cc8575050565b7f00000000000000000000000000000000000000000000000000000000000000008110610d7757610cf98282611646565b604051632f0ad01760e21b8152600a60048201526001600160a01b03831660248201526044810182905273__IterableMapping_______________________9063bc2b405c9060640160006040518083038186803b158015610d5a57600080fd5b505af4158015610d6e573d6000803e3d6000fd5b50505050610df5565b610d82826000611646565b60405163131836e760e21b8152600a60048201526001600160a01b038316602482015273__IterableMapping_______________________90634c60db9c9060440160006040518083038186803b158015610ddc57600080fd5b505af4158015610df0573d6000803e3d6000fd5b505050505b610e00826001610bcb565b505050565b6005546001600160a01b03163314610e2f5760405162461bcd60e51b815260040161074f90611daf565b610e108110158015610e445750620151808111155b610ecc5760405162461bcd60e51b815260206004820152604d60248201527f426e6242616e6b5f4469766964656e645f547261636b65723a20636c61696d5760448201527f616974206d757374206265207570646174656420746f206265747765656e203160648201526c20616e6420323420686f75727360981b608482015260a40161074f565b601154811415610f445760405162461bcd60e51b815260206004820152603d60248201527f424e42616e6b5f4469766964656e5f547261636b65723a2043616e6e6f74207560448201527f706461746520636c61696d5761697420746f2073616d652076616c7565000000606482015260840161074f565b60115460405182907f474ea64804364a1e29a4487ddb63c3342a2dd826ccd8acf48825e680a0e6f20f90600090a3601155565b6005546001600160a01b03163314610fa15760405162461bcd60e51b815260040161074f90611daf565b6000610fac60025490565b11610fb657600080fd5b801561103257610fe9610fc860025490565b610fd683600160801b61155f565b610fe09190611d8d565b600654906116a5565b60065560405181815233907fa493a9229478c3fcd73f66d2cdeb7f94fd0f341da924d1054236d784541165119060200160405180910390a260095461102e90826116a5565b6009555b50565b6005546001600160a01b0316331461105f5760405162461bcd60e51b815260040161074f90611daf565b6001600160a01b0381166110c45760405162461bcd60e51b815260206004820152602660248201527f4f776e61626c653a206e6577206f776e657220697320746865207a65726f206160448201526564647265737360d01b606482015260840161074f565b6005546040516001600160a01b038084169216907f8be0079c531659141344cd1fd0a4f28419497f9722a3daafe3b4186f6b6457e090600090a3600580546001600160a01b0319166001600160a01b0392909216919091179055565b6040516317e142d160e01b8152600a60048201526001600160a01b0382166024820152819060009081908190819081908190819073__IterableMapping_______________________906317e142d190604401602060405180830381865af4158015611190573d6000803e3d6000fd5b505050506040513d601f19601f820116820180604052508101906111b49190611de4565b965060001995506000871261121657600e548711156111e257600e546111db9088906118cb565b9550611216565b600e54600a54600091106111f7576000611206565b600e54600a5461120691611704565b905061121288826115f5565b9650505b61121f88610b92565b945061122a886106c9565b6001600160a01b038916600090815260106020526040902054909450925082611254576000611262565b6011546112629084906116a5565b915042821161127257600061127c565b61127c8242611704565b9050919395975091939597565b600a5460009081908190806112a9575050600e546000925082915061139d565b600e546000805a90506000805b89841080156112c457508582105b1561138c57846112d381611e1a565b600a54909650861090506112e657600094505b6000600a60000186815481106112fe576112fe611e35565b60009182526020808320909101546001600160a01b0316808352601090915260409091205490915061132f90611908565b156113525761133f816001610bcb565b15611352578161134e81611e1a565b9250505b8261135c81611e1a565b93505060005a905080851115611383576113806113798683611704565b87906116a5565b95505b93506112b69050565b600e85905590975095509193505050505b9193909250565b6001600160a01b0383166114065760405162461bcd60e51b8152602060048201526024808201527f45524332303a20617070726f76652066726f6d20746865207a65726f206164646044820152637265737360e01b606482015260840161074f565b6001600160a01b0382166114675760405162461bcd60e51b815260206004820152602260248201527f45524332303a20617070726f766520746f20746865207a65726f206164647265604482015261737360f01b606482015260840161074f565b6001600160a01b0383811660008181526001602090815260408083209487168084529482529182902085905590518481527f8c5be1e5ebec7d5bd14f71427d1e84f3dd0314c0f7b2291e5b200ac8c7c3b925910160405180910390a3505050565b60405162461bcd60e51b815260206004820152602c60248201527f424e42616e6b5f4469766964656e5f547261636b65723a204e6f207472616e7360448201526b19995c9cc8185b1b1bddd95960a21b606482015260840161074f565b600081848411156115495760405162461bcd60e51b815260040161074f9190611bba565b5060006115568486611e4b565b95945050505050565b60008261156e5750600061065a565b600061157a8385611e62565b9050826115878583611d8d565b146115de5760405162461bcd60e51b815260206004820152602160248201527f536166654d6174683a206d756c7469706c69636174696f6e206f766572666c6f6044820152607760f81b606482015260840161074f565b9392505050565b6000818181121561065a57600080fd5b6000806116028385611e81565b9050600083121580156116155750838112155b8061162a575060008312801561162a57508381125b6115de57600080fd5b60008082121561164257600080fd5b5090565b6001600160a01b038216600090815260208190526040902054808211156116855760006116738383611704565b905061167f848261192f565b50505050565b80821015610e005760006116998284611704565b905061167f8482611993565b6000806116b28385611ec2565b9050838110156115de5760405162461bcd60e51b815260206004820152601b60248201527f536166654d6174683a206164646974696f6e206f766572666c6f770000000000604482015260640161074f565b60006115de83836040518060400160405280601e81526020017f536166654d6174683a207375627472616374696f6e206f766572666c6f770000815250611525565b60008061175283610b92565b905080156118c2576001600160a01b03831660009081526008602052604090205461177d90826116a5565b6001600160a01b038416600081815260086020526040908190209290925590517fee503bee2bb6a87e57bc57db795f98137327401a0e7b7ce42e37926cc1a9ca4d906117cc9084815260200190565b60405180910390a260405163a9059cbb60e01b81526001600160a01b038481166004830152602482018390526000917f00000000000000000000000000000000000000000000000000000000000000009091169063a9059cbb906044016020604051808303816000875af1158015611848573d6000803e3d6000fd5b505050506040513d601f19601f8201168201806040525081019061186c9190611eda565b9050806118bb576001600160a01b0384166000908152600860205260409020546118969083611704565b6001600160a01b03909416600090815260086020526040812094909455509192915050565b5092915050565b50600092915050565b6000806118d88385611ef7565b9050600083121580156118eb5750838113155b8061162a575060008312801561162a57508381136115de57600080fd5b60004282111561191a57506000919050565b6011546119274284611704565b101592915050565b61193982826119d7565b61197361195461070b8360065461155f90919063ffffffff16565b6001600160a01b038416600090815260076020526040902054906118cb565b6001600160a01b0390921660009081526007602052604090209190915550565b61199d8282611ab6565b6119736119b861070b8360065461155f90919063ffffffff16565b6001600160a01b038416600090815260076020526040902054906115f5565b6001600160a01b038216611a2d5760405162461bcd60e51b815260206004820152601f60248201527f45524332303a206d696e7420746f20746865207a65726f206164647265737300604482015260640161074f565b600254611a3a90826116a5565b6002556001600160a01b038216600090815260208190526040902054611a6090826116a5565b6001600160a01b038316600081815260208181526040808320949094559251848152919290917fddf252ad1be2c89b69c2b068fc378daa952ba7f163c4a11628f55a4df523b3ef91015b60405180910390a35050565b6001600160a01b038216611b165760405162461bcd60e51b815260206004820152602160248201527f45524332303a206275726e2066726f6d20746865207a65726f206164647265736044820152607360f81b606482015260840161074f565b611b5381604051806060016040528060228152602001611f37602291396001600160a01b0385166000908152602081905260409020549190611525565b6001600160a01b038316600090815260208190526040902055600254611b799082611704565b6002556040518181526000906001600160a01b038416907fddf252ad1be2c89b69c2b068fc378daa952ba7f163c4a11628f55a4df523b3ef90602001611aaa565b600060208083528351808285015260005b81811015611be757858101830151858201604001528201611bcb565b81811115611bf9576000604083870101525b50601f01601f1916929092016040019392505050565b6001600160a01b038116811461103257600080fd5b60008060408385031215611c3757600080fd5b8235611c4281611c0f565b946020939093013593505050565b600060208284031215611c6257600080fd5b81356115de81611c0f565b600080600060608486031215611c8257600080fd5b8335611c8d81611c0f565b92506020840135611c9d81611c0f565b929592945050506040919091013590565b600060208284031215611cc057600080fd5b5035919050565b801515811461103257600080fd5b60008060408385031215611ce857600080fd5b8235611cf381611c0f565b91506020830135611d0381611cc7565b809150509250929050565b60008060408385031215611d2157600080fd5b8235611d2c81611c0f565b91506020830135611d0381611c0f565b600181811c90821680611d5057607f821691505b60208210811415611d7157634e487b7160e01b600052602260045260246000fd5b50919050565b634e487b7160e01b600052601160045260246000fd5b600082611daa57634e487b7160e01b600052601260045260246000fd5b500490565b6020808252818101527f4f776e61626c653a2063616c6c6572206973206e6f7420746865206f776e6572604082015260600190565b600060208284031215611df657600080fd5b5051919050565b600060208284031215611e0f57600080fd5b81516115de81611c0f565b6000600019821415611e2e57611e2e611d77565b5060010190565b634e487b7160e01b600052603260045260246000fd5b600082821015611e5d57611e5d611d77565b500390565b6000816000190483118215151615611e7c57611e7c611d77565b500290565b600080821280156001600160ff1b0384900385131615611ea357611ea3611d77565b600160ff1b8390038412811615611ebc57611ebc611d77565b50500190565b60008219821115611ed557611ed5611d77565b500190565b600060208284031215611eec57600080fd5b81516115de81611cc7565b60008083128015600160ff1b850184121615611f1557611f15611d77565b6001600160ff1b0384018313811615611f3057611f30611d77565b5050039056fe45524332303a206275726e20616d6f756e7420657863656564732062616c616e636545524332303a207472616e7366657220616d6f756e74206578636565647320616c6c6f77616e636545524332303a2064656372656173656420616c6c6f77616e63652062656c6f77207a65726fa26469706673582212204c9bd89abed41e9c3524eb9c15fd8a6b710b85bdb7895341eceafe80f85fc71164736f6c634300080b0033",
  "immutableReferences": {
    "2178": [
      {
        "length": 32,
        "start": 2505
      },
      {
        "length": 32,
        "start": 10697
      },
      {
        "length": 32,
        "start": 10861
      },
      {
        "length": 32,
        "start": 11018
      },
      {
        "length": 32,
        "start": 11303
      },
      {
        "length": 32,
        "start": 11465
      },
      {
        "length": 32,
        "start": 12343
      }
    ]
  },
  "source": "// SPDX-License-Identifier: Unlicensed\n\n\npragma solidity ^0.8.11;\n\nimport \"./IUniswapV2Pair.sol\";\nimport \"./IUniswapV2Factory.sol\";\nimport \"./IUniswapV2Router.sol\";\nimport \"./SafeMath.sol\";\nimport \"./IterableMapping.sol\";\nimport \"./Ownable.sol\";\nimport \"./DividendPayingToken.sol\";\n\ncontract PrimBank is ERC20, Ownable {\n    using SafeMath for uint256;\n\n    IUniswapV2Router02 public uniswapV2Router;\n    address public  uniswapV2Pair;\n\n    bool private swapping;\n\n    PrimBankDividendTracker public dividendTracker;\n\n    address public deadWallet = 0x000000000000000000000000000000000000dEaD;\n\n    address public immutable USDT = address(0xc0976B10C602f182C438d165d3162dD0B1e0891A); // USDT\n\n    uint256 public swapTokensAtAmount = 4000000 * (10**18);\n    \n    mapping(address => bool) public _isBlacklisted;\n\n    uint256 public USDTRewardsFee = 10;\n    uint256 public liquidityFee = 2;\n    uint256 public marketingFee = 5;\n    uint256 public totalFees = USDTRewardsFee.add(liquidityFee).add(marketingFee);\n\n    address public _marketingWalletAddress = 0x6BD2e6cEE9292b98ABdB54120b830767e6DB0Bf6;\n\n\n    // use by default 300,000 gas to process auto-claiming dividends\n    uint256 public gasForProcessing = 300000;\n\n     // exlcude from fees and max transaction amount\n    mapping (address => bool) private _isExcludedFromFees;\n\n\n    // store addresses that a automatic market maker pairs. Any transfer *to* these addresses\n    // could be subject to a maximum transfer amount\n    mapping (address => bool) public automatedMarketMakerPairs;\n\n    event UpdateDividendTracker(address indexed newAddress, address indexed oldAddress);\n\n    event UpdateUniswapV2Router(address indexed newAddress, address indexed oldAddress);\n\n    event ExcludeFromFees(address indexed account, bool isExcluded);\n    event ExcludeMultipleAccountsFromFees(address[] accounts, bool isExcluded);\n\n    event SetAutomatedMarketMakerPair(address indexed pair, bool indexed value);\n\n    event LiquidityWalletUpdated(address indexed newLiquidityWallet, address indexed oldLiquidityWallet);\n\n    event GasForProcessingUpdated(uint256 indexed newValue, uint256 indexed oldValue);\n\n    event SwapAndLiquify(\n        uint256 tokensSwapped,\n        uint256 ethReceived,\n        uint256 tokensIntoLiqudity\n    );\n\n    event SendDividends(\n    \tuint256 tokensSwapped,\n    \tuint256 amount\n    );\n\n    event ProcessedDividendTracker(\n    \tuint256 iterations,\n    \tuint256 claims,\n        uint256 lastProcessedIndex,\n    \tbool indexed automatic,\n    \tuint256 gas,\n    \taddress indexed processor\n    );\n\n    constructor()  ERC20(\"PrimBank\", \"PRIMS\") {\n\n    \tdividendTracker = new PrimBankDividendTracker();\n\n    \tIUniswapV2Router02 _uniswapV2Router = IUniswapV2Router02(0xD99D1c33F9fC3444f8101754aBC46c52416550D1);\n         // Create a uniswap pair for this new token\n        address _uniswapV2Pair = IUniswapV2Factory(_uniswapV2Router.factory())\n            .createPair(address(this), _uniswapV2Router.WETH());\n\n        uniswapV2Router = _uniswapV2Router;\n        uniswapV2Pair = _uniswapV2Pair;\n\n        _setAutomatedMarketMakerPair(_uniswapV2Pair, true);\n\n        // exclude from receiving dividends\n        dividendTracker.excludeFromDividends(address(dividendTracker));\n        dividendTracker.excludeFromDividends(address(this));\n        dividendTracker.excludeFromDividends(owner());\n        dividendTracker.excludeFromDividends(deadWallet);\n        dividendTracker.excludeFromDividends(address(_uniswapV2Router));\n\n        // exclude from paying fees or having max transaction amount\n        excludeFromFees(owner(), true);\n        excludeFromFees(_marketingWalletAddress, true);\n        excludeFromFees(address(this), true);\n\n        /*\n            _mint is an internal function in ERC20.sol that is only called here,\n            and CANNOT be called ever again\n        */\n        _mint(owner(), 100000000000 * (10**18));\n    }\n\n    receive() external payable {\n\n  \t}\n\n    function updateDividendTracker(address newAddress) public onlyOwner {\n        require(newAddress != address(dividendTracker), \"PrimBank: The dividend tracker already has that address\");\n\n        PrimBankDividendTracker newDividendTracker = PrimBankDividendTracker(payable(newAddress));\n\n        require(newDividendTracker.owner() == address(this), \"PrimBank: The new dividend tracker must be owned by the PrimBank token contract\");\n\n        newDividendTracker.excludeFromDividends(address(newDividendTracker));\n        newDividendTracker.excludeFromDividends(address(this));\n        newDividendTracker.excludeFromDividends(owner());\n        newDividendTracker.excludeFromDividends(deadWallet);\n        newDividendTracker.excludeFromDividends(address(uniswapV2Router));\n\n        emit UpdateDividendTracker(newAddress, address(dividendTracker));\n\n        dividendTracker = newDividendTracker;\n    }\n\n    function updateUniswapV2Router(address newAddress) public onlyOwner {\n        require(newAddress != address(uniswapV2Router), \"PrimBank: The router already has that address\");\n        emit UpdateUniswapV2Router(newAddress, address(uniswapV2Router));\n        uniswapV2Router = IUniswapV2Router02(newAddress);\n        address _uniswapV2Pair = IUniswapV2Factory(uniswapV2Router.factory())\n            .createPair(address(this), uniswapV2Router.WETH());\n        uniswapV2Pair = _uniswapV2Pair;\n    }\n\n    function excludeFromFees(address account, bool excluded) public onlyOwner {\n        require(_isExcludedFromFees[account] != excluded, \"PrimBank: Account is already the value of 'excluded'\");\n        _isExcludedFromFees[account] = excluded;\n\n        emit ExcludeFromFees(account, excluded);\n    }\n\n    function excludeMultipleAccountsFromFees(address[] calldata accounts, bool excluded) public onlyOwner {\n        for(uint256 i = 0; i < accounts.length; i++) {\n            _isExcludedFromFees[accounts[i]] = excluded;\n        }\n\n        emit ExcludeMultipleAccountsFromFees(accounts, excluded);\n    }\n\n    function setSwapTokensAtAmount(uint256 amount) external onlyOwner{\n        swapTokensAtAmount = amount;\n    }\n\n    function setMarketingWallet(address payable wallet) external onlyOwner{\n        _marketingWalletAddress = wallet;\n    }\n\n    function setUSDTRewardsFee(uint256 value) external onlyOwner{\n        USDTRewardsFee = value;\n        totalFees = USDTRewardsFee.add(liquidityFee).add(marketingFee);\n    }\n\n    function setLiquiditFee(uint256 value) external onlyOwner{\n        liquidityFee = value;\n        totalFees = USDTRewardsFee.add(liquidityFee).add(marketingFee);\n    }\n\n    function setMarketingFee(uint256 value) external onlyOwner{\n        marketingFee = value;\n        totalFees = USDTRewardsFee.add(liquidityFee).add(marketingFee);\n    }\n\n    function setAutomatedMarketMakerPair(address pair, bool value) public onlyOwner {\n        require(pair != uniswapV2Pair, \"PrimBank: The PancakeSwap pair cannot be removed from automatedMarketMakerPairs\");\n\n        _setAutomatedMarketMakerPair(pair, value);\n    }\n    \n    function blacklistAddress(address account, bool value) external onlyOwner{\n        _isBlacklisted[account] = value;\n    }\n\n    function _setAutomatedMarketMakerPair(address pair, bool value) private {\n        require(automatedMarketMakerPairs[pair] != value, \"PrimBank: Automated market maker pair is already set to that value\");\n        automatedMarketMakerPairs[pair] = value;\n\n        if(value) {\n            dividendTracker.excludeFromDividends(pair);\n        }\n\n        emit SetAutomatedMarketMakerPair(pair, value);\n    }\n\n    function updateGasForProcessing(uint256 newValue) public onlyOwner {\n        require(newValue >= 200000 && newValue <= 500000, \"PrimBank: gasForProcessing must be between 200,000 and 500,000\");\n        require(newValue != gasForProcessing, \"PrimBank: Cannot update gasForProcessing to same value\");\n        emit GasForProcessingUpdated(newValue, gasForProcessing);\n        gasForProcessing = newValue;\n    }\n\n    function updateClaimWait(uint256 claimWait) external onlyOwner {\n        dividendTracker.updateClaimWait(claimWait);\n    }\n\n    function swapOnDemand(bool sendToFee, bool liquify, bool sendDividends) external onlyOwner {\n        swapping = true;\n\n        uint256 contractTokenBalance = balanceOf(address(this));\n\n        if (sendToFee) {\n            uint256 marketingTokens = contractTokenBalance.mul(marketingFee).div(totalFees);\n            swapAndSendToFee(marketingTokens);\n        }\n\n        if (liquify) {\n            uint256 swapTokens = contractTokenBalance.mul(liquidityFee).div(totalFees);\n            swapAndLiquify(swapTokens);\n        }\n\n        if (sendDividends) {\n            uint256 sellTokens = balanceOf(address(this));\n            swapAndSendDividends(sellTokens);\n        }\n\n        swapping = false;\n    }\n\n    function getClaimWait() external view returns(uint256) {\n        return dividendTracker.claimWait();\n    }\n\n    function getTotalDividendsDistributed() external view returns (uint256) {\n        return dividendTracker.totalDividendsDistributed();\n    }\n\n    function isExcludedFromFees(address account) public view returns(bool) {\n        return _isExcludedFromFees[account];\n    }\n\n    function withdrawableDividendOf(address account) public view returns(uint256) {\n    \treturn dividendTracker.withdrawableDividendOf(account);\n  \t}\n\n\tfunction dividendTokenBalanceOf(address account) public view returns (uint256) {\n\t\treturn dividendTracker.balanceOf(account);\n\t}\n\n\tfunction excludeFromDividends(address account) external onlyOwner{\n\t    dividendTracker.excludeFromDividends(account);\n\t}\n\n    function getAccountDividendsInfo(address account)\n        external view returns (\n            address,\n            int256,\n            int256,\n            uint256,\n            uint256,\n            uint256,\n            uint256,\n            uint256) {\n        return dividendTracker.getAccount(account);\n    }\n\n\tfunction getAccountDividendsInfoAtIndex(uint256 index)\n        external view returns (\n            address,\n            int256,\n            int256,\n            uint256,\n            uint256,\n            uint256,\n            uint256,\n            uint256) {\n    \treturn dividendTracker.getAccountAtIndex(index);\n    }\n\n\tfunction processDividendTracker(uint256 gas) external {\n\t\t(uint256 iterations, uint256 claims, uint256 lastProcessedIndex) = dividendTracker.process(gas);\n\t\temit ProcessedDividendTracker(iterations, claims, lastProcessedIndex, false, gas, tx.origin);\n    }\n\n    function claim() external {\n\t\tdividendTracker.processAccount(payable(msg.sender), false);\n    }\n\n    function claimAddress(address claimee) external onlyOwner {\n\t\tdividendTracker.processAccount(payable(claimee), false);\n    }\n\n    function getLastProcessedIndex() external view returns(uint256) {\n    \treturn dividendTracker.getLastProcessedIndex();\n    }\n\n    function setLastProcessedIndex(uint256 index) external onlyOwner {\n    \tdividendTracker.setLastProcessedIndex(index);\n    }\n\n    function getNumberOfDividendTokenHolders() external view returns(uint256) {\n        return dividendTracker.getNumberOfTokenHolders();\n    }\n\n    function _transfer(\n        address from,\n        address to,\n        uint256 amount\n    ) internal override {\n        require(from != address(0), \"ERC20: transfer from the zero address\");\n        require(to != address(0), \"ERC20: transfer to the zero address\");\n        require(!_isBlacklisted[from] && !_isBlacklisted[to], 'Blacklisted address');\n\n        if(amount == 0) {\n            super._transfer(from, to, 0);\n            return;\n        }\n\n\t\tuint256 contractTokenBalance = balanceOf(address(this));\n\n        bool canSwap = contractTokenBalance >= swapTokensAtAmount;\n\n        if( canSwap &&\n            !swapping &&\n            !automatedMarketMakerPairs[from] &&\n            from != owner() &&\n            to != owner()\n        ) {\n            swapping = true;\n\n            uint256 marketingTokens = contractTokenBalance.mul(marketingFee).div(totalFees);\n            swapAndSendToFee(marketingTokens);\n\n            uint256 swapTokens = contractTokenBalance.mul(liquidityFee).div(totalFees);\n            swapAndLiquify(swapTokens);\n\n            uint256 sellTokens = balanceOf(address(this));\n            swapAndSendDividends(sellTokens);\n\n            swapping = false;\n        }\n\n        bool takeFee = !swapping;\n\n        // if any account belongs to _isExcludedFromFee account then remove the fee\n        if(_isExcludedFromFees[from] || _isExcludedFromFees[to]) {\n            takeFee = false;\n        }\n\n        if(takeFee) {\n        \tuint256 fees = amount.mul(totalFees).div(100);\n        \tif(automatedMarketMakerPairs[to]){\n        \t    fees += amount.mul(1).div(100);\n        \t}\n        \tamount = amount.sub(fees);\n\n            super._transfer(from, address(this), fees);\n        }\n\n        super._transfer(from, to, amount);\n\n        try dividendTracker.setBalance(payable(from), balanceOf(from)) {} catch {}\n        try dividendTracker.setBalance(payable(to), balanceOf(to)) {} catch {}\n\n        if(!swapping) {\n\t    \tuint256 gas = gasForProcessing;\n\n\t    \ttry dividendTracker.process(gas) returns (uint256 iterations, uint256 claims, uint256 lastProcessedIndex) {\n\t    \t\temit ProcessedDividendTracker(iterations, claims, lastProcessedIndex, true, gas, tx.origin);\n\t    \t}\n\t    \tcatch {\n\n\t    \t}\n        }\n    }\n\n    function swapAndSendToFee(uint256 tokens) private  {\n        uint256 initialUSDTBalance = IERC20(USDT).balanceOf(address(this));\n\n        swapTokensForUsdt(tokens);\n        uint256 newBalance = (IERC20(USDT).balanceOf(address(this))).sub(initialUSDTBalance);\n        IERC20(USDT).transfer(_marketingWalletAddress, newBalance);\n    }\n\n    function swapAndLiquify(uint256 tokens) private {\n       // split the contract balance into halves\n        uint256 half = tokens.div(2);\n        uint256 otherHalf = tokens.sub(half);\n\n        // capture the contract's current ETH balance.\n        // this is so that we can capture exactly the amount of ETH that the\n        // swap creates, and not make the liquidity event include any ETH that\n        // has been manually sent to the contract\n        uint256 initialBalance = address(this).balance;\n\n        // swap tokens for ETH\n        swapTokensForEth(half); // <- this breaks the ETH -> HATE swap when swap+liquify is triggered\n\n        // how much ETH did we just swap into?\n        uint256 newBalance = address(this).balance.sub(initialBalance);\n\n        // add liquidity to uniswap\n        addLiquidity(otherHalf, newBalance);\n\n        emit SwapAndLiquify(half, newBalance, otherHalf);\n    }\n\n    function swapTokensForEth(uint256 tokenAmount) private {\n        // generate the uniswap pair path of token -> weth\n        address[] memory path = new address[](2);\n        path[0] = address(this);\n        path[1] = uniswapV2Router.WETH();\n\n        _approve(address(this), address(uniswapV2Router), tokenAmount);\n\n        // make the swap\n        uniswapV2Router.swapExactTokensForETHSupportingFeeOnTransferTokens(\n            tokenAmount,\n            0, // accept any amount of ETH\n            path,\n            address(this),\n            block.timestamp\n        );\n    }\n\n    function swapTokensForUsdt(uint256 tokenAmount) private {\n\n        address[] memory path = new address[](3);\n        path[0] = address(this);\n        path[1] = uniswapV2Router.WETH();\n        path[2] = USDT;\n\n        _approve(address(this), address(uniswapV2Router), tokenAmount);\n\n        // make the swap\n        uniswapV2Router.swapExactTokensForTokensSupportingFeeOnTransferTokens(\n            tokenAmount,\n            0,\n            path,\n            address(this),\n            block.timestamp\n        );\n    }\n\n    function addLiquidity(uint256 tokenAmount, uint256 ethAmount) private {\n\n        // approve token transfer to cover all possible scenarios\n        _approve(address(this), address(uniswapV2Router), tokenAmount);\n\n        // add the liquidity\n        uniswapV2Router.addLiquidityETH{value: ethAmount}(\n            address(this),\n            tokenAmount,\n            0, // slippage is unavoidable\n            0, // slippage is unavoidable\n            owner(),\n            block.timestamp\n        );\n    }\n\n    function swapAndSendDividends(uint256 tokens) private{\n        swapTokensForUsdt(tokens);\n        uint256 dividends = IERC20(USDT).balanceOf(address(this));\n        bool success = IERC20(USDT).transfer(address(dividendTracker), dividends);\n\n        if (success) {\n            dividendTracker.distributeUSDTDividends(dividends);\n            emit SendDividends(tokens, dividends);\n        }\n    }\n}\n\ncontract PrimBankDividendTracker is Ownable, DividendPayingToken {\n    using SafeMath for uint256;\n    using SafeMathInt for int256;\n    using IterableMapping for IterableMapping.Map;\n\n    IterableMapping.Map private tokenHoldersMap;\n    uint256 public lastProcessedIndex;\n\n    mapping (address => bool) public excludedFromDividends;\n\n    mapping (address => uint256) public lastClaimTimes;\n\n    uint256 public claimWait;\n    uint256 public immutable minimumTokenBalanceForDividends;\n\n    event ExcludeFromDividends(address indexed account);\n    event ClaimWaitUpdated(uint256 indexed newValue, uint256 indexed oldValue);\n\n    event Claim(address indexed account, uint256 amount, bool indexed automatic);\n\n    constructor()  DividendPayingToken(\"BNBank_Dividen_Tracker\", \"BNBank_Dividend_Tracker\") {\n    \tclaimWait = 3600;\n        minimumTokenBalanceForDividends = 200000 * (10**18); //must hold 200000+ tokens\n    }\n\n    function _transfer(address, address, uint256) internal pure  override  {\n        require(false, \"BNBank_Dividen_Tracker: No transfers allowed\");\n    }\n\n    function withdrawDividend() public pure override {\n        require(false, \"BNBank_Dividen_Tracker: withdrawDividend disabled. Use the 'claim' function on the main PrimBank contract.\");\n    }\n\n    function excludeFromDividends(address account) external onlyOwner {\n    \trequire(!excludedFromDividends[account]);\n    \texcludedFromDividends[account] = true;\n\n    \t_setBalance(account, 0);\n    \ttokenHoldersMap.remove(account);\n\n    \temit ExcludeFromDividends(account);\n    }\n\n    function updateClaimWait(uint256 newClaimWait) external onlyOwner {\n        require(newClaimWait >= 3600 && newClaimWait <= 86400, \"BnbBank_Dividend_Tracker: claimWait must be updated to between 1 and 24 hours\");\n        require(newClaimWait != claimWait, \"BNBank_Dividen_Tracker: Cannot update claimWait to same value\");\n        emit ClaimWaitUpdated(newClaimWait, claimWait);\n        claimWait = newClaimWait;\n    }\n\n    function setLastProcessedIndex(uint256 index) external onlyOwner {\n    \tlastProcessedIndex = index;\n    }\n\n    function getLastProcessedIndex() external view returns(uint256) {\n    \treturn lastProcessedIndex;\n    }\n\n    function getNumberOfTokenHolders() external view returns(uint256) {\n        return tokenHoldersMap.keys.length;\n    }\n\n\n\n    function getAccount(address _account)\n        public view returns (\n            address account,\n            int256 index,\n            int256 iterationsUntilProcessed,\n            uint256 withdrawableDividends,\n            uint256 totalDividends,\n            uint256 lastClaimTime,\n            uint256 nextClaimTime,\n            uint256 secondsUntilAutoClaimAvailable) {\n        account = _account;\n\n        index = tokenHoldersMap.getIndexOfKey(account);\n\n        iterationsUntilProcessed = -1;\n\n        if(index >= 0) {\n            if(uint256(index) > lastProcessedIndex) {\n                iterationsUntilProcessed = index.sub(int256(lastProcessedIndex));\n            }\n            else {\n                uint256 processesUntilEndOfArray = tokenHoldersMap.keys.length > lastProcessedIndex ?\n                                                        tokenHoldersMap.keys.length.sub(lastProcessedIndex) :\n                                                        0;\n\n\n                iterationsUntilProcessed = index.add(int256(processesUntilEndOfArray));\n            }\n        }\n\n\n        withdrawableDividends = withdrawableDividendOf(account);\n        totalDividends = accumulativeDividendOf(account);\n\n        lastClaimTime = lastClaimTimes[account];\n\n        nextClaimTime = lastClaimTime > 0 ?\n                                    lastClaimTime.add(claimWait) :\n                                    0;\n\n        secondsUntilAutoClaimAvailable = nextClaimTime > block.timestamp ?\n                                                    nextClaimTime.sub(block.timestamp) :\n                                                    0;\n    }\n\n    function getAccountAtIndex(uint256 index)\n        public view returns (\n            address,\n            int256,\n            int256,\n            uint256,\n            uint256,\n            uint256,\n            uint256,\n            uint256) {\n    \tif(index >= tokenHoldersMap.size()) {\n            return (0x0000000000000000000000000000000000000000, -1, -1, 0, 0, 0, 0, 0);\n        }\n\n        address account = tokenHoldersMap.getKeyAtIndex(index);\n\n        return getAccount(account);\n    }\n\n    function canAutoClaim(uint256 lastClaimTime) private view returns (bool) {\n    \tif(lastClaimTime > block.timestamp)  {\n    \t\treturn false;\n    \t}\n\n    \treturn block.timestamp.sub(lastClaimTime) >= claimWait;\n    }\n\n    function setBalance(address payable account, uint256 newBalance) external onlyOwner {\n    \tif(excludedFromDividends[account]) {\n    \t\treturn;\n    \t}\n\n    \tif(newBalance >= minimumTokenBalanceForDividends) {\n            _setBalance(account, newBalance);\n    \t\ttokenHoldersMap.set(account, newBalance);\n    \t}\n    \telse {\n            _setBalance(account, 0);\n    \t\ttokenHoldersMap.remove(account);\n    \t}\n\n    \tprocessAccount(account, true);\n    }\n\n    function process(uint256 gas) public returns (uint256, uint256, uint256) {\n    \tuint256 numberOfTokenHolders = tokenHoldersMap.keys.length;\n\n    \tif(numberOfTokenHolders == 0) {\n    \t\treturn (0, 0, lastProcessedIndex);\n    \t}\n\n    \tuint256 _lastProcessedIndex = lastProcessedIndex;\n\n    \tuint256 gasUsed = 0;\n\n    \tuint256 gasLeft = gasleft();\n\n    \tuint256 iterations = 0;\n    \tuint256 claims = 0;\n\n    \twhile(gasUsed < gas && iterations < numberOfTokenHolders) {\n    \t\t_lastProcessedIndex++;\n\n    \t\tif(_lastProcessedIndex >= tokenHoldersMap.keys.length) {\n    \t\t\t_lastProcessedIndex = 0;\n    \t\t}\n\n    \t\taddress account = tokenHoldersMap.keys[_lastProcessedIndex];\n\n    \t\tif(canAutoClaim(lastClaimTimes[account])) {\n    \t\t\tif(processAccount(payable(account), true)) {\n    \t\t\t\tclaims++;\n    \t\t\t}\n    \t\t}\n\n    \t\titerations++;\n\n    \t\tuint256 newGasLeft = gasleft();\n\n    \t\tif(gasLeft > newGasLeft) {\n    \t\t\tgasUsed = gasUsed.add(gasLeft.sub(newGasLeft));\n    \t\t}\n\n    \t\tgasLeft = newGasLeft;\n    \t}\n\n    \tlastProcessedIndex = _lastProcessedIndex;\n\n    \treturn (iterations, claims, lastProcessedIndex);\n    }\n\n    function processAccount(address payable account, bool automatic) public onlyOwner returns (bool) {\n        uint256 amount = _withdrawDividendOfUser(account);\n\n    \tif(amount > 0) {\n    \t\tlastClaimTimes[account] = block.timestamp;\n            emit Claim(account, amount, automatic);\n    \t\treturn true;\n    \t}\n\n    \treturn false;\n    }\n}\n",
  "sourcePath": "/Users/nlwsoft/Desktop/PrimBank Contracts/contracts/PrimBank.sol",
  "compiler": {
    "name": "solc",
    "version": "0.8.11+commit.d7f03943.Emscripten.clang"
  },
  "schemaVersion": "3.4.3",
  "updatedAt": "2022-01-11T01:14:24.801Z",
  "devdoc": {
    "kind": "dev",
    "methods": {
      "allowance(address,address)": {
        "details": "See {IERC20-allowance}."
      },
      "approve(address,uint256)": {
        "details": "See {IERC20-approve}. Requirements: - `spender` cannot be the zero address."
      },
      "balanceOf(address)": {
        "details": "See {IERC20-balanceOf}."
      },
      "decimals()": {
        "details": "Returns the number of decimals used to get its user representation. For example, if `decimals` equals `2`, a balance of `505` tokens should be displayed to a user as `5,05` (`505 / 10 ** 2`). Tokens usually opt for a value of 18, imitating the relationship between Ether and Wei. This is the value {ERC20} uses, unless this function is overridden; NOTE: This information is only used for _display_ purposes: it in no way affects any of the arithmetic of the contract, including {IERC20-balanceOf} and {IERC20-transfer}."
      },
      "decreaseAllowance(address,uint256)": {
        "details": "Atomically decreases the allowance granted to `spender` by the caller. This is an alternative to {approve} that can be used as a mitigation for problems described in {IERC20-approve}. Emits an {Approval} event indicating the updated allowance. Requirements: - `spender` cannot be the zero address. - `spender` must have allowance for the caller of at least `subtractedValue`."
      },
      "increaseAllowance(address,uint256)": {
        "details": "Atomically increases the allowance granted to `spender` by the caller. This is an alternative to {approve} that can be used as a mitigation for problems described in {IERC20-approve}. Emits an {Approval} event indicating the updated allowance. Requirements: - `spender` cannot be the zero address."
      },
      "name()": {
        "details": "Returns the name of the token."
      },
      "owner()": {
        "details": "Returns the address of the current owner."
      },
      "renounceOwnership()": {
        "details": "Leaves the contract without owner. It will not be possible to call `onlyOwner` functions anymore. Can only be called by the current owner. NOTE: Renouncing ownership will leave the contract without an owner, thereby removing any functionality that is only available to the owner."
      },
      "symbol()": {
        "details": "Returns the symbol of the token, usually a shorter version of the name."
      },
      "totalSupply()": {
        "details": "See {IERC20-totalSupply}."
      },
      "transfer(address,uint256)": {
        "details": "See {IERC20-transfer}. Requirements: - `recipient` cannot be the zero address. - the caller must have a balance of at least `amount`."
      },
      "transferFrom(address,address,uint256)": {
        "details": "See {IERC20-transferFrom}. Emits an {Approval} event indicating the updated allowance. This is not required by the EIP. See the note at the beginning of {ERC20}. Requirements: - `sender` and `recipient` cannot be the zero address. - `sender` must have a balance of at least `amount`. - the caller must have allowance for ``sender``'s tokens of at least `amount`."
      },
      "transferOwnership(address)": {
        "details": "Transfers ownership of the contract to a new account (`newOwner`). Can only be called by the current owner."
      }
    },
    "version": 1
  },
  "userdoc": {
    "kind": "user",
    "methods": {},
    "version": 1
  }
}